:100000000C9465000C9448080C9475080C948D00B1
:100010000C948D000C948D000C948D000C948D002C
:100020000C948D000C948D000C948D000C948D001C
:100030000C948D000C948D000C948D000C948D000C
:100040000C94A2080C948D000C94290A0C947B0A41
:100050000C948D000C948D000C948D000C948D00EC
:100060000C9476060C948D000000000024002700FC
:100070002A0000000000250028002B0000000000DE
:1000800023002600290004040404040404040202DA
:100090000202020203030303030301020408102007
:1000A0004080010204081020010204081020000012
:1000B0000007000201000003040600000000000029
:1000C000000075026C05630B6E0211241FBECFEF9A
:1000D000D8E0DEBFCDBF11E0A0E0B1E0EEE9F7E28D
:1000E00002C005900D92AE35B107D9F713E0AEE529
:1000F000B1E001C01D92AA38B107E1F710E0C8ECE9
:10010000D0E004C02297FE010E94BE13C23CD1077A
:10011000C9F70E94BA0B0C94C2130C940000FB01A7
:10012000DC0102C001900D9241505040D8F7089573
:10013000FB01DC018D91019080190110D9F3990B1D
:100140000895FB01DC0101900D920020E1F7089574
:10015000A0910B02B0910C02ED91FD918081ED9187
:10016000FD919081ED91FD916C9163708E2309F06A
:1001700064609F2309F06860E8ECF0E0E60FF11D91
:10018000659565956D936D917D918D919D91099486
:1001900023C01AC012C016C010C01EC009C014C0AF
:1001A00013C006C019C009C00DC007C00DC014C0DF
:1001B00062507040804090400BC061507040804061
:1001C000904006C06E5F01C06F5F7F4F8F4F9F4FA3
:1001D0009E938E937E936E930895A0910D02B0919D
:1001E0000E02ED91FD918081ED91FD919081ED9157
:1001F000FD916C9163708E2309F064609F2309F078
:100200006860EDE0F1E0E60FF11D659565956D9391
:100210006D917D918D919D91099423C01AC012C05A
:1002200016C010C01EC009C014C013C006C019C03B
:1002300009C00DC007C00DC014C06250704080409E
:1002400090400BC0615070408040904006C06E5F8F
:1002500001C06F5F7F4F8F4F9F4F9E938E937E9312
:100260006E930895823021F0833079F080E0089514
:1002700070930C0260930B0280E068EA70E041E04A
:1002800050E00E94250881E0089570930E0260936B
:100290000D0281E06DEE70E041E050E00E94250823
:1002A00081E008950F931F93CF93DF93EC01162FF6
:1002B000042F862F62E00E949609802F62E00E9440
:1002C0009609212F30E0F901EA57FF4FE491F0E061
:1002D000EE0FFF1FE458FF4F859194919983888317
:1002E00026563F4FF90184918C83202F30E0F9018D
:1002F000EA57FF4FE491F0E0EE0FFF1FE458FF4F85
:10030000859194919B838A8326563F4FF90184916E
:100310008D831F82188619861A8680ED97E00E94C9
:100320005109E881F981208140E030E08C8190E042
:1003300028233923232B09F041E0EA81FB81208126
:1003400030E08D8190E028233923232B09F042608F
:100350004E83812FBE010E943201182F8B87802F80
:10036000BE010E943201180F1B87DF91CF911F91B0
:100370000F9108958F929F92AF92BF92CF92DF928A
:10038000EF92FF920F931F938130910509F092C075
:100390006F5F7F4F09F097C08EE591E060E071E0FC
:1003A0000E94C60E85E891E062E043E00E9452019F
:1003B00081E991E062E143E10E94520100D000D066
:1003C00000D08DB69EB60894811C911C60913601B8
:1003D00070913701882777FD8095982F0E943912F8
:1003E0007B018C016091830170918401882777FDE6
:1003F0008095982F0E9439125B016C0160918101F8
:1004000070918201882777FD8095982F0E9439127C
:10041000F4016083718382839383158214828DE952
:1004200091E06DE671E041E751E029E631E00E949C
:100430008D048DB69EB60894811C911C6091360186
:1004400070913701882777FD8095982F0E94391287
:100450007B018C016091830170918401882777FD75
:100460008095982F0E9439125B016C016091810187
:1004700070918201882777FD8095982F0E9439120C
:10048000F40160837183828393831582148284EDE7
:1004900091E069E771E04DE751E025E731E00E9426
:1004A0008D048DB79EB706960FB6F8949EBF0FBE0B
:1004B0008DBF09C0892B39F46F5F7F4F21F48EE522
:1004C00091E00E94190F1F910F91FF90EF90DF9024
:1004D000CF90BF90AF909F908F90089580E090E074
:1004E0006FEF7FEF0E94BA01089581E090E06FEF17
:1004F0007FEF0E94BA010895CF93DF93EC0161E092
:1005000071E00E94FA0D882329F060913601709104
:1005100037010BC0CE0165E071E00E94FA0D88231F
:1005200059F0609181017091820184E693E04AE084
:1005300050E00E94E40C41C0CE0169E071E00E94ED
:10054000FA0D882329F06091830170918401EDCF29
:10055000CE016DE071E00E94FA0D882349F04091D0
:1005600065015091660160916701709168011FC03B
:10057000CE0162E171E00E94FA0D882349F04091BA
:10058000690150916A0160916B0170916C010FC01B
:10059000CE0167E171E00E94FA0D882371F040916D
:1005A000710150917201609173017091740184E640
:1005B00093E022E030E00E94E70DDF91CF910895B3
:1005C000EF92FF920F931F93DF93CF9300D000D051
:1005D00000D0CDB7DEB701E07E010894E11CF11C2C
:1005E00021C084E693E00E94EA0A182F8EE591E08C
:1005F000612F0E94800E1A30A9F400936401C70194
:100600006EE571E00E940F0FC7010E947C02C701D6
:100610000E94190F8EE591E060E071E00E94DF0E0C
:100620001092640184E693E00E94B60A892BC9F611
:1006300026960FB6F894DEBF0FBECDBFCF91DF91E7
:100640001F910F91FF90EF90089585E592E00E9431
:10065000FB0508950F931F9305E512E0C80164E0C0
:1006600070E00E943205C80161E00E94B405C80133
:100670000E94F70564E670E080E090E00E94F808D0
:100680001F910F9108952F923F924F925F926F9218
:100690007F928F929F92AF92BF92CF92DF92EF9212
:1006A000FF920F931F93DF93CF9300D000D0CDB76D
:1006B000DEB71C0149835A836B837C83480159014F
:1006C00026013701CB01BA0120E030E040E050E0E4
:1006D0000E949A1187FD8EC0C501B40120E030E070
:1006E00040E050E00E949A1187FD84C0C701B60126
:1006F00020E030E040E050E00E949A1187FD7AC08F
:1007000089819A81AB81BC81F10180839183A2832D
:10071000B383D10114968D929D92AD92BC9217979E
:10072000C086D186E286F38664A575A5882777FD05
:100730008095982F0E94391220E030E04AE754E477
:100740000E949E117B018C0189819A81AB81BC81C1
:10075000F10184879587A687B787C501B401A801F1
:1007600097010E94ED125B016C01D10150966D93CF
:100770007D938D939C935397C301B201A801970178
:100780000E949E117B018C01F101648B758B868B1D
:10079000978B808D918D019769F560E070E080E026
:1007A00090E029813A814B815C810E943511D10111
:1007B0001C966D937D938D939C931F9760E070E0E2
:1007C00080E090E0A60195010E943511F101608B57
:1007D000718B828B938B60E070E080E090E0A801E9
:1007E00097010E943511D10154966D937D938D939D
:1007F0009C9357970F900F900F900F90CF91DF9190
:100800001F910F91FF90EF90DF90CF90BF90AF902E
:100810009F908F907F906F905F904F903F902F9020
:1008200008954F925F926F927F928F929F92AF92B4
:10083000BF92CF92DF92EF92FF920F931F93CF93CD
:10084000DF93EC013A014B0178018901CB01BA0138
:10085000A80197010E94E91287FF4EC06EA67FA6ED
:1008600088AA99AAEAAAFBAA0CAB1DAB8EA9882379
:1008700009F442C04C8C5D8CF201A080B180C28032
:10088000D380C601B501A80197010E94E91218168C
:1008900034F4F201E082F182028313830DC0C601B9
:1008A000B501A40193010E949A1188232CF4F2014E
:1008B0006082718282829382ACA0BDA0CEA0DFA0B4
:1008C000EAA8FBA80CA91DA9C601B501A8019701BA
:1008D0000E94E912181664F0EEA4FFA408A919A951
:1008E000C601B501A80197010E949A11882324F43A
:1008F000ECA2FDA20EA31FA3DF91CF911F910F9138
:10090000FF90EF90DF90CF90BF90AF909F908F902F
:100910007F906F905F904F9008952F923F924F92EB
:100920005F926F927F928F929F92AF92BF92CF927F
:10093000DF92EF92FF920F931F93DF93CF9300D03C
:1009400000D0CDB7DEB74C017A8369831A013C83AE
:100950002B8327013801ED8CFE8C40E050E060E0F5
:1009600070E000E010E02FE733E40E94110484E619
:1009700090E0F40195A784A786A9882391F1808D42
:10098000918DE816F90669F160E070E080E090E092
:1009900024853585468557850E943511F401648785
:1009A00075878687978760E070E080E090E0208917
:1009B0003189428953890E943511F401608B718B12
:1009C000828B938B60E070E080E090E02489358931
:1009D000468957890E943511F401648B758B868B8B
:1009E000978BF401F18EE08EC401B301A201960150
:1009F0008501C98CDA8CEB8CFC8C0E9443030E942D
:100A0000EA08F40124A535A5442737FD4095542F65
:100A1000621B730B840B950B60A371A382A393A33A
:100A200016AA358E248E89819A81938F828F8B812D
:100A30009C81978F868F0F900F900F900F90CF9182
:100A4000DF911F910F91FF90EF90DF90CF90BF90BB
:100A5000AF909F908F907F906F905F904F903F905E
:100A60002F90089581E08093540260933102109298
:100A700052021092530208952091300230E080918A
:100A80002F02281B3109C901089540912F0280913E
:100A90003002481718F02FEF3FEF0AC0E42FF0E0C4
:100AA000E15FFD4F8081282F30E04F5F40932F02A0
:100AB000C9010895E0912F0280913002E81718F0E3
:100AC000EFEFFFEF06C0F0E0E15FFD4F8081E82F20
:100AD000F0E0CF0108950895109258021092570245
:100AE00088EE93E0A0E0B0E08093590290935A0220
:100AF000A0935B02B0935C0282E491E09093560273
:100B0000809355020895CF92DF92EF92FF920F9358
:100B10001F93CF93DF937C016B018A018091540274
:100B20008823A1F0C0E0D0E00DC0D701ED91FC9189
:100B3000D601AC0FBD1F0190F081E02DC7016C9173
:100B400009952196C017D10780F304C0CB01642F0B
:100B50000E945B06C801DF91CF911F910F91FF901A
:100B6000EF90DF90CF900895DF93CF930F92CDB7A2
:100B7000DEB7FC016983809154028823C9F080911B
:100B80005302803238F081E090E09383828320E04A
:100B900030E015C080915202E82FF0E0EE5CFD4F8E
:100BA000998190838F5F809352028093530205C096
:100BB000CE01019661E00E945B0621E030E0C901B0
:100BC0000F90CF91DF9108950F93062F80913102FE
:100BD00062E372E04091530221E00E940606109207
:100BE000520210925302109254020F91089561E044
:100BF0000E94E405089510922F0210923002109284
:100C00005202109253020E94070808950F931F93F7
:100C1000582F122F413210F081E04AC080916102BA
:100C20008823E1F782E080936102009363028FEFF3
:100C30008093CE021092890240938A02A9E6B2E024
:100C4000FB0102C081918D938E2F861B8417D0F3F8
:100C50001092620280916202550F852B809362028E
:100C600080916402813041F41092640280916202AA
:100C70008093BB0085EC01C085EE8093BC001123FE
:100C800021F0809161028230E1F38091CE028F3FAA
:100C900011F480E00DC08091CE02803211F482E028
:100CA00007C08091CE02803311F084E001C083E060
:100CB0001F910F910895482F613210F081E008953F
:100CC00080916102843011F082E008956093AC025B
:100CD000ABE8B2E0842F9C01F90102C081918D93B1
:100CE0008E2F841B8617D0F380E008951F920F92F9
:100CF0000FB60F9211242F933F934F935F936F93EF
:100D00007F938F939F93AF93BF93EF93FF938091C4
:100D1000B90090E0887F90708036910509F4F2C0A8
:100D200081369105CCF58832910509F47BC0893272
:100D30009105B4F48031910509F46FC081319105BA
:100D40003CF4009709F447C1089709F04FC165C00A
:100D50008831910509F466C0809709F047C182C0C7
:100D60008034910509F4A4C08134910544F48033A2
:100D7000910509F482C0C89709F038C189C080354F
:100D8000910509F489C08835910509F496C0883425
:100D9000910509F02BC1AEC08839910509F413C142
:100DA00089399105ECF48837910509F4ABC089378E
:100DB00091054CF48836910509F4A4C0803791055B
:100DC00009F014C19FC08838910509F4FCC080392E
:100DD000910509F49DC08038910509F007C198C0BC
:100DE000803B910509F4C6C0813B91054CF4803AE3
:100DF000910509F49FC0883A910509F0F7C0BAC07F
:100E0000803C910509F4E3C0883C910509F4DFC0FA
:100E1000883B910509F0EAC0C2C0809162028093CC
:100E2000BB00CFC09091890280918A02981768F424
:100E300090918902E92FF0E0E759FD4F808180937E
:100E4000BB009F5F90938902BCC08091630288239E
:100E500009F44BC085ED8093BC008091BC0084FDFB
:100E6000FCCFC2C080E28093CE0285ED8093BC00AF
:100E70008091BC0084FDFCCFB7C080E38093CE029C
:100E800085ED8093BC008091BC0084FDFCCFACC09C
:100E900088E38093CE029BC0809189029091BB0031
:100EA000E82FF0E0E759FD4F90838F5F8093890230
:100EB0009091890280918A0282C0809189029091EA
:100EC000BB00E82FF0E0E759FD4F90838F5F8093E0
:100ED000890280916302882341F085ED8093BC00F4
:100EE0008091BC0084FDFCCF7FC081E080936402D0
:100EF00084EA6EC085ED8093BC008091BC0084FDC7
:100F0000FCCF72C083E0809361021092CD0259C081
:100F10008091CD02803208F056C08091CD02909130
:100F2000BB00E82FF0E0E355FD4F90838F5F809387
:100F3000CD0247C08091CD02803230F4E091CD02E5
:100F4000F0E0E355FD4F108285ED8093BC00809169
:100F5000BC0084FDFCCF109261026091CD02E09153
:100F60006702F09168028DEA92E070E009951092B4
:100F7000CD022DC084E0809361021092AB021092EA
:100F8000AC02E0916502F091660209958091AC0295
:100F9000882329F481E08093AC0210928B02909117
:100FA000AB02E92FF0E0E557FD4F80818093BB0055
:100FB0009F5F9093AB029091AB028091AC02981727
:100FC00010F485EC01C085E88093BC000FC085EC6F
:100FD0008093BC0009C01092CE0285ED8093BC00C6
:100FE0008091BC0084FDFCCF10926102FF91EF91D3
:100FF000BF91AF919F918F917F916F915F914F9131
:101000003F912F910F900FBE0F901F901895109247
:10101000610281E0809363021092640282E161E0E8
:101020000E94D50983E161E00E94D509E9EBF0E077
:1010300080818E7F808380818D7F808388E4809310
:10104000B80085E48093BC000895823000F5E82F55
:10105000F0E0EE0FFF1FE153FD4F718360838823A3
:1010600019F08130A1F408C0809169008C7F842B35
:1010700080936900E89A089580916900440F551F94
:10108000440F551F837F842B80936900E99A08954C
:101090001F920F920FB60F9211242F933F934F93ED
:1010A0005F936F937F938F939F93AF93BF93EF93D0
:1010B000FF938091CF029091D002892B29F0E0918B
:1010C000CF02F091D0020995FF91EF91BF91AF91BE
:1010D0009F918F917F916F915F914F913F912F9150
:1010E0000F900FBE0F901F9018951F920F920FB682
:1010F0000F9211242F933F934F935F936F937F939E
:101100008F939F93AF93BF93EF93FF938091D102FF
:101110009091D202892B29F0E091D102F091D20274
:101120000995FF91EF91BF91AF919F918F917F9121
:101130006F915F914F913F912F910F900FBE0F9044
:101140001F9018951F920F920FB60F9211242F9394
:101150003F938F939F93AF93BF938091D7029091CA
:10116000D802A091D902B091DA023091DB02019647
:10117000A11DB11D232F2D5F2D3720F02D57019676
:10118000A11DB11D2093DB028093D7029093D8025A
:10119000A093D902B093DA028091D3029091D40245
:1011A000A091D502B091D6020196A11DB11D8093E8
:1011B000D3029093D402A093D502B093D602BF91EC
:1011C000AF919F918F913F912F910F900FBE0F90F4
:1011D0001F9018958FB7F8942091D7023091D802BC
:1011E0004091D9025091DA028FBFB901CA01089526
:1011F0009B01AC017FB7F8948091D3029091D40207
:10120000A091D502B091D60266B5A89B05C06F3FEC
:1012100019F00196A11DB11D7FBFBA2FA92F982FDC
:101220008827860F911DA11DB11D62E0880F991FAF
:10123000AA1FBB1F6A95D1F7BC012DC0FFB7F89458
:101240008091D3029091D402A091D502B091D602A0
:10125000E6B5A89B05C0EF3F19F00196A11DB11D91
:10126000FFBFBA2FA92F982F88278E0F911DA11D80
:10127000B11DE2E0880F991FAA1FBB1FEA95D1F7A5
:10128000861B970B885E9340C8F221503040404047
:10129000504068517C4F211531054105510571F6CB
:1012A0000895019739F0880F991F880F991F0297A9
:1012B0000197F1F70895789484B5826084BD84B570
:1012C000816084BD85B5826085BD85B5816085BD41
:1012D000EEE6F0E0808181608083E1E8F0E010825A
:1012E000808182608083808181608083E0E8F0E09B
:1012F000808181608083E1EBF0E080818460808385
:10130000E0EBF0E0808181608083EAE7F0E08081BB
:10131000846080838081826080838081816080831B
:101320008081806880831092C1000895CF93DF93FD
:10133000482F50E0CA0186569F4FFC0134914A570E
:101340005F4FFA018491882369F190E0880F991F1B
:10135000FC01E859FF4FA591B491FC01EE58FF4FF5
:10136000C591D491662351F42FB7F8948C91932FA3
:10137000909589238C93888189230BC0623061F416
:101380002FB7F8948C91932F909589238C93888113
:10139000832B88832FBF06C09FB7F8948C91832B33
:1013A0008C939FBFDF91CF910895482F50E0CA01E1
:1013B00082559F4FFC012491CA0186569F4FFC0124
:1013C00094914A575F4FFA013491332309F440C096
:1013D000222351F1233071F0243028F42130A1F080
:1013E000223011F514C02630B1F02730C1F024307E
:1013F000D9F404C0809180008F7703C08091800071
:101400008F7D8093800010C084B58F7702C084B533
:101410008F7D84BD09C08091B0008F7703C080911B
:10142000B0008F7D8093B000E32FF0E0EE0FFF1F40
:10143000EE58FF4FA591B4912FB7F894662321F48D
:101440008C919095892302C08C91892B8C932FBF0E
:1014500008951F920F920FB60F9211242F933F936E
:101460004F938F939F93EF93FF938091C00082FDE2
:101470001DC04091C60020911C0330911D032F5FB9
:101480003F4F2F73307080911E0390911F032817D8
:10149000390771F0E0911C03F0911D03E452FD4FF8
:1014A000408330931D0320931C0302C08091C6002B
:1014B000FF91EF919F918F914F913F912F910F90BD
:1014C0000FBE0F901F901895E0917003F09171037B
:1014D000E05CFF4F8191919120813181805C9F4F31
:1014E000821B930B60E470E00E947313892B11F050
:1014F0000E94E00208951F920F920FB60F921124DE
:101500002F933F938F939F93EF93FF9320916003CB
:10151000309161038091620390916303281739072A
:1015200031F48091C1008F7D8093C10014C0E0919F
:101530006203F0916303E05EFC4F208180916203BF
:101540009091630301968F739070909363038093DF
:1015500062032093C600FF91EF919F918F913F917D
:101560002F910F900FBE0F901F901895DC011C96C5
:10157000ED91FC911D97E05CFF4F8191919120814D
:101580003181805C9F4F821B930B60E470E00E946E
:1015900073130895DC011C96ED91FC911D97E05C9E
:1015A000FF4F20813181E054F040DF01AE5BBF4F3F
:1015B0008D919C9111972817390719F42FEF3FEF60
:1015C00007C08D919C91E80FF91F8081282F30E092
:1015D000C9010895DC011C96ED91FC911D97E05C1A
:1015E000FF4F20813181E054F040DF01AE5BBF4FFF
:1015F0008D919C9111972817390719F42FEF3FEF20
:1016000010C08D919C911197E80FF91F20818D9149
:101610009C91119701968F73907011969C938E9365
:1016200030E0C9010895DC0191968C91919788234F
:1016300039F05496ED91FC915597808186FFF9CF52
:1016400091961C920895CF93DF93EC01EE85FF8570
:10165000E05CFF4F20813181E054F0402F5F3F4F2D
:101660002F733070DF01AE5BBF4F8D919C9111974E
:1016700028173907D1F3E05CFF4F80819181E05456
:10168000F040E80FF91F6083EE85FF85E05CFF4FB7
:1016900031832083EE89FF89208181E090E00F8CE7
:1016A00002C0880F991F0A94E2F7282B208381E05B
:1016B00089A3EC89FD8980818064808381E090E04A
:1016C000DF91CF910895109267031092660388EE20
:1016D00093E0A0E0B0E08093680390936903A09347
:1016E0006A03B0936B0382E591E090936503809366
:1016F00064038CED92E0909371038093700380E219
:1017000093E0909373038093720385EC90E0909341
:1017100075038093740384EC90E090937703809337
:10172000760380EC90E0909379038093780381ECCA
:1017300090E090937B0380937A0382EC90E0909307
:101740007D0380937C0386EC90E090937F038093ED
:101750007E0384E08093800383E08093810387E0AD
:101760008093820385E08093830381E080938403E8
:1017700008950895CF93DF930E945B090E94B90BEF
:101780000E942503C4E6DAE00E942A032097E1F3D1
:101790000E94640AF9CFCF92DF92EF92FF920F93EB
:1017A0001F93CF93DF937C016B018A01C0E0D0E0EF
:1017B0000FC0D6016D916D01D701ED91FC910190A3
:1017C000F081E02DC7010995C80FD91F01501040C5
:1017D0000115110571F7CE01DF91CF911F910F9186
:1017E000FF90EF90DF90CF900895EF92FF920F93CC
:1017F0001F938C01DC01ED91FC910190F081E02DB3
:101800006DE009957C01D801ED91FC910190F0818A
:10181000E02DC8016AE009959C012E0D3F1DC9010C
:101820001F910F91FF90EF900895CF93DF93EC01FC
:101830006115710519F420E030E00FC0DB010D9057
:101840000020E9F71197A61BB70BE881F981028008
:10185000F381E02DAD0109959C01C901DF91CF9184
:1018600008954F925F927F928F929F92AF92BF9214
:10187000CF92DF92EF92FF920F931F93DF93CF935C
:10188000CDB7DEB7A1970FB6F894DEBF0FBECDBFC0
:101890002C01742ECB01223008F42AE019A231E287
:1018A000C32ED12CCC0EDD1E822E9924AA24BB245B
:1018B000672D752FA50194010E94861379018A0175
:1018C000C801B701A50194010E945413472D461B7E
:1018D0000894C108D1084A3014F4405D01C0495C45
:1018E000F6014083E114F1040105110521F07E2C7D
:1018F0005F2DC801DDCFC201B6010E94150CA19673
:101900000FB6F894DEBF0FBECDBFCF91DF911F9110
:101910000F91FF90EF90DF90CF90BF90AF909F908E
:101920008F907F905F904F900895DC0121153105D5
:1019300041F4ED91FC910190F081E02D642F099527
:1019400008950E94310C0895CF92DF92EF92FF929A
:101950000F931F93CF93DF93EC016A017B01211555
:10196000310541F4E881F9810190F081E02D642F87
:1019700009951FC02A303105D1F477FF17C0E881DF
:10198000F9810190F081E02D6DE209958C014427E9
:101990005527BA014C195D096E097F09CE012AE06D
:1019A0000E94310C9801280F391F04C02AE00E94C0
:1019B000310C9C01C901DF91CF911F910F91FF90D4
:1019C000EF90DF90CF900895CF92DF92EF92FF9249
:1019D0000F931F936C017B019A010027F7FC009580
:1019E000102FB801A7010E94A40C8C01C6010E940F
:1019F000F50B080F191FC8011F910F91FF90EF9071
:101A0000DF90CF9008957F928F929F92AF92BF9276
:101A1000CF92DF92EF92FF920F931F93CF93DF93BA
:101A20004C017A018B01722ECB01BA01A8019701FA
:101A30000E945013882321F0C40168E271E021C0A4
:101A4000C0E0D0E057016801E894D7F8C601B501BD
:101A50002FEF3FEF4FE75FE70E945013882351F4C9
:101A6000C601B5012FEF3FEF4FE75FE70E949A11E4
:101A7000181614F0C1E0D0E0219739F0C4016CE2EF
:101A800071E00E94150CEC0193C0C801B7012FEF63
:101A90003FEF4FE75FE40E94E912181654F0C801C7
:101AA000B7012FEF3FEF4FE75FEC0E949A118823B9
:101AB00024F4C40160E371E0E4CFC801B70120E081
:101AC00030E040E050E00E949A1187FD03C0C0E082
:101AD000D0E00EC0D401ED91FC910190F081E02D99
:101AE000C4016DE20995EC0117FB109517F91095EB
:101AF00020E030E040E05FE3DD240BC0CA01B90123
:101B000020E030E040E251E40E949E119B01AC01D4
:101B1000D394D71498F3C801B7010E9436115B0122
:101B20006C010E940B127B018C01C401B801A7015A
:101B30002AE030E00E94950CC80FD91F772039F0B9
:101B4000C40164E371E00E94150CC80FD91FC801DD
:101B5000B7010E9437129B01AC01C601B5010E947A
:101B6000351124C020E030E040E251E40E94ED1243
:101B70007B018C010E9406125B016C01CC24B7FC36
:101B8000C094DC2CC401B601A5012AE030E00E941B
:101B9000A40CC80FD91FC601B5010E9439129B01C0
:101BA000AC01C801B7010E9435117A947720D1F6B3
:101BB000CE01DF91CF911F910F91FF90EF90DF90B9
:101BC000CF90BF90AF909F908F907F900895EF92AD
:101BD000FF920F931F937C010E94030D8C01C7019C
:101BE0000E94F50B080F191FC8011F910F91FF905C
:101BF000EF900895DC01FB0114968D919C9115974F
:101C0000892B31F461157105A9F090E0808108C03D
:101C10000D90BC91A02D6115710529F490E08C9177
:101C2000882349F407C0CD010E9498009C0190E0F0
:101C3000232B09F491E0892F08950F931F93CF93DD
:101C4000DF93EC018B016F5F7F4F888199810E9448
:101C50005410009711F480E005C0998388831B839A
:101C60000A8381E0DF91CF911F910F910895CF9367
:101C7000DF93EC0188819981892B29F08A819B81EE
:101C80008617970760F4CE010E941D0E882341F04D
:101C90008C819D81892B19F4E881F981108281E082
:101CA000DF91CF910895EF92FF920F931F93CF93FF
:101CB000DF93EC017B016C817D81E114F104C1F0C3
:101CC0004115510599F08A01060F171FB8010E94AE
:101CD000370E882369F0888199812C813D81820F9C
:101CE000931FB7010E94A1001D830C8381E001C0F6
:101CF00080E0DF91CF911F910F91FF90EF900895B9
:101D0000DF93CF9300D0CDB7DEB769831A82BE01CF
:101D10006F5F7F4F41E050E00E94530E0F900F9095
:101D2000CF91DF910895CF93DF93EC018881998162
:101D3000009711F00E94BC0F198218821D821C822C
:101D40001B821A82DF91CF910895EF92FF920F9339
:101D50001F93CF93DF93EC017B018A01BA010E94AC
:101D6000370E882321F4CE010E94930E07C01D83F5
:101D70000C8388819981B7010E94A100CE01DF9177
:101D8000CF911F910F91FF90EF900895CF93DF9324
:101D9000EC01198218821B821A821D821C82611535
:101DA000710551F0DB010D900020E9F71197A61B9A
:101DB000B70BAD010E94A50EDF91CF9108950F934F
:101DC0001F93182F092F6115710559F0DB010D9034
:101DD0000020E9F71197A61BB70BAD010E94A50ED5
:101DE00002C00E94930E812F902F1F910F91089592
:101DF000CF93DF93EC01FB018617970761F06081B9
:101E000071816115710529F0448155810E94A50EEB
:101E100002C00E94930ECE01DF91CF910895FC0184
:101E20001182108213821282158214820E94F80E8F
:101E30000895FC01808191810E94BC0F08950F9349
:101E40001F93CF93DF93BC018230910510F462E0C1
:101E500070E0E0918803F091890340E050E0A0E059
:101E6000B0E024C08081918186179707D0F0861753
:101E7000970771F482819381109729F013969C93B0
:101E80008E9312972CC0909389038093880327C068
:101E90004115510519F08417950718F48D01AC010F
:101EA000EF01DF01828193819C01F9013097D1F626
:101EB00041155105F9F0CA01861B970B8430910535
:101EC00080F48A819B810115110521F0F80193832B
:101ED000828304C09093890380938803FE01329625
:101EE00045C0FE01E80FF91F619371930297998332
:101EF00088833CC08091860390918703892B41F4AD
:101F000080913A0190913B019093870380938603DF
:101F100040913C0150913D014115510541F44DB7AF
:101F20005EB78091380190913901481B590B20917F
:101F300086033091870324173507B0F4CA01821B4A
:101F4000930B8617970780F0AB014E5F5F4F8417A6
:101F5000950750F0420F531F509387034093860319
:101F6000F9016193719302C0E0E0F0E0CF01DF91ED
:101F7000CF911F910F910895CF93DF939C0100970C
:101F800009F48FC0EC0122971B821A8260918803AA
:101F9000709189036115710581F488819981820F9F
:101FA000931F20918603309187032817390739F54D
:101FB000D0938703C093860374C0DB0140E050E0F8
:101FC000AC17BD0708F1BB83AA83FE0121913191B3
:101FD000E20FF31FAE17BF0779F48D919C91119713
:101FE000280F391F2E5F3F4F3983288312968D911A
:101FF0009C9113979B838A834115510571F4D0936B
:102000008903C09388034DC012968D919C911397BC
:10201000AD01009711F0DC01D3CFDA011396DC9308
:10202000CE931297FA0121913191E20FF31FCE174F
:10203000DF0769F488819981280F391F2E5F3F4F90
:10204000FA01318320838A819B8193838283E0E03C
:10205000F0E0DB0112968D919C911397009719F097
:10206000BC01FD01F6CFAB014E5F5F4FDB018D91EF
:102070009C91840F951F2091860330918703281728
:10208000390779F4309729F4109289031092880364
:1020900002C01382128242505040509387034093F3
:1020A0008603DF91CF9108956F927F928F929F92D6
:1020B000AF92BF92CF92DF92EF92FF920F931F9356
:1020C000CF93DF938C01009729F4CB010E941F0F5F
:1020D0008C01BBC08EEFE82E8FEFF82EE00EF11EC4
:1020E0004801860E971E8E149F0408F4ACC0D701D9
:1020F0004D915C91119746175707B8F0453051053F
:1021000008F4A3C0CA0104978617970708F49DC076
:1021100042505040461B570BF401419351936D932D
:102120007C93CF010E94BC0F90C05B01A41AB50A3A
:102130003801640E751EA0918803B0918903E0E018
:10214000F0E0CC24DD2447C0A615B705A9F5CD9154
:10215000DC911197CE0102968A159B0568F1CE019C
:102160008A199B09029612962C91129713963C910C
:10217000059758F0F40122833383CA19DB09D18310
:10218000C083D7016D937C9309C04E5F5F4F4C0FA6
:102190005D1FF70151834083C901FC01C114D104C3
:1021A00031F0D6011396FC93EE9312974EC0F09344
:1021B0008903E093880349C08D919C911197E8179A
:1021C000F90708F4FC016D0112968C911297139691
:1021D0009C919C01D901109709F0B6CF809186039C
:1021E0009091870386159705E9F4E617F707D0F471
:1021F00020913C0130913D012115310541F42DB76D
:102200003EB78091380190913901281B390B821615
:102210009306C8F49092870380928603F701718336
:10222000608313C0CB010E941F0FEC01009759F08F
:10223000D7014D915C91B8010E948F00C8010E94A6
:10224000BC0F8E0102C000E010E0C801DF91CF9109
:102250001F910F91FF90EF90DF90CF90BF90AF90C4
:102260009F908F907F906F9008955058BB27AA271A
:102270000ED075C166D130F06BD120F031F49F3FA4
:1022800011F41EF45BC10EF4E095E7FB51C1E92F98
:1022900077D180F3BA17620773078407950718F0A0
:1022A00071F49EF58FC10EF4E0950B2EBA2FA02D80
:1022B0000B01B90190010C01CA01A0011124FF27F3
:1022C000591B99F0593F50F4503E68F11A16F040EE
:1022D000A22F232F342F4427585FF3CF46953795ED
:1022E0002795A795F0405395C9F77EF41F16BA0BB2
:1022F000620B730B840BBAF09150A1F0FF0FBB1F60
:10230000661F771F881FC2F70EC0BA0F621F731FA8
:10231000841F48F4879577956795B795F7959E3F05
:1023200008F0B3CF9395880F08F09927EE0F979593
:1023300087950895D9D008F481E008950CD00FC195
:1023400007D140F0FED030F021F45F3F19F0F0C02B
:10235000511139C1F3C014D198F39923C9F355230E
:10236000B1F3951B550BBB27AA2762177307840788
:1023700038F09F5F5F4F220F331F441FAA1FA9F33E
:1023800033D00E2E3AF0E0E830D091505040E69530
:10239000001CCAF729D0FE2F27D0660F771F881F91
:1023A000BB1F261737074807AB07B0E809F0BB0B80
:1023B000802DBF01FF2793585F4F2AF09E3F5105A4
:1023C00068F0B6C000C15F3FECF3983EDCF3869541
:1023D00077956795B795F7959F5FC9F7880F911D1A
:1023E0009695879597F90895E1E0660F771F881F06
:1023F000BB1F621773078407BA0720F0621B730BB9
:10240000840BBA0BEE1F88F7E095089504D068940A
:10241000B111D9C00895BCD088F09F5790F0B92F62
:102420009927B751A0F0D1F0660F771F881F991F29
:102430001AF0BA95C9F712C0B13081F0C3D0B1E03B
:102440000895C0C0672F782F8827B85F39F0B93F4B
:10245000CCF3869577956795B395D9F73EF490952B
:102460008095709561957F4F8F4F9F4F0895E894A9
:1024700009C097FB3EF490958095709561957F4FCC
:102480008F4F9F4F9923A9F0F92F96E9BB2793957A
:10249000F695879577956795B795F111F8CFFAF48A
:1024A000BB0F11F460FF1BC06F5F7F4F8F4F9F4FBB
:1024B00016C0882311F096E911C0772321F09EE819
:1024C000872F762F05C0662371F096E8862F70E07F
:1024D00060E02AF09A95660F771F881FDAF7880F59
:1024E0009695879597F90895990F0008550FAA0BAF
:1024F000E0E8FEEF16161706E807F907C0F0121617
:102500001306E407F50798F0621B730B840B950B19
:1025100039F40A2661F0232B242B252B21F408956E
:102520000A2609F4A140A6958FEF811D811D08950B
:1025300097F99F6780E870E060E008959FEF80EC76
:10254000089500240A941616170618060906089519
:1025500000240A9412161306140605060895092E7F
:102560000394000C11F4882352F0BB0F40F4BF2BEE
:1025700011F460FF04C06F5F7F4F8F4F9F4F08952E
:1025800057FD9058440F551F59F05F3F71F0479524
:10259000880F97FB991F61F09F3F79F08795089509
:1025A000121613061406551FF2CF4695F1DF08C028
:1025B000161617061806991FF1CF86957105610545
:1025C00008940895E894BB2766277727CB0197F9ED
:1025D00008958ADF08F48FEF08950BD0C0CFB1DFE4
:1025E00028F0B6DF18F0952309F0A2CFA7CF112469
:1025F000EACFC6DFA0F3959FD1F3950F50E0551FAA
:10260000629FF001729FBB27F00DB11D639FAA2747
:10261000F00DB11DAA1F649F6627B00DA11D661F96
:10262000829F2227B00DA11D621F739FB00DA11DB7
:10263000621F839FA00D611D221F749F3327A00D71
:10264000611D231F849F600D211D822F762F6A2F0D
:1026500011249F5750408AF0E1F088234AF0EE0F92
:10266000FF1FBB1F661F771F881F91505040A9F79F
:102670009E3F510570F05CCFA6CF5F3FECF3983ED4
:10268000DCF3869577956795B795F795E7959F5F06
:10269000C1F7FE2B880F911D9695879597F90895A0
:1026A00023DF880B990B0895629FD001739FF0017F
:1026B000829FE00DF11D649FE00DF11D929FF00DD2
:1026C000839FF00D749FF00D659FF00D9927729F09
:1026D000B00DE11DF91F639FB00DE11DF91FBD0194
:1026E000CF011124089597FB092E07260AD077FD04
:1026F00004D02ED006D000201AF4709561957F4F3B
:102700000895F6F7909581959F4F0895A1E21A2EAE
:10271000AA1BBB1BFD010DC0AA1FBB1FEE1FFF1F85
:10272000A217B307E407F50720F0A21BB30BE40BD5
:10273000F50B661F771F881F991F1A9469F760951C
:102740007095809590959B01AC01BD01CF010895D6
:10275000AA1BBB1B51E107C0AA1FBB1FA617B707C7
:1027600010F0A61BB70B881F991F5A95A9F78095E3
:102770009095BC01CD010895EE0FFF1F0590F491D7
:10278000E02D099410E0C8ECD0E004C0FE010E94E6
:0E279000BE132296CA3CD107C9F7F894FFCFBA
:10279E00006B700A006B640A006B690A0052504DA0
:1027AE000A007365740A006F75747075740A0048B8
:1027BE003A2000204C3A20006E616E00696E660071
:1027CE006F7666002E004B0080008A03000000002A
:1027DE000000B40583053C0545055A056B05000050
:0E27EE000000230BCB0BB60AEA0ACA0A130B33
:00000001FF
