S0120000617474696E795F3434312E7372656381
S11300001FC043C042C041C040C03FC03EC03DC00D
S11300103CC0D8C0E1C086C038C037C036C035C087
S113002034C033C032C031C030C02FC02EC02DC048
S11300302CC02BC02AC029C028C027C0CB0127034D
S113004011241FBECFEFD1E0DEBFCDBF11E0A0E091
S1130050B1E0E2E1F9E002C005900D92A834B107E5
S1130060D9F721E0A8E4B1E001C01D92AD3CB2078C
S1130070E1F710E0CFE1D0E003C02197FE010AD3FD
S1130080CE31D107D1F724D138C4BACF23B7FC017C
S11300908281822B83BF089583B7887F83BF0895AD
S11300A093B7987F93BF81E0911101C080E00895D8
S11300B0DC011396ED91FC911497929112968C9118
S11300C0892B80830895DC011396ED91FC9114979C
S11300D08291887F80830895DC011396ED91FC91D1
S11300E0149731979081977081E009F480E0089526
S11300F082B7089512BE08958CB59DB508951DBCB0
S11301001CBC08958091C6009091C7000895109278
S1130110C7001092C60008950895089556D308950F
S113012054D308951F920F920FB60F9211242F9358
S11301303F938F939F93AF93BF93EF93FF93F89461
S1130140A5E6B1E01296ED91FC9113979081199672
S11301508C91892B808380914C0190914D01019663
S113016090934D0180934C0120914C0130914D01AD
S113017080914A0190914B018217930748F41092A1
S11301804D0110924C0188B7846088BF84E089BF18
S1130190A5E6B1E01296ED91FC9113979081199622
S11301A08C918095892380837894FF91EF91BF91FE
S11301B0AF919F918F913F912F910F900FBE0F9010
S11301C01F9018951F920F920FB60F9211240F9043
S11301D00FBE0F901F9018951F920F920FB60F929B
S11301E011248F939F93AF93BF93EF93FF93F8944E
S11301F0A9E7B1E01296ED91FC91139790811996BD
S11302008C91892B808380914A0190914B01892B99
S113021011F081E089BF12BE88B7816088BFABE569
S1130220B1E01296ED91FC911397908119968C91FF
S113023089278083A9E7B1E01296ED91FC91139789
S1130240908119968C918095892380837894FF916D
S1130250EF91BF91AF919F918F910F900FBE0F902F
S11302601F901895F8949B01AC01012E19E0220F00
S1130270331F441F551F1A95D1F7102D60E072E10A
S11302808AE790E0E5D130934901209348018091B9
S1130290480190914901892F992790934B018093AC
S11302A04A0180914A0190914B01892B21F489B72D
S11302B0846089BF06C089B7816089BF88B78160BF
S11302C088BF80914801909149018CBF789408952A
S11302D0CF93DF93CDB7DEB728970FB6F894DEBF80
S11302E00FBECDBF10926700109268001092660096
S11302F089B7816089BF789493B780915A01892B1B
S113030083BF88E0E6E0F1E0DE01119601900D92F2
S11303108A95E1F710E00F2EF8E5CF2EF1E0DF2EFD
S1130320F02D0F2EF7E9EF2EF1E0FF2EF02D1370D4
S11303301F5F12BE93B7D60112968C91892B83BF8F
S1130340FE013196E10FF11DE10FF11D6081718114
S113035080E090E087DFBFEFE1EEF4E0B150E040F1
S1130360F040E1F700C0000083B7887F83BF2FEF20
S113037081EE94E0215080409040E1F700C00000FD
S1130380D7011296ED91FC911397908119968C9157
S113039089278083CCCF0F931F93CF93DF93AFEB49
S11303A0B1E06BE370E013967C936E9312974AE38B
S11303B050E015965C934E93149729E330E017961A
S11303C03C932E93169718961C921897E1E0199671
S11303D0EC9319978CE391E08D939C93D898D09AE1
S11303E0A5EBB1E013967C936E93129715965C93EC
S11303F04E93149717963C932E9316971896EC9356
S1130400189712E019961C9319978D939C93D99879
S1130410D19AABEAB1E013967C936E93129715963A
S11304205C934E93149717963C932E9316971896B5
S11304301C931897F4E01996FC931997C4E4D1E03F
S1130440CD93DC93D298A1EAB1E013967C936E939A
S1130450129715965C934E93149717963C932E938C
S1130460169703E018960C93189708E019960C93C6
S113047019978D939C93DB98D39AA7E9B1E01396CF
S11304807C936E93129715965C934E9314971796DC
S11304903C932E9316971896FC93189700E119969F
S11304A00C9319978D939C93DC98D49AADE8B1E0A2
S11304B013967C936E93129715965C934E931497B0
S11304C017963C932E93169705E018960C9318975D
S11304D000E219960C9319978D939C93DD98D59A05
S11304E0A3E8B1E013967C936E93129715965C93F0
S11304F04E93149717963C932E93169706E01896EE
S11305000C93189700E419960C9319978D939C9368
S1130510DE98D69AA9E7B1E013967C936E9312976E
S113052015965C934E93149717963C932E931697B7
S113053027E018962C93189720E819962C9319976E
S11305408D939C93DF98D79AAFE6B1E068E370E0AF
S113055013967C936E93129747E350E015965C9341
S11305604E93149726E330E017963C932E931697F8
S113057018961C9218971996EC931997CD93DC93BF
S1130580B898A5E6B1E013967C936E9312971596EE
S11305905C934E93149717963C932E931697189644
S11305A0EC93189719961C9319978D939C93C19863
S11305B0B99AABE5B1E013967C936E9312971596B6
S11305C05C934E93149717963C932E931697189614
S11305D01C9318971996FC9319978D939C93C29822
S11305E0BA9AA8E5B1E01296FC93129782E191E0E1
S11305F08D939C9381EA80BF13BEA3E5B1E012966C
S1130600EC9312978FE490E014969C938E93139737
S113061080E291E08D939C9392EA9FBD88E18EBD28
S1130620AEE4B1E01296EC931297EAECF0E0149683
S1130630FC93EE9313972EE231E02D933C93908339
S11306408093C900DF91CF911F910F910895089570
S1130650A1E21A2EAA1BBB1BFD010DC0AA1FBB1FC2
S1130660EE1FFF1FA217B307E407F50720F0A21B34
S1130670B30BE40BF50B661F771F881F991F1A94A1
S113068069F760957095809590959B01AC01BD01CB
S1130690CF010895EE0FFF1F0590F491E02D09940A
S11306A0CF93DF938230910510F482E090E0E091E3
S11306B0CB01F091CC0120E030E0C0E0D0E03097F5
S11306C011F14081518148175907C0F04817590763
S11306D061F482819381209719F09B838A832BC0D4
S11306E09093CC018093CB0126C02115310519F0DC
S11306F04217530718F49A01BE01DF01EF0102808B
S1130700F381E02DDCCF2115310509F1281B390BCC
S11307102430310590F412968D919C9113976115B4
S1130720710521F0FB019383828304C09093CC0173
S11307308093CB01FD01329644C0FD01E20FF31F0B
S113074081939193225031092D933C933AC0209187
S1130750C9013091CA01232B41F420910201309147
S113076003013093CA012093C90120910001309103
S113077001012115310541F42DB73EB74091040123
S113078050910501241B350BE091C901F091CA0178
S1130790E217F307A0F42E1B3F0B2817390778F054
S11307A0AC014E5F5F4F2417350748F04E0F5F1FB3
S11307B05093CA014093C9018193919302C0E0E030
S11307C0F0E0CF01DF91CF9108950F931F93CF9362
S11307D0DF93009709F48CC0FC01329713821282D4
S11307E00091CB011091CC010115110581F42081F8
S11307F03181820F931F2091C9013091CA012817BA
S1130800390779F5F093CA01E093C90171C0D801A1
S113081040E050E0AE17BF0750F412962D913C9182
S11308201397AD012115310509F1D901F3CF9D01CC
S1130830DA013383228360817181860F971F8217C7
S1130840930769F4EC0128813981260F371F2E5F45
S11308503F4F318320838A819B8193838283452BFD
S113086029F4F093CC01E093CB0142C01396FC939E
S1130870EE931297ED01499159919E01240F351F72
S1130880E217F30771F480819181840F951F02961A
S113089011969C938E938281938113969C938E934D
S11308A01297E0E0F0E0D80112968D919C91139795
S11308B0009719F0F8018C01F6CF8D919C91980165
S11308C02E5F3F4F820F931F2091C9013091CA01BF
S11308D02817390769F4309729F41092CC01109243
S11308E0CB0102C0138212821093CA010093C90182
S11308F0DF91CF911F910F91089510E0CFE1D0E0E7
S113090003C0FE01C7DE2196C032D107D1F7F894A7
S1050910FFCF13
S11309120000CD012000190032006400C80000006C
S1130922000046004C0050007A00780000000000ED
S1130932580063006C007F007C0000000000580037
S113094263006C0087008200000000008C008E00AF
S10B0952000000008D0090007C
S9030000FC
