:100000000C9434000C9451000C9451000C94510049
:100010000C9451000C9451000C9451000C9451001C
:100020000C9451000C9451000C9451000C9451000C
:100030000C9451000C9451000C9451000C945100FC
:100040000C9451000C9451000C944E010C94BA0085
:100050000C949E000C9453000C9451000C9451008D
:100060000C9451000C94510011241FBECFEFD8E026
:10007000DEBFCDBF11E0A0E0B1E0ECEDFFE002C0DB
:1000800005900D92A834B107D9F721E0A8E4B1E0BA
:1000900001C01D92AB36B207E1F70E94B0010C948B
:1000A000EC070C9400001F920F920FB60F921124D0
:1000B0008F9380917800809348018091790080939C
:1000C000490181E080934A018F910F900FBE0F90FC
:1000D0001F90189597B141E050E09A01082E02C098
:1000E000220F331F0A94E2F72095292327B9806451
:1000F00080937C008FE880937A0010927B000895B3
:10010000882321F080917A00806203C080917A0078
:100110008F7D80937A00089510924A01EAE7F0E01B
:10012000808180648083089580914A0108952091A0
:1001300049018091480190E0922B08951F920F92FF
:100140000FB60F9211248F93EF93FF932C982D9A53
:10015000E1ECF0E080818F7B80832A988081877F2B
:1001600080832D98FF91EF918F910F900FBE0F908C
:100170001F9018951F920F920FB60F9211248F9314
:100180009F93EF93FF932C9A2D9AE0914B018091CE
:100190004C01F0E0E81BF10980914D0190914E0176
:1001A000E80FF91F80818093C60080914C01815037
:1001B00080934C0180914C01811108C0E1ECF0E08A
:1001C00080818F7D80838081806480832C982D98AE
:1001D000FF91EF919F918F910F900FBE0F901F9005
:1001E0001895CF92EF92FF920F93709359016093FD
:1001F00058014093570130935601209355010093C5
:100200005301F0925201E0925101C092500124B189
:10021000246224B92A989093C5008093C40082E098
:100220008093C00088E98093C10086E08093C2007B
:100230000F91FF90EF90CF90089590934E0180938F
:100240004D0160934B0180914B01815080934C0193
:10025000E1ECF0E08081886080832A9AE0914D0192
:10026000F0914E0180818093C60080914C018823DB
:1002700031F0E1ECF0E08081806280830895E1EC70
:10028000F0E08081806480830895609150018091C6
:100290005101909152010E941D0108951F920F92E9
:1002A0000FB60F9211242F933F934F935F936F9349
:1002B0007F938F939F93AF93BF93EF93FF932C9A6A
:1002C0002D982091C60090914F0180915701981769
:1002D00098F480914F01E0915801F0915901E80F95
:1002E000F11D8081821304C080914F018F5F01C096
:1002F00080E080934F0114C090915401809153018C
:10030000981770F480915401E0915501F0915601D5
:10031000E80FF11D2083809154018F5F8093540179
:100320009091540180915301981308C010924F018D
:10033000109254012C9A0E9445012C982C98FF9100
:10034000EF91BF91AF919F918F917F916F915F914D
:100350004F913F912F910F900FBE0F901F901895C6
:10036000CF93DF93CDB7DEB7C056D1090FB6F8945F
:10037000DEBF0FBECDBF6894CC24C4F80F2EFAE5C3
:10038000EF2EF1E0FF2EF02D01E02AE631E045E00E
:1003900062E471E080E190E00E94F10080E00E9460
:1003A0006A0080E00E9480000E948C00789417B858
:1003B00000E010E00F2EF8EE4F2EF3E05F2EF02D50
:1003C000CE01019663969FAF8EAF639723C0802FB7
:1003D0000E946A000E948C000E9494008823E1F32E
:1003E000F8940E949700BC0180E090E00E941B04FA
:1003F00021E030E44CE950E40E9481040E94EF03C4
:10040000F801EE0FFF1FE65AFE4F71836083789468
:100410000F5F1F4F08301105D4F2A8E6B1E0AD9090
:10042000BC9011972D903C90E6E6F1E0C080D18021
:100430000190F081E02D6596FFAFEEAF6597A4E6E1
:10044000B1E0ED90FC901197ED91FC916796FFAFB4
:10045000EEAF6797A2E6B1E00D911C911197ED9177
:10046000FC916996FFAFEEAF6997A0E6B1E0ED9120
:10047000FC9111978D919C916B969FAF8EAF6B976E
:10048000AEE5B1E04D915C9111978D919C916D9687
:100490009FAF8EAF6D97ACE5B1E08D909C901197BA
:1004A0008D919C916F969FAF8EAF6F97AAE5B1E04B
:1004B0006D907C9011978D919C91A1969FAF8EAF7E
:1004C000A1979501369527953695279536952795C9
:1004D000A5ECB0E20E940C05929582958F70892759
:1004E0009F708927849D9001859D300D949D300DCE
:1004F0001124A21AB30ABF92AF92910136952795A3
:1005000036952795369527950E940C0592958295EC
:100510008F7089279F7089279F938F9396013695B7
:10052000279536952795369527950E940C05929527
:1005300082958F7089279F708927849D9001859D62
:10054000300D949D300D1124C21AD30ADF92CF9240
:1005500065962EAD3FAD65973695279536952795CF
:10056000369527950E940C05929582958F70892764
:100570009F7089279F938F9397013695279536957E
:100580002795369527950E940C05929582958F7038
:1005900089279F708927849D9001859D300D949DAA
:1005A000300D1124E21AF30AFF92EF9267962EADF6
:1005B0003FAD6797369527953695279536952795BC
:1005C0000E940C05929582958F7089279F708927CC
:1005D0009F938F9398013695279536952795369555
:1005E00027950E940C05929582958F7089279F70A0
:1005F0008927849D9001859D300D949D300D112497
:10060000021B130B1F930F9369962EAD3FAD699795
:100610003695279536952795369527950E940C0592
:10062000929582958F7089279F7089279F938F93CA
:100630009F013695279536952795369527950E94E3
:100640000C05929582958F7089279F708927849DCC
:100650009001859D300D949D300D1124E21BF30B0C
:10066000FF93EF936B962EAD3FAD6B973695279525
:1006700036952795369527950E940C05929582957B
:100680008F7089279F7089279F938F939A01369542
:10069000279536952795369527950E940C059295B6
:1006A00082958F7089279F708927849D9001859DF1
:1006B000300D949D300D1124421B530B5F934F93CB
:1006C0006D962EAD3FAD6D9736952795369527954E
:1006D000369527950E940C05929582958F708927F3
:1006E0009F7089279F938F93940136952795369510
:1006F0002795369527950E940C05929582958F70C7
:1007000089279F708927849D9001859D300D949D38
:10071000300D1124821A930A9F928F926F962EADFC
:100720003FAD6F9736952795369527953695279542
:100730000E940C05929582958F7089279F7089275A
:100740009F938F93930136952795369527953695E8
:1007500027950E940C05929582958F7089279F702E
:100760008927849D9001859D300D949D300D112425
:10077000621A730A7F926F92A1962EAD3FADA19738
:100780003695279536952795369527950E940C0521
:10079000929582958F7089279F7089279F938F9359
:1007A000A0E0B1E0BF93AF936396FFAD6397FF9373
:1007B00062962FAD62972F930E941B058FEF91EEEB
:1007C000A4E081509040A040E1F700C000000FB6C7
:1007D000F894DEBF0FBECDBF00E010E01BCE70D09E
:1007E00088F09F5790F0B92F9927B751A0F0D1F01A
:1007F000660F771F881F991F1AF0BA95C9F712C0A4
:10080000B13081F077D0B1E0089574C0672F782FB0
:100810008827B85F39F0B93FCCF38695779567950F
:10082000B395D9F73EF490958095709561957F4F7B
:100830008F4F9F4F0895E89409C097FB3EF4909521
:100840008095709561957F4F8F4F9F4F9923A9F0A9
:10085000F92F96E9BB279395F69587957795679538
:10086000B795F111F8CFFAF4BB0F11F460FF1BC07C
:100870006F5F7F4F8F4F9F4F16C0882311F096E90F
:1008800011C0772321F09EE8872F762F05C06623BD
:1008900071F096E8862F70E060E02AF09A95660F76
:1008A000771F881FDAF7880F9695879597F908952F
:1008B00057FD9058440F551F59F05F3F71F0479511
:1008C000880F97FB991F61F09F3F79F087950895F6
:1008D000121613061406551FF2CF4695F1DF08C015
:1008E000161617061806991FF1CF86957105610532
:1008F00008940895E894BB2766277727CB0197F9DA
:1009000008950BD078C069D028F06ED018F09523E8
:1009100009F05AC05FC01124EECFCADFA0F3959F43
:10092000D1F3950F50E0551F629FF001729FBB27D6
:10093000F00DB11D639FAA27F00DB11DAA1F649F82
:100940006627B00DA11D661F829F2227B00DA11D35
:10095000621F739FB00DA11D621F839FA00D611DBB
:10096000221F749F3327A00D611D231F849F600DDC
:10097000211D822F762F6A2F11249F5750408AF015
:10098000E1F088234AF0EE0FFF1FBB1F661F771FA1
:10099000881F91505040A9F79E3F510570F014C038
:1009A000AACF5F3FECF3983EDCF386957795679589
:1009B000B795F795E7959F5FC1F7FE2B880F911DBF
:1009C0009695879597F9089597F99F6780E870E065
:1009D00060E008959FEF80EC089500240A941616B5
:1009E000170618060906089500240A94121613061D
:1009F000140605060895092E0394000C11F48823AB
:100A000052F0BB0F40F4BF2B11F460FF04C06F5FC6
:100A10007F4F8F4F9F4F0895A29FB001B39FC0019A
:100A2000A39F700D811D1124911DB29F700D811D1A
:100A30001124911D0895AEE0B0E0E1E2F5E00C94E0
:100A4000C3070D891E8986E08C831A8309838FEF83
:100A50009FE79E838D83AE01475E5F4F6F89788DE0
:100A6000CE0101960E943D05EF81F885E00FF11F50
:100A700010822E96E4E00C94DF07ACE0B0E0E3E4F3
:100A8000F5E00C94B5077C016B018A01FC0117822B
:100A90001682838181FFBDC1CE0101964C01F70111
:100AA0009381F60193FD859193FF81916F018823D6
:100AB00009F4ABC1853239F493FD859193FF81919F
:100AC0006F01853229F4B70190E00E942507E7CF36
:100AD000512C312C20E02032A0F48B3269F030F41C
:100AE000803259F0833269F420612CC08D3239F0A4
:100AF000803339F4216026C02260246023C028603E
:100B000021C027FD27C030ED380F3A3078F426FF9A
:100B100006C0FAE05F9E300D1124532E13C08AE008
:100B2000389E300D1124332E20620CC08E3221F4F9
:100B300026FD6BC1206406C08C3611F4206802C00B
:100B4000883641F4F60193FD859193FF81916F0101
:100B50008111C1CF982F9F7D9554933028F40C5F5D
:100B60001F4FFFE3F9830DC0833631F0833771F0F7
:100B7000833509F05BC022C0F801808189830E5F54
:100B80001F4F44244394512C540115C03801F2E006
:100B90006F0E711CF801A080B18026FF03C0652D87
:100BA00070E002C06FEF7FEFC5012C870E941A072B
:100BB0002C0183012C852F77222E17C03801F2E0FB
:100BC0006F0E711CF801A080B18026FF03C0652D57
:100BD00070E002C06FEF7FEFC5012C870E940F0706
:100BE0002C012C852068222E830123FC1BC0832D21
:100BF00090E048165906B0F4B70180E290E00E94F8
:100C000025073A94F4CFF50127FC859127FE8191C1
:100C10005F01B70190E00E94250731103A94F1E09E
:100C20004F1A51084114510471F7E5C0843611F090
:100C3000893639F5F80127FF07C06081718182810B
:100C400093810C5F1F4F08C060817181882777FDF9
:100C50008095982F0E5F1F4F2F76B22E97FF09C0F9
:100C600090958095709561957F4F8F4F9F4F20682D
:100C7000B22E2AE030E0A4010E945707A82EA8183F
:100C800044C0853729F42F7EB22E2AE030E025C0FB
:100C9000F22FF97FBF2E8F36C1F018F4883579F026
:100CA000B4C0803719F0883721F0AFC02F2F2061F2
:100CB000B22EB4FE0DC08B2D8460B82E09C024FF67
:100CC0000AC09F2F9660B92E06C028E030E005C00C
:100CD00020E130E002C020E132E0F801B7FE07C0B9
:100CE00060817181828193810C5F1F4F06C060819A
:100CF000718180E090E00E5F1F4FA4010E945707B2
:100D0000A82EA818FB2DFF77BF2EB6FE0BC02B2DEB
:100D10002E7FA51450F4B4FE0AC0B2FC08C02B2DDF
:100D20002E7E05C07A2C2B2D03C07A2C01C0752C89
:100D300024FF0DC0FE01EA0DF11D8081803311F406
:100D4000297E09C022FF06C07394739404C0822FC9
:100D5000867809F0739423FD13C020FF06C05A2C37
:100D6000731418F4530C5718732C731468F4B701E8
:100D700080E290E02C870E94250773942C85F5CFA4
:100D8000731410F4371801C0312C24FF12C0B701BE
:100D900080E390E02C870E9425072C8522FF17C056
:100DA00021FF03C088E590E002C088E790E0B7012A
:100DB0000CC0822F867859F021FD02C080E201C06C
:100DC0008BE227FD8DE2B70190E00E942507A51474
:100DD00038F4B70180E390E00E9425075A94F7CFDA
:100DE000AA94F401EA0DF11D8081B70190E00E9400
:100DF0002507A110F5CF332009F451CEB70180E2C9
:100E000090E00E9425073A94F6CFF70186819781FA
:100E100002C08FEF9FEF2C96E2E10C94D107FC010A
:100E20000590615070400110D8F7809590958E0F15
:100E30009F1F0895FC016150704001900110D8F788
:100E4000809590958E0F9F1F08950F931F93CF93BA
:100E5000DF93182F092FEB018B8181FD03C08FEFEA
:100E60009FEF20C082FF10C04E815F812C813D81A9
:100E7000421753077CF4E881F9819F012F5F3F4FB0
:100E800039832883108306C0E885F985812F099569
:100E9000892B29F72E813F812F5F3F4F3F832E8380
:100EA000812F902FDF91CF911F910F910895FA011B
:100EB000AA27283051F1203181F1E8946F936E7F99
:100EC0006E5F7F4F8F4F9F4FAF4FB1E03ED0B4E08A
:100ED0003CD0670F781F891F9A1FA11D680F791FCB
:100EE0008A1F911DA11D6A0F711D811D911DA11DDC
:100EF00020D009F468943F912AE0269F11243019EC
:100F0000305D3193DEF6CF010895462F4770405D86
:100F10004193B3E00FD0C9F7F6CF462F4F70405D35
:100F20004A3318F0495D31FD4052419302D0A9F790
:100F3000EACFB4E0A6959795879577956795BA958A
:100F4000C9F700976105710508959B01AC010A2E50
:100F500006945795479537952795BA95C9F7620F27
:100F6000731F841F951FA01D08952F923F924F92CB
:100F70005F926F927F928F929F92AF92BF92CF9229
:100F8000DF92EF92FF920F931F93CF93DF93CDB732
:100F9000DEB7CA1BDB0B0FB6F894DEBF0FBECDBFAA
:100FA00009942A88398848885F846E847D848C847B
:100FB0009B84AA84B984C884DF80EE80FD800C8184
:100FC0001B81AA81B981CE0FD11D0FB6F894DEBF67
:0C0FD0000FBECDBFED010895F894FFCFD7
:100FDC002531642E253033642532642E253033645C
:100FEC002532642E253033642532642E253033644B
:100FFC002532642E253033642532642E253033643B
:10100C002532642E253033642532642E253033642A
:08101C000A00404D41524D0055
:00000001FF
