S0170000736C6F777363696C6C6F73636F70652E73726563A8
S11300000C9434000C9451000C9451000C94510045
S11300100C9451000C9451000C9451000C94510018
S11300200C9451000C9451000C9451000C94510008
S11300300C9451000C9451000C9451000C945100F8
S11300400C9451000C9451000C9447010C94B7008B
S11300500C949E000C9453000C9451000C94510089
S11300600C9451000C94510011241FBECFEFD8E022
S1130070DEBFCDBF11E0A0E0B1E0E8E0F7E002C0F0
S113008005900D92A630B107D9F721E0A6E0B1E0C2
S113009001C01D92AA32B207E1F70E94A4010C9498
S11300A082030C9400001F920F920FB60F9211243A
S11300B08F938091780080930601809179008093DA
S11300C0070181E0809308018F910F900FBE0F907C
S11300D01F90189597B141E050E09A01082E02C094
S11300E0220F331F0A94E2F72095292327B980644D
S11300F080937C008FE880937A0010927B000895AF
S1130100882321F080917A00806203C080917A0074
S11301108F7D80937A00089510920801EAE7F0E059
S113012080818064808308958091080108952091DE
S113013007018091060190E0922B08951F920F927F
S11301400FB60F9211248F93EF93FF93E1ECF0E03D
S113015080818F7B80832A988081877F8083FF9131
S1130160EF918F910F900FBE0F901F9018951F92D3
S11301700F920FB60F9211248F939F93EF93FF93D7
S1130180E091090180910A01F0E0E81BF1098091F6
S11301900B0190910C01E80FF91F80818093C60038
S11301A080910A01815080930A0180910A01811192
S11301B008C0E1ECF0E080818F7D808380818064E1
S11301C08083FF91EF919F918F910F900FBE0F90BD
S11301D01F901895CF92EF92FF920F93709317018F
S11301E06093160140931501309314012093130179
S11301F000931101F0921001E0920F01C0920E01E0
S113020024B1246224B92A989093C5008093C40031
S113021082E08093C00088E98093C10086E08093E7
S1130220C2000F91FF90EF90CF90089590930C012E
S113023080930B016093090180910901815080939F
S11302400A01E1ECF0E08081886080832A9AE091E1
S11302500B01F0910C0180818093C60080910A010A
S1130260882331F0E1ECF0E080818062808308959E
S1130270E1ECF0E0808180648083089560910E0158
S113028080910F01909110010E94160108951F9210
S11302900F920FB60F9211242F933F934F935F93B6
S11302A06F937F938F939F93AF93BF93EF93FF933A
S11302B02091C60090910D0180911501981798F432
S11302C080910D01E0911601F0911701E80FF11DE5
S11302D08081821304C080910D018F5F01C080E092
S11302E080930D0114C0909112018091110198170F
S11302F070F480911201E0911301F0911401E80F60
S1130300F11D2083809112018F5F809312019091DF
S1130310120180911101981306C010920D011092E0
S113032012010E943E01FF91EF91BF91AF919F9105
S11303308F917F916F915F914F913F912F910F908A
S11303400FBE0F901F901895CF93DF93CDB7DEB7F4
S1130350C05BD1090FB6F894DEBF0FBECDBF0F2E20
S1130360F1E1CF2EF02D0F2EF8E1EF2EF1E0FF2E6C
S1130370F02D01E029E231E045E060E071E081E246
S113038090E00E94EA0080E00E946A0080E00E94FF
S113039080000E948C00789417B8F8941092280179
S11303A07894E12CF12CA12CB12CCA2CDB2C912CAF
S11303B023C0882D0E946A000E948C000E94940031
S11303C08823E1F30E949700BC0180E090E00E9442
S11303D0820221E030E44CE950E40E94E8020E94E9
S11303E05602D8016D937D938D018394B8E08B12EE
S11303F0E0CFEFEFEE1AFE0AFAE0EF16F1047CF418
S1130400870102951295107F1027007F102781E045
S113041090E08C0F9D1F080F191F892CCACFDE0195
S1130420AF55BF4F7D01FE0131960A2D1B2DB7013B
S11304308C2D9D2D2C2D3D2DDF01A80FB91F4D9125
S11304405C91240F351F4096803A9105A9F7DB0192
S11304502D933C93F894B2E0EB0EF11CDB012D914B
S11304603C91ADECBCEC0E947303969587959695F0
S1130470879596958795D801AA0FBB1FA85EBE4F96
S113048011969C938E9378940F5F1F4F3296083089
S1130490110569F6BFEFE1EEF4E0B150E040F04041
S11304A0E1F700C00000EA2CFB2CA6CF70D088F046
S11304B09F5790F0B92F9927B751A0F0D1F0660F4C
S11304C0771F881F991F1AF0BA95C9F712C0B13067
S11304D081F077D0B1E0089574C0672F782F882712
S11304E0B85F39F0B93FCCF3869577956795B395A6
S11304F0D9F73EF490958095709561957F4F8F4F15
S11305009F4F0895E89409C097FB3EF49095809519
S1130510709561957F4F8F4F9F4F9923A9F0F92FC5
S113052096E9BB279395F695879577956795B79543
S1130530F111F8CFFAF4BB0F11F460FF1BC06F5F29
S11305407F4F8F4F9F4F16C0882311F096E911C03B
S1130550772321F09EE8872F762F05C0662371F05C
S113056096E8862F70E060E02AF09A95660F771F70
S1130570881FDAF7880F9695879597F9089557FDA0
S11305809058440F551F59F05F3F71F04795880FFD
S113059097FB991F61F09F3F79F087950895121694
S11305A013061406551FF2CF4695F1DF08C0161640
S11305B017061806991FF1CF8695710561050894F1
S11305C00895E894BB2766277727CB0197F9089508
S11305D00BD078C069D028F06ED018F0952309F0BC
S11305E05AC05FC01124EECFCADFA0F3959FD1F3A8
S11305F0950F50E0551F629FF001729FBB27F00DCD
S1130600B11D639FAA27F00DB11DAA1F649F662721
S1130610B00DA11D661F829F2227B00DA11D621F70
S1130620739FB00DA11D621F839FA00D611D221F2A
S1130630749F3327A00D611D231F849F600D211D0E
S1130640822F762F6A2F11249F5750408AF0E1F0B1
S113065088234AF0EE0FFF1FBB1F661F771F881FFA
S113066091505040A9F79E3F510570F014C0AACF95
S11306705F3FECF3983EDCF3869577956795B795E5
S1130680F795E7959F5FC1F7FE2B880F911D96950F
S1130690879597F9089597F99F6780E870E060E07F
S11306A008959FEF80EC089500240A941616170607
S11306B018060906089500240A941216130614064F
S11306C005060895092E0394000C11F4882352F0B2
S11306D0BB0F40F4BF2B11F460FF04C06F5F7F4F6A
S11306E08F4F9F4F0895A29FB001B39FC001A39F56
S11306F0700D811D1124911DB29F700D811D112457
S10B0700911D0895F894FFCF48
S1090708404D41524D007A
S9030000FC
