:100000000C9434000C9451000C9451000C94510049
:100010000C9451000C9451000C9451000C9451001C
:100020000C9451000C9451000C9451000C943F011D
:100030000C9451000C9451000C9435010C94510017
:100040000C9451000C9451000C94DA000C946C0048
:100050000C9453000C9451000C9451000C945100DA
:100060000C9451000C94510011241FBECFEFD8E026
:10007000DEBFCDBF11E0A0E0B1E0E2E0F3E002C0FE
:1000800005900D92A630B107D9F721E0A6E0B1E0C6
:1000900001C01D92A631B207E1F70E9449010C94FC
:1000A0007F010C9400001F920F920FB60F92112443
:1000B0008F93EF93FF932A98E1ECF0E08081877FA4
:1000C000808380818F7B8083FF91EF918F910F9050
:1000D0000FBE0F901F9018951F920F920FB60F92A0
:1000E00011248F939F93EF93FF93E09111018091DF
:1000F0001201F0E0E81BF1098091130190911401C5
:10010000E80FF91F80818093C60080911201815011
:100110008093120180911201813041F4E1ECF0E012
:1001200080818F7D8083808180648083FF91EF91C7
:100130009F918F910F900FBE0F901F90189584B1D3
:10014000846284B92A981092C50087E08093C40025
:1001500082E08093C00088E98093C10086E08093AC
:10016000C2000895909314018093130160931101CC
:1001700080911101815080931201E1ECF0E08081C7
:10018000886080832A9AE0911301F09114018081A4
:100190008093C60080911201882331F0E1ECF0E0F9
:1001A0008081806280830895E1ECF0E0808180644A
:1001B000808308951F920F920FB60F9211242F93F0
:1001C0003F934F935F936F937F938F939F93AF93DF
:1001D000BF93EF93FF932091C600809115019091FA
:1001E0000001891768F4E82FF0E0EF5FFE4F90817F
:1001F000921302C08F5F01C080E08093150112C08E
:1002000080910E0190910D01891760F4E0910F012A
:10021000F0911001E80FF11D208380910E018F5F96
:1002200080930E0190910E0180910D0198130CC0E6
:100230001092150110920E0160910A0180910B013C
:1002400090910C010E94B200FF91EF91BF91AF918C
:100250009F918F917F916F915F914F913F912F91DE
:100260000F900FBE0F901F9018951F920F920FB610
:100270000F9211240F900FBE0F901F9018951F9290
:100280000F920FB60F9211240F900FBE0F901F9078
:1002900018950E949F00E7E0F1E0F0931001E093D1
:1002A0000F0183E080930D0186E091E090930C01B3
:1002B00080930B0181E080930A0192E094BD85E078
:1002C00085BD89EF87BD109280008DE0809381000D
:1002D00080E2809389001092880090936F009FEFD6
:1002E000908390EA909308018093090182E48093BF
:1002F0000601789480E0809306018F5FFCCFF8942C
:02030000FFCF2D
:06030200044052474200D6
:00000001FF
