:100000000C9434000C9451000C9451000C94510049
:100010000C9451000C9451000C9451000C9451001C
:100020000C9451000C9451000C9451000C9451000C
:100030000C9451000C9451000C9420010C9451002C
:100040000C9451000C9451000C948B000C94BD0046
:100050000C9462000C9451000C9451000C945100CB
:100060000C9451000C94510011241FBECFEFD8E026
:10007000DEBFCDBF11E0A0E0B1E0E2EEF2E002C0F1
:1000800005900D92A630B107D9F721E0A6E0B1E0C6
:1000900001C01D92AE30B207E1F70E944B010C94F3
:1000A0006F010C940000E1ECF0E0808188608083B7
:1000B0002B9A08952B98E1ECF0E08081877F808374
:1000C000599A08951F920F920FB60F9211242F93F1
:1000D0003F934F935F936F937F938F939F93AF93D0
:1000E000BF93EF93FF930E945A00E1ECF0E0808110
:1000F0008F7B8083FF91EF91BF91AF919F918F9103
:100100007F916F915F914F913F912F910F900FBE13
:100110000F901F9018951F920F920FB60F921124F7
:100120002F938F939F93EF93FF93CF93DF9300D001
:10013000CDB7DEB72091C60080E490E09A83898332
:1001400080910D01823058F4FE01E80FF11D91817C
:10015000921302C08F5F01C080E080930D010F9069
:100160000F90DF91CF91FF91EF919F918F912F9100
:100170000F900FBE0F901F9018951F920F920FB601
:100180000F9211248F939F93EF93FF93E0910901B6
:1001900080910A01F0E0E81BF10980910B01909138
:1001A0000C01E80FF91F80818093C60080910A013D
:1001B000815080930A0180910A01813041F4E1EC81
:1001C000F0E080818F7D8083808180648083FF91D7
:1001D000EF919F918F910F900FBE0F901F901895E8
:1001E0008FEF87B984B9599A1092C50081E0809346
:1001F000C40082E08093C00088E18093C10086E063
:100200008093C2000895CF93DF93EC0190930C018B
:1002100080930B01609309018091090181508093C3
:100220000A010E94530088818093C600E1ECF0E04F
:1002300080818062808382E08BB9DF91CF910895C5
:100240001F920F920FB60F9211242F933F934F934B
:100250005F936F937F938F939F93AF93BF93EF932E
:10026000FF9395B182E0892785B965E080E091E050
:100270000E940301FF91EF91BF91AF919F918F91E8
:100280007F916F915F914F913F912F910F900FBE92
:100290000F901F9018950E94F0008FEF84B98AB9D3
:1002A00092E094BD23E025BD21E327BD90936E002D
:1002B0008093060180EA8093070180E28093080121
:1002C00078945E9A8BB18F5F8BB92FEF80E792E0C5
:1002D000215080409040E1F700C00000F3CFF89437
:0202E000FFCF4E
:0602E200405247420000FB
:00000001FF
