S01600005247425F4C45445F6472697665722E7372656314
S11300000C9434000C9451000C9451000C94510045
S11300100C9451000C9451000C9451000C94510018
S11300200C9451000C9451000C9451000C94530105
S11300300C9451000C9451000C9449010C945100FF
S11300400C9451000C9451000C94DA000C946C0044
S11300500C9453000C9435010C9451000C945100F1
S11300600C9451000C94510011241FBECFEFD8E022
S1130070DEBFCDBF11E0A0E0B1E0E8EAF3E002C0EA
S113008005900D92A630B107D9F721E0A6E0B1E0C2
S113009001C01D92AC31B207E1F70E945D010C94DE
S11300A0D2010C9400001F920F920FB60F921124EC
S11300B08F93EF93FF932A98E1ECF0E08081877FA0
S11300C0808380818F7B8083FF91EF918F910F904C
S11300D00FBE0F901F9018951F920F920FB60F929C
S11300E011248F939F93EF93FF93E09117018091D5
S11300F01801F0E0E81BF1098091190190911A01AF
S1130100E80FF91F80818093C60080911801815007
S11301108093180180911801811108C0E1ECF0E08E
S113012080818F7D8083808180648083FF91EF91C3
S11301309F918F910F900FBE0F901F90189584B1CF
S1130140846284B92A981092C50087E08093C40021
S113015082E08093C00088E98093C10086E08093A8
S1130160C200089590931A018093190160931701B6
S113017080911701815080931801E1ECF0E08081B7
S1130180886080832A9AE0911901F0911A01808194
S11301908093C60080911801882331F0E1ECF0E0EF
S11301A08081806280830895E1ECF0E08081806446
S11301B0808308951F920F920FB60F9211242F93EC
S11301C03F934F935F936F937F938F939F93AF93DB
S11301D0BF93EF93FF932091C60080911B019091F0
S11301E00001891768F4E82FF0E0EF5FFE4F90817B
S11301F0921302C08F5F01C080E080931B0112C084
S11302008091140190911301891760F4E091150114
S1130210F0911601E80FF11D2083809114018F5F86
S113022080931401909114018091130198130CC0D0
S113023010921B0110921401609110018091110120
S1130240909112010E94B200FF91EF91BF91AF9182
S11302509F918F917F916F915F914F913F912F91DA
S11302600F900FBE0F901F9018951F920F920FB60C
S11302700F9211248F938091780080930E018091C6
S1130280790080930F018F910F900FBE0F901F90F4
S113029018951F920F920FB60F9211240F900FBE54
S11302A00F901F9018951F920F920FB60F92112462
S11302B00F900FBE0F901F901895389880E480938C
S11302C07C008FE880937A0010927B000E949F004C
S11302D0EBE0F1E0F0931601E093150183E08093E5
S11302E01301A6E0B1E0B0931201A093110185E0DF
S11302F08093100192E094BD85BD89EF87BD109273
S113030080008DE08093810080E2809389001092C8
S1130310880090936F009FEF908390EA90930C0174
S113032080930D0180818C937894EAE7F0E00F2E9E
S1130330F9E0EF2EF1E0FF2EF02D0BE011E0BD010E
S11303404CE051E00F2EF7E0AF2EF1E0BF2EF02D80
S1130350CDE0D1E00F2EF8E08F2EF1E09F2EF02DAE
S11303608081806480832FEF81EE94E0215080406F
S11303709040E1F700C00000D0900F0180910E0181
S113038090E09D29D70111969C938E93D8018C916E
S1130390DB018C93DA018C91D5018C938881D40193
S10B03A08C93DECFF894FFCF2B
S10903A80440524742002C
S9030000FC
