S01600005247425F4C45445F6472697665722E7372656314
S11300000C9434000C9451000C9451000C94510045
S11300100C9451000C9451000C9451000C94510018
S11300200C9451000C9451000C9451000C942A012E
S11300300C9451000C9451000C9420010C94510028
S11300400C9451000C9451000C94CC000C946C0052
S11300500C9453000C9451000C9451000C945100D6
S11300600C9451000C94510011241FBECFEFD8E022
S1130070DEBFCDBF11E0A0E0B1E0E8EAF2E002C0EB
S113008005900D92A830B107D9F721E0A8E0B1E0BE
S113009001C01D92A931B207E1F70E9434010C940A
S11300A052010C9400001F920F920FB60F9211246C
S11300B08F93EF93FF932A98E1ECF0E08081877FA0
S11300C0808380818F7B8083FF91EF918F910F904C
S11300D00FBE0F901F9018951F920F920FB60F929C
S11300E011248F939F93EF93FF93E09114018091D8
S11300F01501F0E0E81BF1098091160190911701B8
S1130100E80FF91F80818093C6008091150181500A
S11301108093150180911501813041F4E1ECF0E008
S113012080818F7D8083808180648083FF91EF91C3
S11301309F918F910F900FBE0F901F90189584B1CF
S1130140846284B92A981092C50087E08093C40021
S113015082E08093C00088E98093C10086E08093A8
S1130160C200089590931701809316016F5F609306
S1130170140120911401215020931501E1ECF0E0C9
S11301802081286020832A9ADC018C918093C60008
S113019080818062808308951F920F920FB60F9220
S11301A011242F933F934F935F936F937F938F9378
S11301B09F93AF93BF93EF93FF932091C6008091D9
S11301C0180190910101891768F4E82FF0E0EE5FBF
S11301D0FE4F9081921302C08F5F01C080E0809334
S11301E018010EC080910B0190910001891740F411
S11301F0E82FF0E0E45FFE4F20838F5F80930B01D4
S113020090910B0180910001981309C0109218017C
S113021010920B0163E08CE091E00E94B200FF9128
S1130220EF91BF91AF919F918F917F916F915F916A
S11302304F913F912F910F900FBE0F901F901895E3
S11302401F920F920FB60F9211240F900FBE0F90B2
S11302501F9018951F920F920FB60F9211240F90B2
S11302600FBE0F901F9018950E949F0092E094BDBE
S113027085E085BD89EF87BD109280008DE0809375
S1130280810080E2809389001092880090936F002F
S11302909FEF9093080190EA9093090180930A01DB
S10B02A07894FFCFF894FFCF1E
S10B02A8030440524742000028
S9030000FC
