:100000000C9472000C9493000C9493000C94930045
:100010000C9493000C9493000C9493000C94930014
:100020000C9493000C9493000C9493000C94930004
:100030000C9493000C9493000C9493000C949300F4
:100040000C9493000C9493000C9493000C949300E4
:100050000C9493000C9493000C9493000C946E01F8
:100060000C9493000C9493000C9493000C949300C4
:100070000C9493000C9493000C9493000C949300B4
:100080000C9493000C9493000C9493000C949300A4
:100090000C9493000C9493000C9493000C94930094
:1000A0000C9493000C9493000C9493000C94930084
:1000B0000C9493000C9493000C9493000C94930074
:1000C0000C9493000C9493000C9493000C94930064
:1000D0000C9493000C9493000C9493000C94930054
:1000E0000C94930011241FBECFEFD1E2DEBFCDBF31
:1000F00000E00CBF12E0A0E0B2E0ECE7F6E000E0C8
:100100000BBF02C007900D92A230B107D9F722E0D1
:10011000A2E0B2E001C01D92AE30B207E1F70E944A
:100120005F010C943C030C9400002091020280912A
:100130000002821710F02F5F01C020E0209302021E
:1001400030E080910402992787FD909528173907A0
:100150001CF484B3846002C084B38B7F84BB209181
:10016000020230E080910402992781950CF4909569
:100170002817390724F480910B01806103C0809116
:100180000B018F7E80930B012091020230E0809161
:100190000302992787FD90952817390724F4809149
:1001A0000B01846003C080910B018B7F80930B0156
:1001B0002091020230E080910302992781950CF48E
:1001C0009095281739071CF485B1816002C085B16C
:1001D0008E7F85B9089594B3882311F0916002C091
:1001E0009095917094BB90910B01882311F09064CD
:1001F00002C09095917090930B0190910B01882310
:1002000011F0916002C09095917090930B0188233A
:1002100019F085B1846003C085B18095817085B97E
:1002200008954F925F926F927F928F929F92AF92BA
:10023000BF92CF92DF92EF92FF922B013C014901D6
:100240005A016091000270E080E090E00E944D024F
:100250006B017C019B01AC01C301B2010E94B102A0
:100260000E941A0260930402A7019601C501B4011D
:100270000E94B1020E941A0260930302FF90EF9065
:10028000DF90CF90BF90AF909F908F907F906F90B6
:100290005F904F90089585E083BBEAE0F1E090E540
:1002A0009083808384B92DEC3CEC4CEC5DE3CA0177
:1002B000B9010E94110181E00C94EB0008950E94A5
:1002C000B8010E945E010E944B01C0E0D0E00E9494
:1002D00095002097E1F30E940000F9CF1F920F9242
:1002E0000FB60F9211242F933F938F939F93AF9349
:1002F000BF938091060290910702A0910802B091ED
:1003000009023091050223E0230F2D3720F40196D6
:10031000A11DB11D05C026E8230F0296A11DB11D28
:10032000209305028093060290930702A09308028F
:10033000B093090280910A0290910B02A0910C02E5
:10034000B0910D020196A11DB11D80930A029093F8
:100350000B02A0930C02B0930D02BF91AF919F913D
:100360008F913F912F910F900FBE0F901F90189576
:10037000789484B5826084BD84B5816084BD85B580
:10038000826085BD85B5816085BDEEE6F0E0808147
:1003900081608083E1E8F0E0108280818260808368
:1003A000808181608083E0E8F0E0808181608083EB
:1003B000E1EBF0E0808184608083E0EBF0E080811D
:1003C00081608083E1E9F0E08081826080838081C8
:1003D00081608083E0E9F0E0808181608083E1EAF0
:1003E000F0E0808182608083808181608083E0EAA8
:1003F000F0E0808181608083E1E2F1E080818260D1
:100400008083808181608083E0E2F1E0808181608F
:100410008083EAE7F0E0808184608083808182606D
:100420008083808181608083808180688083109256
:10043000C100089504D06894B1118DC0089570D0A2
:1004400088F09F5790F0B92F9927B751A0F0D1F0BD
:10045000660F771F881F991F1AF0BA95C9F712C047
:10046000B13081F077D0B1E0089574C0672F782F54
:100470008827B85F39F0B93FCCF3869577956795B3
:10048000B395D9F73EF490958095709561957F4F1F
:100490008F4F9F4F0895E89409C097FB3EF49095C5
:1004A0008095709561957F4F8F4F9F4F9923A9F04D
:1004B000F92F96E9BB279395F695879577956795DC
:1004C000B795F111F8CFFAF4BB0F11F460FF1BC020
:1004D0006F5F7F4F8F4F9F4F16C0882311F096E9B3
:1004E00011C0772321F09EE8872F762F05C0662361
:1004F00071F096E8862F70E060E02AF09A95660F1A
:10050000771F881FDAF7880F9695879597F90895D2
:1005100057FD9058440F551F59F05F3F71F04795B4
:10052000880F97FB991F61F09F3F79F08795089599
:10053000121613061406551FF2CF4695F1DF08C0B8
:10054000161617061806991FF1CF869571056105D5
:1005500008940895E894BB2766277727CB0197F97D
:1005600008950BD078C069D028F06ED018F095238C
:1005700009F05AC05FC01124EECFCADFA0F3959FE7
:10058000D1F3950F50E0551F629FF001729FBB277A
:10059000F00DB11D639FAA27F00DB11DAA1F649F26
:1005A0006627B00DA11D661F829F2227B00DA11DD9
:1005B000621F739FB00DA11D621F839FA00D611D5F
:1005C000221F749F3327A00D611D231F849F600D80
:1005D000211D822F762F6A2F11249F5750408AF0B9
:1005E000E1F088234AF0EE0FFF1FBB1F661F771F45
:1005F000881F91505040A9F79E3F510570F014C0DC
:10060000AACF5F3FECF3983EDCF38695779567952C
:10061000B795F795E7959F5FC1F7FE2B880F911D62
:100620009695879597F9089597F99F6780E870E008
:1006300060E008959FEF80EC089500240A94161658
:10064000170618060906089500240A9412161306C0
:10065000140605060895092E0394000C11F488234E
:1006600052F0BB0F40F4BF2B11F460FF04C06F5F6A
:0C0670007F4F8F4F9F4F0895F894FFCFED
:02067C0010006C
:00000001FF
