S0170000766F6C746167655F6D6F6E69746F722E73726563B4
S11300000C9434000C9446000C9446000C94460066
S11300100C9446000C9446000C9446000C94460044
S11300200C9446000C9446000C9446000C94460034
S11300300C9446000C9446000C9446000C94460024
S11300400C9446000C9446000C9446000C94460014
S11300500C9446000C9448000C9446000C94460002
S11300600C9446000C94460011241FBECFEFD8E038
S1130070DEBFCDBF21E0A0E0B1E001C01D92A230FF
S1130080B207E1F70E9480000C9406010C94000072
S11300901F920F920FB60F9211248F9380917800C4
S11300A08093000180917900809301018F910F90DA
S11300B00FBE0F901F901895FA01908121E030E057
S11300C0082E01C0220F0A94EAF720952923082E4E
S11300D001C0660F0A94EAF7262B20830895CF9374
S11300E0C82F48E250E060E00E945C00C066C09304
S11300F07C008BE880937A0010927B00CF91089566
S1130100CF93DF931F92CDB7DEB78FEF8AB984B94F
S11301108FE387B9789480910001E82EF12C46E0B2
S1130120F594E7944A95E1F78091010124E0829FD8
S1130130C0011124E82AF92A52E0F51A87E00E9446
S11301406F0080917A00806480937A00F7FE03C088
S1130150F194E194F108E00EF11E82E0E826EE0C41
S1130160FF1CEE0CFF1C80E090E040E08E159F0524
S113017014F4406104C0E816F9061CF04F7E4F7D6C
S113018001C040E248B9E5E3EA95F1F700000196C1
S11301908F3FF3E09F0751F78091000190E026E044
S11301A0959587952A95E1F72091010154E0259FC3
S11301B090011124822B932B925097FF03C09195A9
S11301C0819591098C0186E049830E946F0080919A
S11301D07A00806480937A0080E090E049818E15F3
S11301E09F0514F4406104C0E816F9061CF04F7E24
S11301F04F7D01C040E248B9E5E3EA95F1F700001C
S113020001968F3FF3E09F0751F785CFF894FFCF16
S9030000FC
