S020000050303030355F76325F6472697665747261696E5F726576312E7372656374
S11300000C9434000C9451000C9451000C948B010A
S11300100C9451000C9451000C9451000C94510018
S11300200C9451000C9451000C9451000C94510008
S11300300C9451000C9451000C944B010C945100FD
S11300400C9451000C9451000C94EE000C9480001C
S11300500C9467000C9453000C9451000C945100C0
S11300600C9451000C94510011241FBECFEFD8E022
S1130070DEBFCDBF11E0A0E0B1E0E2E2F4E002C0F7
S113008005900D92A831B107D9F721E0A8E1B1E0BC
S113009001C01D92A333B207E1F70E94C1010C9481
S11300A00F020C9400001F920F920FB60F921124AE
S11300B08F938091780080933101809179008093AF
S11300C032018F910F900FBE0F901F9018951F92C1
S11300D00F920FB60F9211248F93EF93FF932A98E8
S11300E0E1ECF0E08081877F808380818F7B808357
S11300F0FF91EF918F910F900FBE0F901F90189565
S11301001F920F920FB60F9211248F939F93EF9328
S1130110FF93E0912C0180912D01F0E0E81BF1099F
S113012080912E0190912F01E80FF91F8081809317
S1130130C60080912D01815080932D0180912D0165
S1130140811108C0E1ECF0E080818F7D80838081A3
S113015080648083FF91EF919F918F910F900FBEE8
S11301600F901F90189584B1846284B92A981092D4
S1130170C50087E08093C40082E08093C00088E9D2
S11301808093C10086E08093C200089590932F016C
S113019080932E0160932C0180912C0181508093D7
S11301A02D01E1ECF0E08081886080832A9AE0915F
S11301B02E01F0912F0180818093C60080912D0142
S11301C0882331F0E1ECF0E080818062808308953F
S11301D0E1ECF0E080818064808308951F920F92A7
S11301E00FB60F9211242F933F934F935F936F9306
S11301F07F938F939F93AF93BF93EF93FF9320913C
S1130200C6008091300190912901891778F4E0911A
S11302102A01F0912B01E80FF11D9081921302C085
S11302208F5F01C080E08093300112C0809126016D
S113023090912501891760F4E0912701F09128013C
S1130240E80FF11D2083809126018F5F80932601A2
S1130250909126018091250198130CC010923001D1
S11302601092260160912201809123019091240132
S11302700E94C600FF91EF91BF91AF919F918F9122
S11302807F916F915F914F913F912F910F900FBE8E
S11302900F901F9018951F920F920FB60F92112472
S11302A02F933F934F935F938F939F938091190163
S11302B090E001968F779078992324F401978068D1
S11302C09F6F01969C0180931901811109C080914F
S11302D01D0180931C0110921D0181E080931A017D
S11302E040911801042E000C550BC901992784175D
S11302F095071CF486B1886002C086B1877F88B9EF
S11303009F918F915F914F913F912F910F900FBECD
S11303100F901F9018951F920F920FB60F921124F1
S11303202F938F939F93EF93FF9389B180628BB93F
S113033083B1E0911B0120911D018370F0E094E0F2
S1130340899FE00DF11D1124E95FFE4F8081082E85
S1130350000C990B820F911D27FD9A9580931D0126
S113036083B1837080931B0189B18F7D8BB9FF9119
S1130370EF919F918F912F910F900FBE0F901F902F
S11303801895CF93DF93CDB7DEB727970FB6F894C0
S1130390DEBF0FBECDBF14B88FEF87B98AB981E035
S11303A08093680013E010936B0082E084BD95E0B5
S11303B095BD9DE597BD80936E0020E231E03093BA
S11303C0280120932701809325012EE131E0309309
S11303D02401209323018093220184E08093290146
S11303E00E94B30010931801789417E000E3809101
S11303F01A018823E1F3E0E0F1E0DE011196812F98
S113040001900D928A95E1F7612FCE0101960E9429
S1130410C60010921A0188B1802788B9E8CFF894F1
S1050420FFCF08
S1130422594152474748000001FF00FF0000010103
S10B04320000FF00FF010000BF
S9030000FC
