:100000000C9434000C9451000C9451000C94510049
:100010000C9451000C9451000C9451000C9451001C
:100020000C9451000C9451000C9451000C9451000C
:100030000C9451000C9451000C9451000C945100FC
:100040000C9451000C9451000C9451000C945100EC
:100050000C9451000C945E000C9451000C945100CF
:100060000C9451000C94510011241FBECFEFD8E026
:10007000DEBFCDBF11E0A0E0B1E0E6EFF0E002C0EE
:1000800005900D92A030B107D9F721E0A0E0B1E0D2
:1000900001C01D92A230B207E1F70E9472000C94D9
:1000A00079000C9400009093C5008093C40088E10F
:1000B0008093C10086E08093C20008951F920F9242
:1000C0000FB60F9211248F938091780080930101D5
:1000D00080917900809300018F910F900FBE0F9057
:1000E0001F90189580E190E00E94530080E090E01E
:0600F0000895F894FFCF13
:00000001FF
