:100000000C9459010C948A010C948A010C948A0175
:100010000C948A010C948A010C948A010C948A0134
:100020000C948A010C948A010C948A010C948A0124
:100030000C948A010C948A010C948A010C948A0114
:100040000C948A010C948A010C948A010C948A0104
:100050000C948A010C948A010C948A010C94A107D7
:100060000C948A010C94F40A0C942A0B0C948A01C7
:100070000C948A010C948A010C948A010C948A01D4
:100080000C948A010C948A010C948A010C948A01C4
:100090000C948A010C948A010C948A010C947006C9
:1000A0000C948A010C948A010C948A010C948A01A4
:1000B0000C948A010C948A010C948A010C948A0194
:1000C0000C948A010C948A010C948A010C948A0184
:1000D0000C948A010C948A010C948A010C948A0174
:1000E0000C948A01D608D908C808CC08D20810098F
:1000F000DD08E108E708EB08EF08F508F908FD0856
:100100001009030907090B090C9499090C94540B65
:100110000C94AD090C9410090C942D0A0C9403094D
:100120000C94DE040C94D6080C948B090C940B0AE6
:100130000C94B3040C94BB040C94C8080C94A9044C
:100140000C94F5080C94F9080C9480090C943A0569
:100150000C94D2080C94B30B0C94CE040C94C405EC
:100160000C94E7080C94CC080C94D9080C940B0957
:100170000C94EB080C942D020C945E0B0C94EF087D
:100180000C94DD040C9407090C946F040C94010585
:100190000C940D050C94FD080C94DD080C94E108FA
:1001A0000C94900200000A0B02090C0D0E080703C4
:1001B000040100000000000000000000000000003A
:1001C000000000000000000000000000000000002F
:1001D00012111000000000000000000000000000EC
:1001E00000000000000000000000010210202008B4
:1001F0000810204010204080020102010804020182
:1002000001020408102040808040201008040201F0
:100210008004020180402010080402010804020149
:1002200001020408102040800102040810204080D0
:1002300005050505070508080808020202020A0A62
:100240000808040404040101010101010101030380
:10025000030303030303040707070C0C0C0C0C0C2B
:100260000C0C0202020206060606060606060B0B28
:100270000B0B0B0B0B0B00002200250028002B00A2
:100280002E003100340002010000050108010B01BD
:1002900000002100240027002A002D003000330038
:1002A00001010000040107010A012D02C4055E0BD3
:1002B000900211241FBECFEFD1E2DEBFCDBF00E020
:1002C0000CBF12E0A0E0B2E0ECEEF2E200E00BBF07
:1002D00002C007900D92A637B107D9F725E0A6E72F
:1002E000B2E001C01D92A034B207E1F712E0C0EB0A
:1002F000D2E000E006C022970109FE010BBF0E9478
:10030000E00ECA3AD10780E00807A9F70E94A20BC5
:100310000C9464110C940000AF92BF92CF92DF92C4
:10032000EF92FF920F931F93CF93DF93EC016B013A
:100330005A017901FC0111928F0163E372E0CF0150
:100340000E94840CB501C8010E949A0CDA86C98605
:10035000F886EF82C7010E94B10B9E878D87DF91DF
:10036000CF911F910F91FF90EF90DF90CF90BF90B2
:10037000AF900895CF93DF93EC0160E070E082EDE1
:1003800093E00E94A205BE0182ED93E00E94040C5E
:1003900082ED93E0DF91CF910C94B705259A61E04F
:1003A0008DE00E94110960E089E30E94110962E278
:1003B00072E088E092E00E94111162E070E082ED4C
:1003C00093E00E9496056FE674E082ED93E00E9450
:1003D000BF0569EA74E082ED93E00E94BA0526E069
:1003E00040E052EC61E070E08FE994E00E94920AF4
:1003F00082ED93E00E947905E091C002F091C10284
:10040000EE0FFF1FEE52FD4F87EB92E0918380834A
:10041000E091AD02F091AE02EE0FFF1FEE52FD4FE4
:1004200084EA92E091838083E0919A02F0919B02AA
:10043000EE0FFF1FEE52FD4F81E992E09183808322
:10044000E0918702F0918802EE0FFF1FEE52FD4F00
:100450008EE792E0918380830895CF93DF9300D05D
:1004600000D0CDB7DEB764E372E0CE0101960E9402
:10047000840C24E030E0AE014F5F5F4F61E070E03C
:1004800087EB92E00E948C01CE0101960E94160C2F
:100490006BE372E0CE0101960E94840C24E030E010
:1004A000AE014F5F5F4F62E070E084EA92E00E942D
:1004B0008C01CE0101960E94160C62E472E0CE011E
:1004C00001960E94840C24E030E0AE014F5F5F4F44
:1004D00063E070E081E992E00E948C01CE01019618
:1004E0000E94160C69E472E0CE0101960E94840C11
:1004F00024E030E0AE014F5F5F4F64E070E08EE7D4
:1005000092E00E948C01CE0101960E94160C269664
:100510000FB6F894DEBF0FBECDBFDF91CF91089527
:100520008FE792E00E94160C82E992E00E94160C7E
:1005300085EA92E00E94160C88EB92E00C94160C6F
:10054000CF92DF92EF92FF920F931F93CF93DF939F
:1005500000E210E0C3E0D0E0DD24D39493E7C92E9D
:1005600022E0E22EF12C8FE994E00E948009181617
:1005700019060CF0ADC08091D0029091D102B80163
:100580000E94A40E9093D1028093D0028FE994E050
:100590000E9499098093180220911B0230911C023D
:1005A000232B19F5E82FFF27E7FDF095F093CD02F7
:1005B000E093CC02A0919F04B091A004EE0FFF1F26
:1005C000EE52FD4F0190F081E02D65857685129603
:1005D000ED91FC91139744E050E08FE994E0199578
:1005E000D0931A02C093190262C020911F02309169
:1005F000200222303105A1F02330310509F44AC030
:10060000232B09F054C0E82FFF27E7FDF095F09366
:10061000CF02E093CE02F0921E02E0921D0247C08C
:10062000E091CE02F091CF02EE0FFF1FEE52FD4F90
:10063000A081B1811D96ED91FC911E972091D00271
:100640003091D102A9014F5F5F4F5093D102409387
:10065000D002E20FF31F8083E091CE02F091CF022F
:10066000EE0FFF1FEE52FD4F0190F081E02D209123
:10067000D0023091D1028781908528173907B9F4CB
:100680001092D1021092D002D0931E02C0931D028C
:10069000D0820DC0873629F410921A0210921902E6
:1006A00006C0C092180210921E0210921D02809184
:1006B000190290911A0290931C0280931B02809160
:1006C0001D0290911E029093200280931F024BCF37
:1006D000DF91CF911F910F91FF90EF90DF90CF901E
:1006E00008954F925F926F927F928F929F92AF92F6
:1006F000BF92CF92DF92EF92FF920F931F93CF930F
:10070000DF9300D000D0CDB7DEB740917A02509190
:100710007B0260917C0270917D02DB01CA0101962F
:10072000A11DB11D80937A0290937B02A0937C025D
:10073000B0937D022AE0CE0101960E94C90CCE0141
:1007400001960E94BA01CE0101960E94160C80E02B
:100750000E949808AA2797FDA095BA2F8755914027
:10076000A109B10936ECE32E32E0F32EF7018083C4
:100770009183A283B383E091C402F091C502808388
:100780009183A283B38381E00E949808AA2797FDF2
:10079000A095BA2F83559140A109B10903EB12E04E
:1007A000F80180839183A283B383E091B102F09139
:1007B000B20280839183A283B38382E00E9498086F
:1007C000AA2797FDA095BA2F80559140A109B1099C
:1007D00040EAC42E42E0D42EF60180839183A283A6
:1007E000B383E0919E02F0919F0280839183A28364
:1007F000B383F70160817181828193810E945E0DD4
:100800004B015C01F80160817181828193810E94BA
:100810005E0D2B013C01F601608171818281938123
:100820000E945E0D6B017C01A5019401C501B4011C
:100830000E94EA0D4B015C01A3019201C301B201C8
:100840000E94EA0D9B01AC01C501B4010E94F80CA5
:100850004B015C01A7019601C701B6010E94EA0D98
:100860009B01AC01C501B4010E94F80C0E94510E1D
:100870006093760270937702809378029093790266
:1008800060938D0270938E0280938F0290939002FA
:10089000E0918B02F0918C02608371838283938359
:1008A0006AE070E080E090E00E940E080E94A002E2
:1008B00026960FB6F894DEBF0FBECDBFDF91CF9165
:1008C0001F910F91FF90EF90DF90CF90BF90AF906E
:1008D0009F908F907F906F905F904F900895CF93EF
:1008E000DF931F921F92CDB7DEB78091CB028111AB
:1008F0000FC0E091D203F091D3030280F381E02D89
:1009000040E150E068E072E082ED93E019951CC090
:10091000813061F4E091D203F091D3030190F08132
:10092000E02D65E682ED93E019950EC0823061F40A
:1009300085E589838A8342E050E0BE016F5F7F4F87
:1009400082ED93E00E940D050F900F90DF91CF9103
:10095000089582ED93E00E94BB048093CB0281E076
:100960008093CA0208958091060490E020910704C4
:10097000821B91090895209107048091060428178D
:1009800050F4E22FF0E0E85FFB4F808190E02F5FB2
:100990002093070408958FEF9FEF0895E0910704D7
:1009A00080910604E81730F4F0E0E85FFB4F8081A7
:1009B00090E008958FEF9FEF08950895E091DE0392
:1009C000F091DF033097E1F03091070420910604A5
:1009D0003217B0F040E0242F30E02617370754F4E8
:1009E000DC01A20FB31F5C91D901A85FBB4F5C93E0
:1009F0004F5FF1CF1092070460930604CB01199466
:100A00000895E091E003F091E103309729F010920E
:100A1000E4031092E30319940895CF92DF92EF92CA
:100A2000FF920F931F93CF93DF937C01CB018A0139
:100A30002091E203222389F0EB016B01C40ED51E45
:100A4000CC15DD0569F06991D701ED91FC9101901C
:100A5000F081E02DC7011995F3CF642F0E943D0668
:100A6000C801DF91CF911F910F91FF90EF90DF9020
:100A7000CF900895CF93DF931F92CDB7DEB76983F0
:100A80002091E2032223D1F02091E303203240F0B1
:100A900021E030E0FC013383228380E090E015C048
:100AA0008091E403E82FF0E0EB51FC4F99819083B3
:100AB0008F5F8093E4038093E30305C061E0CE0180
:100AC00001960E943D0681E090E00F90DF91CF916A
:100AD0000895FC011382128248EE53E060E070E05A
:100AE00044835583668377838AE592E0918380838C
:100AF000089510920704109206041092E4031092D5
:100B0000E3030C94C805CF93DF93EC01862F0E947A
:100B1000E60581E095E00E945B068EED94E00E9480
:100B20005606CE01DF91CF910C9479050C94830584
:100B300081E08093E203609305041092E403109235
:100B4000E30308950C9498050F93062F21E040913C
:100B5000E30365EE73E0809105040E94EA051092BC
:100B6000E4031092E3031092E2030F91089561E011
:100B70000C94A4057093DF036093DE0308957093D3
:100B8000E1036093E003089582ED93E00C9469051E
:100B90001092950481E0809393041092920461E096
:100BA00084E10E944A0961E085E10E944A09E9EB7B
:100BB000F0E080818E7F808380818D7F808388E4D8
:100BC0008093B80085E48093BC000895880F8093DB
:100BD000BA0008950F93413208F046C090919504F1
:100BE0009111FCCF92E090939504009393049FEFB2
:100BF0009093280410926D0440936C04FB016EE600
:100C000074E0DB019A2F961B941718F491919D9331
:100C1000F9CF1092940490919404880F892B8093BB
:100C2000940480919204813041F410929204809156
:100C300094048093BB0085EC01C085EE8093BC00DA
:100C4000222321F0809195048230E1F380912804E1
:100C50008F3F61F080912804803251F08091280408
:100C6000803341F483E007C081E005C080E003C029
:100C700082E001C084E00F910895613298F42091E0
:100C80009504243089F460934A04FC018CE494E0D8
:100C9000DC012A2F281B261718F421912D93F9CF58
:100CA00080E0089581E0089582E0089590938F0494
:100CB00080938E04089590939104809390040895F6
:100CC00085ED8093BC008091BC0084FDFCCF109228
:100CD0009504089585EC8093BC00109295040895C6
:100CE0001F920F920FB60F9211240BB60F922F93F3
:100CF0003F934F935F936F937F938F939F93AF93A4
:100D0000BF93EF93FF938091B900887F803609F4F9
:100D10009CC068F5883209F45BC090F4803109F416
:100D200054C038F4882309F4F5C0883009F44DC064
:100D3000F5C0883109F44CC0803209F45DC0EEC0C2
:100D4000803409F468C048F4803309F455C088330E
:100D500009F0E4C080932804A8C0803509F44FC08E
:100D6000883509F45DC0883409F0D8C0D5C0883909
:100D700009F4C6C0A8F4883709F467C038F4883687
:100D800009F463C0803709F460C0C8C0883809F42A
:100D9000B7C0803909F45FC0803809F0BFC05BC0BC
:100DA000803B09F485C038F4803A09F466C0883A7B
:100DB00009F47EC0B3C0803C09F4A6C0883C09F4A5
:100DC000A3C0883B09F489C0A9C08091940410C0D5
:100DD00090916D0480916C04981770F5E0916D040A
:100DE00081E08E0F80936D04F0E0E259FB4F80812B
:100DF0008093BB0085EC85C0809328048DC0E09172
:100E00006D0481E08E0F80936D048091BB00F0E053
:100E1000E259FB4F808390916D0480916C046DC00A
:100E2000E0916D0481E08E0F80936D048091BB0092
:100E3000F0E0E259FB4F80838091930481116CC0F4
:100E400081E08093920484EA60C083E080939504FB
:100E500010922904CFCF80912904803208F050C02D
:100E6000E091290481E08E0F809329048091BB00DA
:100E7000F0E0E65DFB4F8083BDCF80912904803296
:100E800030F4E0912904F0E0E65DFB4F10820E940F
:100E900060066091290470E0E0918E04F0918F0467
:100EA0008AE294E01995109229040E946A0636C0DD
:100EB00084E08093950410924B0410924A04E091D0
:100EC0009004F0919104199580914A04811105C014
:100ED00081E080934A0410924C04E0914B0481E03D
:100EE0008E0F80934B04F0E0E45BFB4F8081809396
:100EF000BB0090914B0480914A04981708F47ACF74
:100F000085E88093BC000AC085EC8093BC001092F9
:100F1000950404C0109228040E946006FF91EF918E
:100F2000BF91AF919F918F917F916F915F914F9101
:100F30003F912F910F900BBE0F900FBE0F901F90FF
:100F400018951F920F920FB60F9211242F933F9373
:100F50008F939F93AF93BF93809197049091980440
:100F6000A0919904B0919A043091960423E0230F44
:100F70002D3720F40196A11DB11D05C026E8230FD1
:100F80000296A11DB11D209396048093970490931F
:100F90009804A0939904B0939A0480919B04909133
:100FA0009C04A0919D04B0919E040196A11DB11DC9
:100FB00080939B0490939C04A0939D04B0939E0403
:100FC000BF91AF919F918F913F912F910F900FBE45
:100FD0000F901F9018953FB7F89480919B049091C3
:100FE0009C04A0919D04B0919E0426B5A89B05C0C9
:100FF0002F3F19F00196A11DB11D3FBF6627782F25
:10100000892F9A2F620F711D811D911D42E0660F7D
:10101000771F881F991F4A95D1F70895CF92DF92C5
:10102000EF92FF92CF93DF936B017C010E94EB075D
:10103000EB01C114D104E104F10489F00E94F60C23
:101040000E94EB076C1B7D0B683E734090F381E0C0
:10105000C81AD108E108F108C851DC4FEACFDF9186
:10106000CF91FF90EF90DF90CF900895789484B562
:10107000826084BD84B5816084BD85B5826085BD94
:1010800085B5816085BDEEE6F0E08081816080837A
:10109000E1E8F0E01082808182608083808181605D
:1010A0008083E0E8F0E0808181608083E1EBF0E024
:1010B000808184608083E0EBF0E0808181608083C8
:1010C000E1E9F0E0808182608083808181608083BB
:1010D000E0E9F0E0808181608083E1EAF0E08081F6
:1010E00082608083808181608083E0EAF0E080819B
:1010F00081608083E1E2F1E0808182608083808191
:1011000081608083E0E2F1E0808181608083EAE7B2
:10111000F0E0808184608083808182608083808130
:10112000816080838081806880831092C1000895EF
:10113000863308F0865320917B00982F9870277F84
:10114000922B90937B0087702091210290E4299F3D
:1011500090011124822B80937C0080917A0080641E
:1011600080937A0080917A0086FDFCCF8091780090
:101170002091790090E0922B089590E0FC01319746
:10118000E231F10508F04CC0EE58FF4F0C94DA0E36
:10119000809180008F7703C0809180008F7D809345
:1011A0008000089580918000877FF9CF84B58F7784
:1011B00002C084B58F7D84BD08958091B0008F7783
:1011C00003C08091B0008F7D8093B000089580911E
:1011D00090008F7707C0809190008F7D03C0809131
:1011E0009000877F8093900008958091A0008F7772
:1011F00007C08091A0008F7D03C08091A000877FF1
:101200008093A0000895809120018F7707C080917E
:1012100020018F7D03C080912001877F8093200172
:101220000895CF93DF9390E0FC01E651FE4F2491A7
:10123000FC01E05DFD4F8491882349F190E0880F27
:10124000991FFC01E057FD4FA591B4918A589D4F1D
:10125000FC01C591D4919FB7611108C0F8948C919D
:10126000209582238C93888182230AC0623051F4B6
:10127000F8948C91322F309583238C938881822B24
:10128000888304C0F8948C91822B8C939FBFDF914C
:10129000CF9108950F931F93CF93DF931F92CDB7F4
:1012A000DEB7282F30E0F901EC55FE4F8491F901AB
:1012B000E651FE4F1491F901E05DFD4F04910023CA
:1012C000C9F0882321F069830E94BD086981E02F5D
:1012D000F0E0EE0FFF1FEA58FD4FA591B4919FB7C4
:1012E000F8948C91611103C01095812301C0812B6A
:1012F0008C939FBF0F90DF91CF911F910F91089515
:10130000FC01818D228D90E0805C9F4F821B9109B2
:101310008F7399270895FC01918D828D981731F074
:10132000828DE80FF11D858D90E008958FEF9FEF7E
:101330000895FC01918D828D981761F0828DDF01F7
:10134000A80FB11D5D968C91928D9F5F9F73928FB8
:1013500090E008958FEF9FEF089584E59BE0892B3F
:1013600041F080E090E0892B21F00E94540B811124
:1013700025C080E090E0892B41F080E090E0892B4F
:1013800021F00E94000081111CC080E090E0892BB8
:1013900041F080E090E0892B21F00E940000811153
:1013A00013C080E090E0892BA1F080E090E0892BD1
:1013B00081F00E94000081110AC008950E9400007F
:1013C000D8CF0E940000E1CF0E940000EACF0C9429
:1013D00000000895FC01848DDF01A80FB11DA35A00
:1013E000BF4F2C91848D90E001968F739927848F45
:1013F000A689B7892C93A089B1898C9180648C933C
:10140000938D848D981306C00288F389E02D808126
:101410008F7D80830895CF93DF93EC01888D88239F
:10142000C9F0EA89FB89808185FD05C0A889B98951
:101430008C9186FD0FC00FB607FCF5CF808185FF2C
:10144000F2CFA889B9898C9185FFEDCFCE010E949A
:10145000EA09E7CFDF91CF910895CF92DF92FF9213
:101460000F931F93CF93DF931F92CDB7DEB76C011D
:10147000DC015B969C915B975C968C915C979813D2
:1014800007C05096ED91FC915197808185FD32C047
:10149000F601038D10E00F5F1F4F0F731127F02E21
:1014A000F601848DF81211C00FB607FCF9CFD601F2
:1014B0005096ED91FC915197808185FFF1CFC60147
:1014C00069830E94EA096981EBCF838DE80FF11DE2
:1014D000E35AFF4F6083D6015B960C935B9752965D
:1014E000ED91FC91539780818062808381E05896D2
:1014F0008C930DC0D6015696ED91FC915797608361
:101500005096ED91FC91519780818064808381E0B9
:1015100090E00F90DF91CF911F910F91FF90DF909E
:10152000CF900895BF92CF92DF92EF92FF92CF9328
:10153000DF93EC016A017B01B22EE889F98982E030
:101540008083411581EE580761057105A1F060E0C7
:1015500079E08DE390E0A70196010E94B80E21503A
:101560003109410951095695479537952795211518
:1015700080E1380798F0E889F989108260E874E81A
:101580008EE190E0A70196010E94B80E215031092A
:10159000410951095695479537952795EC85FD8565
:1015A0003083EE85FF852083188EEC89FD89B0821B
:1015B000EA89FB89808180618083EA89FB89808157
:1015C00088608083EA89FB89808180688083EA89DA
:1015D000FB8980818F7D8083DF91CF91FF90EF9099
:1015E000DF90CF90BF9008951F920F920FB60F9289
:1015F00011240BB60F922F938F939F93EF93FF932A
:10160000E091AF04F091B0048081E091B504F091D5
:10161000B60482FD12C090818091B8048F5F8F73F1
:101620002091B904821751F0E091B804F0E0E1563E
:10163000FB4F958F8093B80401C08081FF91EF919B
:101640009F918F912F910F900BBE0F900FBE0F9017
:101650001F9018951F920F920FB60F9211240BB680
:101660000F922F933F934F935F936F937F938F933B
:101670009F93AF93BF93EF93FF938FE994E00E9402
:10168000EA09FF91EF91BF91AF919F918F917F9167
:101690006F915F914F913F912F910F900BBE0F90E3
:1016A0000FBE0F901F9018958FE994E00E9480095B
:1016B00021E0892B09F420E0822F08951092A204E2
:1016C0001092A10488EE93E0A0E0B0E08093A30420
:1016D0009093A404A093A504B093A6048AE692E094
:1016E0009093A00480939F0485EC90E09093AC04C9
:1016F0008093AB0484EC90E09093AE048093AD04AF
:1017000080EC90E09093B0048093AF0481EC90E083
:101710009093B2048093B10482EC90E09093B4046F
:101720008093B30486EC90E09093B6048093B50464
:101730001092B8041092B9041092BA041092BB042B
:10174000089508950E9436080E94A10B0E94CE01C0
:10175000CDEAD9E00E9471032097E1F30E94AD0920
:10176000F9CF0C94F80ECF92DF92EF92FF920F9385
:101770001F93CF93DF936C017A01EB01E60EF71E06
:1017800000E010E0CE15DF0561F06991D601ED9122
:10179000FC910190F081E02DC6011995080F191FE9
:1017A000F1CFC801DF91CF911F910F91FF90EF9082
:1017B000DF90CF900895DC01ED91FC91DB01149650
:1017C0004D915C9115976D917C910280F381E02D94
:1017D0001994DC01ED91FC910190F081E02D1994B8
:1017E0000F931F93CF93DF93EC016DE00E94E90B01
:1017F0008C016AE0CE010E94E90B800F911FDF91FE
:10180000CF911F910F9108950F931F93CF93DF9363
:10181000EC010E94DB0B8C01CE010E94F00B800FCB
:10182000911FDF91CF911F910F910895FC0180814D
:1018300091810C94900FCF93DF93EC018881998173
:10184000009711F00E94900F198218821D821C824D
:101850001B821A82DF91CF9108950F931F93CF932C
:10186000DF93EC018B016F5F7F4F888199810E942C
:101870001F10009731F0998388831B830A8381E0CE
:1018800001C080E0DF91CF911F910F910895CF9318
:10189000DF93EC0188819981892B29F08A819B81D2
:1018A0008617970760F4CE010E942D0C882341F023
:1018B0008C819D81892B19F4E881F981108281E066
:1018C000DF91CF910895EF92FF920F931F93CF93E3
:1018D000DF93EC017B018A01BA010E94470C811160
:1018E00004C0CE010E941B0C07C01D830C83B701EE
:1018F000888199810E941111CE01DF91CF911F91B2
:101900000F91FF90EF900895FC01118210821382D5
:101910001282158214826115710559F0FB01019044
:101920000020E9F7AF0141505109461B570B0C94B9
:10193000630C0895CF93DF93EC01FB0186179707A3
:1019400061F0608171816115710529F044815581D3
:101950000E94630C02C00E941B0CCE01DF91CF914C
:101960000895CF93DF93EC016115710561F0FB01E0
:1019700001900020E9F7AF0141505109461B570B78
:101980000E94630C02C00E941B0CCE01DF91CF911C
:1019900008950F931F93CF93DF93CDB7DEB7A29730
:1019A0000FB6F894DEBF0FBECDBF8C01CB01BA01DC
:1019B000F80111821082138212821582148230E0A3
:1019C000AE014F5F5F4F0E941811BE016F5F7F4FE6
:1019D000C8010E94B10CA2960FB6F894DEBF0FBEEC
:1019E000CDBFDF91CF911F910F9108950895505869
:1019F000BB27AA270ED0B4C0A5D030F0AAD020F0C3
:101A000031F49F3F11F41EF49AC00EF4E095E7FB09
:101A100090C0E92FB6D080F3BA1762077307840726
:101A2000950718F071F49EF5CEC00EF4E0950B2EDC
:101A3000BA2FA02D0B01B90190010C01CA01A00120
:101A40001124FF27591B99F0593F50F4503E68F17B
:101A50001A16F040A22F232F342F4427585FF3CFBC
:101A6000469537952795A795F0405395C9F77EF48D
:101A70001F16BA0B620B730B840BBAF09150A1F0D6
:101A8000FF0FBB1F661F771F881FC2F70EC0BA0F5C
:101A9000621F731F841F48F4879577956795B795E4
:101AA000F7959E3F08F0B3CF9395880F08F09927DC
:101AB000EE0F979587950895E89409C097FB3EF43B
:101AC00090958095709561957F4F8F4F9F4F99238B
:101AD000A9F0F92F96E9BB279395F6958795779509
:101AE0006795B795F111F8CFFAF4BB0F11F460FFC9
:101AF0001BC06F5F7F4F8F4F9F4F16C0882311F021
:101B000096E911C0772321F09EE8872F762F05C034
:101B1000662371F096E8862F70E060E02AF09A95CF
:101B2000660F771F881FDAF7880F9695879597F9C4
:101B3000089597F99F6780E870E060E008959FEF4F
:101B400080EC089500240A94161617061806090654
:101B5000089500240A941216130614060506089523
:101B6000092E0394000C11F4882352F0BB0F40F4AB
:101B7000BF2B11F460FF04C06F5F7F4F8F4F9F4FEB
:101B8000089557FD9058440F551F59F05F3F71F06D
:101B90004795880F97FB991F61F09F3F79F08795D4
:101BA0000895121613061406551FF2CF4695F1DF5D
:101BB00008C0161617061806991FF1CF86957105ED
:101BC000610508940895E894BB2766277727CB0121
:101BD00097F908950BD0C4CFB5DF28F0BADF18F01D
:101BE000952309F0A6CFABCF1124EECFCADFA0F327
:101BF000959FD1F3950F50E0551F629FF001729FA2
:101C0000BB27F00DB11D639FAA27F00DB11DAA1FC0
:101C1000649F6627B00DA11D661F829F2227B00D0D
:101C2000A11D621F739FB00DA11D621F839FA00D98
:101C3000611D221F749F3327A00D611D231F849FE8
:101C4000600D211D822F762F6A2F11249F5750403F
:101C50008AF0E1F088234AF0EE0FFF1FBB1F661FDA
:101C6000771F881F91505040A9F79E3F510570F093
:101C700060CFAACF5F3FECF3983EDCF38695779573
:101C80006795B795F795E7959F5FC1F7FE2B880F8E
:101C9000911D9695879597F9089511F40EF44FCFFD
:101CA0003EC077DFD0F39923D9F3CEF39F57550B7E
:101CB00087FF43D00024A0E640EA90018058569563
:101CC000979528F4805C660F771F881F20F02617F1
:101CD0003707480730F4621B730B840B2029312926
:101CE0004A2BA69517940794202531254A2758F7A3
:101CF000660F771F881F20F026173707480730F434
:101D0000620B730B840B200D311D411DA09581F7D3
:101D1000B901842F9158880F9695879508959F3F14
:101D200031F0915020F4879577956795B795880F96
:101D3000911D9695879597F9089591505040660F9B
:101D4000771F881FD2F7089597FB072E16F400948B
:101D500007D077FD09D00E94E40E07FC05D03EF4C1
:101D6000909581959F4F0895709561957F4F089547
:101D7000A1E21A2EAA1BBB1BFD010DC0AA1FBB1F8F
:101D8000EE1FFF1FA217B307E407F50720F0A21B01
:101D9000B30BE40BF50B661F771F881F991F1A946E
:101DA00069F760957095809590959B01AC01BD0198
:101DB000CF010895EE0FFF1F0590F491E02D1994C7
:101DC0000790F691E02D1994AA1BBB1B51E107C0A7
:101DD000AA1FBB1FA617B70710F0A61BB70B881FBB
:101DE000991F5A95A9F780959095BC01CD0108954A
:101DF000CF93DF938230910510F482E090E0E09180
:101E00003E05F0913F0520E030E0A0E0B0E03097E3
:101E100039F14081518148175907B8F048175907DF
:101E200071F482819381109729F013969C938E937D
:101E300012972CC090933F0580933E0527C0211533
:101E4000310531F04217530718F0A901DB0101C039
:101E5000EF019A01BD01DF010280F381E02DD7CFB0
:101E600021153105F9F0281B390B2430310580F498
:101E70008A819B816115710521F0FB019383828327
:101E800004C090933F0580933E05FE01329644C006
:101E9000FE01E20FF31F81939193225031093983A0
:101EA00028833AC020913C0530913D05232B41F415
:101EB000209102023091030230933D0520933C05AE
:101EC00020910002309101022115310541F42DB716
:101ED0003EB74091040250910502241B350BE0915E
:101EE0003C05F0913D05E217F307A0F42E1B3F0BD4
:101EF0002817390778F0AC014E5F5F4F241735077C
:101F000048F04E0F5F1F50933D0540933C05819371
:101F1000919302C0E0E0F0E0CF01DF91CF9108950E
:101F2000CF93DF93009709F487C0FC0132971382A7
:101F30001282C0913E05D0913F05209781F4208107
:101F40003181280F391F80913C0590913D05821702
:101F5000930779F5F0933D05E0933C056DC0DE01F4
:101F600020E030E0AE17BF0750F412964D915C911F
:101F700013979D014115510509F1DA01F3CFB383A0
:101F8000A28340815181840F951F8A179B0771F4AA
:101F90008D919C911197840F951F02969183808358
:101FA00012968D919C91139793838283211531050D
:101FB00029F4F0933F05E0933E053EC0D901139606
:101FC000FC93EE9312974D915D91A40FB51FEA1704
:101FD000FB0779F480819181840F951F0296D901C6
:101FE00011969C938E938281938113969C938E93EA
:101FF0001297E0E0F0E08A819B81009719F0FE01E2
:10200000EC01F9CFCE01029628813981820F931F0E
:1020100020913C0530913D052817390769F4309728
:1020200029F410923F0510923E0502C013821282DD
:10203000D0933D05C0933C05DF91CF9108956F92F9
:102040007F928F929F92AF92BF92CF92DF92EF9248
:10205000FF920F931F93CF93DF93EC01CB01209757
:1020600081F4DF91CF911F910F91FF90EF90DF905E
:10207000CF90BF90AF909F908F907F906F900C9477
:10208000F80EFE01E60FF71F9E0122503109E217FC
:10209000F30708F4ACC0D9010D911C9111970617F4
:1020A0001707B8F00530110508F49FC0A801445087
:1020B00051094617570708F498C002501109061B2A
:1020C000170B019311936D937C93CF010E94900F96
:1020D0008CC05B01A01AB10A4E01800E911EA09126
:1020E0003E05B0913F05612C712C60E070E01097C7
:1020F00009F449C0A815B905C9F5ED90FC901197F0
:10210000670142E0C40ED11CCA14DB0478F1470118
:102110008A189B08640142E0C40ED11C1296BC9040
:1021200012971396AC91B5E0CB16D10440F0B28271
:10213000A38391828082D9018D939C9309C00E5F05
:102140001F4F0E0D1F1DF90111830083EB2DFA2F78
:102150006115710531F0DB011396FC93EE93129734
:1021600044C0F0933F05E0933E053FC06D917C91E4
:1021700011976616770608F43B01BD0112960D9083
:10218000BC91A02DB4CF60913C0570913D056815C0
:102190007905E9F468167906D0F44091000250916F
:1021A00001024115510541F44DB75EB7609104023B
:1021B00070910502461B570BE417F507C0F4F09326
:1021C0003D05E0933C05F901918380830EC00E9498
:1021D000F80E7C01009759F0A801BE010E94081179
:1021E000CE010E94900FC70104C0CE0102C080E062
:1021F00090E0DF91CF911F910F91FF90EF90DF90D2
:10220000CF90BF90AF909F908F907F906F900895E8
:10221000FB01DC0102C001900D9241505040D8F703
:102220000895FB01DC0101900D920020E1F7089573
:102230002532310520F4223010F00C942311FA01DC
:102240001082CA010895BB272A3051F4992342F421
:10225000BDE290958095709561957F4F8F4F9F4F10
:102260000C943311BB27FA01A62F62177105810563
:102270009105330B30FB66F0AA27660F771F881F86
:10228000991FAA1FA21710F0A21B63953850A9F737
:10229000A05DAA3308F0A95DA19336F7B111B193FF
:1022A0001082CA010C945411DC01FC01672F71915A
:1022B0007723E1F7329704C07C916D93708362912C
:1022C000AE17BF07C8F3089512E0C0EBD2E000E0FC
:1022D00006C022970109FE010BBF0E94E00EC23B1F
:0C22E000D10780E00807A9F7F894FFCFB1
:1022EC0000004005800000550000000000000000C8
:1022FC0000000000000000002103000300030003A5
:10230C000001756C747261736F756E64732020209C
:10231C002020200078206178697300792061786929
:10232C0073007A206178697300616363656C657210
:10233C006174696F6E00000000003A050D05B3046E
:10234C00BB04CE04DD04000000002D0AB30B800991
:06235C0099098B090B0A30
:00000001FF
