S0120000756C747261736F756E642E73726563C1
S11300000C9434000C9451000C9451000C94510045
S11300100C9451000C9451000C9451000C94510018
S11300200C9451000C9451000C9451000C947500E4
S11300300C9451000C9451000C9451000C945100F8
S11300400C9451000C9451000C9451000C945100E8
S11300500C9451000C9483000C9451000C945100A6
S11300600C9451000C94510011241FBECFEFD8E022
S1130070DEBFCDBF11E0A0E0B1E0E6ECF9E002C0E4
S113008005900D92AE30B107D9F721E0AEE0B1E0B2
S113009001C01D92A432B207E1F70E9497000C94AC
S11300A0E1040C9400009093C5008093C40088E19F
S11300B08093C10086E08093C2000895E0ECF0E0F4
S11300C0908195FFFDCF8093C6000895CF93DF9371
S11300D0EC018881882331F021960E945E00899189
S11300E08111FBCFDF91CF9108951F920F920FB62C
S11300F00F92112410928500109284000F900FBE6D
S11301000F901F9018951F920F920FB60F92112403
S11301108F9380917800809323018091790080935C
S113012022018F910F900FBE0F901F90189580EFB2
S113013084B917B88FEF8AB980E190E00E94530028
S1130140CC24CA940F2EF7EFDF2EF02DE12CF12CE6
S113015007E011E0CEE0D1E0CAB85B985A982AE6ED
S11301602A95F1F700C05A9A8AE68A95F1F700C0F9
S11301705B9A5A98DAB84B9BFECF4B9B0BC06E2D03
S11301807F2D95E09A95F1F700006F5F7F4F4B99B3
S1130190F8CF02C06E2D7F2D80E090E00E941F01F9
S11301A020E030E040E85EE30E9485010E94F30015
S11301B07F936F931F930F93DF93CF930E9410024B
S11301C0CE010E9466009FEF20E782E0915020401C
S11301D08040E1F700C000000F900F900F900F9047
S11301E00F900F90B9CF70D088F09F5790F0B92F2F
S11301F09927B751A0F0D1F0660F771F881F991F78
S11302001AF0BA95C9F712C0B13081F077D0B1E0D5
S1130210089574C0672F782F8827B85F39F0B93FE5
S1130220CCF3869577956795B395D9F73EF4909579
S11302308095709561957F4F8F4F9F4F0895E894F7
S113024009C097FB3EF490958095709561957F4F1A
S11302508F4F9F4F9923A9F0F92F96E9BB279395C8
S1130260F695879577956795B795F111F8CFFAF4D8
S1130270BB0F11F460FF1BC06F5F7F4F8F4F9F4F09
S113028016C0882311F096E911C0772321F09EE867
S1130290872F762F05C0662371F096E8862F70E0CD
S11302A060E02AF09A95660F771F881FDAF7880FA7
S11302B09695879597F9089557FD9058440F551FC3
S11302C059F05F3F71F04795880F97FB991F61F0D4
S11302D09F3F79F087950895121613061406551F4B
S11302E0F2CF4695F1DF08C0161617061806991FB7
S11302F0F1CF86957105610508940895E894BB27AC
S113030066277727CB0197F908950BD078C069D079
S113031028F06ED018F0952309F05AC05FC011245C
S1130320EECFCADFA0F3959FD1F3950F50E0551F90
S1130330629FF001729FBB27F00DB11D639FAA2736
S1130340F00DB11DAA1F649F6627B00DA11D661F85
S1130350829F2227B00DA11D621F739FB00DA11DA6
S1130360621F839FA00D611D221F749F3327A00D60
S1130370611D231F849F600D211D822F762F6A2FFC
S113038011249F5750408AF0E1F088234AF0EE0F81
S1130390FF1FBB1F661F771F881F91505040A9F78E
S11303A09E3F510570F014C0AACF5F3FECF3983E16
S11303B0DCF3869577956795B795F795E7959F5FF5
S11303C0C1F7FE2B880F911D9695879597F908958F
S11303D097F99F6780E870E060E008959FEF80ECF4
S11303E0089500240A941616170618060906089597
S11303F000240A9412161306140605060895092EFD
S11304000394000C11F4882352F0BB0F40F4BF2B6B
S113041011F460FF04C06F5F7F4F8F4F9F4F0895AB
S1130420AEE0B0E0E6E1F2E00C94B8040D891E8978
S113043086E08C831A8309838FEF9FE79E838D83E5
S1130440AE01475E5F4F6F89788DCE0101960E94A1
S11304503202EF81F885E00FF11F10822E96E4E05E
S11304600C94D404ACE0B0E0E8E3F2E00C94AA0409
S11304707C016B018A01FC0117821682838181FF52
S1130480BDC1CE0101964C01F7019381F60193FDA4
S1130490859193FF81916F01882309F4ABC1853263
S11304A039F493FD859193FF81916F01853229F48D
S11304B0B70190E00E941A04E7CF512C312C20E0C0
S11304C02032A0F48B3269F030F4803259F0833258
S11304D069F420612CC08D3239F0803339F4216005
S11304E026C02260246023C0286021C027FD27C0C5
S11304F030ED380F3A3078F426FF06C0FAE05F9EFC
S1130500300D1124532E13C08AE0389E300D11246F
S1130510332E20620CC08E3221F426FD6BC1206480
S113052006C08C3611F4206802C0883641F4F60106
S113053093FD859193FF81916F018111C1CF982F14
S11305409F7D9554933028F40C5F1F4FFFE3F9838C
S11305500DC0833631F0833771F0833509F05BC009
S113056022C0F801808189830E5F1F4F4424439485
S1130570512C540115C03801F2E06F0E711CF801C2
S1130580A080B18026FF03C0652D70E002C06FEF2C
S11305907FEFC5012C870E940F042C0183012C8559
S11305A02F77222E17C03801F2E06F0E711CF8016C
S11305B0A080B18026FF03C0652D70E002C06FEFFC
S11305C07FEFC5012C870E9404042C012C85206830
S11305D0222E830123FC1BC0832D90E0481659066C
S11305E0B0F4B70180E290E00E941A043A94F4CF88
S11305F0F50127FC859127FE81915F01B70190E009
S11306000E941A0431103A94F1E04F1A510841142F
S1130610510471F7E5C0843611F0893639F5F801D3
S113062027FF07C060817181828193810C5F1F4F16
S113063008C060817181882777FD8095982F0E5FAF
S11306401F4F2F76B22E97FF09C090958095709515
S113065061957F4F8F4F9F4F2068B22E2AE030E084
S1130660A4010E944C04A82EA81844C0853729F47C
S11306702F7EB22E2AE030E025C0F22FF97FBF2E64
S11306808F36C1F018F4883579F0B4C0803719F08A
S1130690883721F0AFC02F2F2061B22EB4FE0DC0D9
S11306A08B2D8460B82E09C024FF0AC09F2F96604A
S11306B0B92E06C028E030E005C020E130E002C0D9
S11306C020E132E0F801B7FE07C0608171818281C8
S11306D093810C5F1F4F06C06081718180E090E0C0
S11306E00E5F1F4FA4010E944C04A82EA818FB2DD6
S11306F0FF77BF2EB6FE0BC02B2D2E7FA51450F412
S1130700B4FE0AC0B2FC08C02B2D2E7E05C07A2C84
S11307102B2D03C07A2C01C0752C24FF0DC0FE01C3
S1130720EA0DF11D8081803311F4297E09C022FF76
S113073006C07394739404C0822F867809F073946E
S113074023FD13C020FF06C05A2C731418F4530C55
S11307505718732C731468F4B70180E290E02C8767
S11307600E941A0473942C85F5CF731410F437186F
S113077001C0312C24FF12C0B70180E390E02C8724
S11307800E941A042C8522FF17C021FF03C088E5AC
S113079090E002C088E790E0B7010CC0822F867811
S11307A059F021FD02C080E201C08BE227FD8DE2F9
S11307B0B70190E00E941A04A51438F4B70180E34D
S11307C090E00E941A045A94F7CFAA94F401EA0D17
S11307D0F11D8081B70190E00E941A04A110F5CFA9
S11307E0332009F451CEB70180E290E00E941A044C
S11307F03A94F6CFF7018681978102C08FEF9FEF7D
S11308002C96E2E10C94C604FC0105906150704002
S11308100110D8F7809590958E0F9F1F0895FC01C5
S11308206150704001900110D8F7809590958E0F1B
S11308309F1F08950F931F93CF93DF93182F092FB2
S1130840EB018B8181FD03C08FEF9FEF20C082FFFE
S113085010C04E815F812C813D81421753077CF487
S1130860E881F9819F012F5F3F4F398328831083EB
S113087006C0E885F985812F0995892B29F72E81F2
S11308803F812F5F3F4F3F832E83812F902FDF9136
S1130890CF911F910F910895FA01AA27283051F1A1
S11308A0203181F1E8946F936E7F6E5F7F4F8F4F9D
S11308B09F4FAF4FB1E03ED0B4E03CD0670F781FFC
S11308C0891F9A1FA11D680F791F8A1F911DA11DE1
S11308D06A0F711D811D911DA11D20D009F468941A
S11308E03F912AE0269F11243019305D3193DEF6C2
S11308F0CF010895462F4770405D4193B3E00FD078
S1130900C9F7F6CF462F4F70405D4A3318F0495D62
S113091031FD4052419302D0A9F7EACFB4E0A69545
S11309209795879577956795BA95C9F70097610567
S1130930710508959B01AC010A2E069457954795BD
S113094037952795BA95C9F7620F731F841F951FB2
S1130950A01D08952F923F924F925F926F927F92C3
S11309608F929F92AF92BF92CF92DF92EF92FF92BB
S11309700F931F93CF93DF93CDB7DEB7CA1BDB0B67
S11309800FB6F894DEBF0FBECDBF09942A8839880C
S113099048885F846E847D848C849B84AA84B98413
S11309A0C884DF80EE80FD800C811B81AA81B9811F
S11309B0CE0FD11D0FB6F894DEBF0FBECDBFED0133
S10909C00895F894FFCF36
S11109C6256C75002564002575206D6D0A00F2
S9030000FC
