:100000000C9436000C945E000C945E000C945E0020
:100010000C945E000C945E000C945E000C945E00E8
:100020000C945E000C945E000C945E000C945E00D8
:100030000C945E000C945E000C945E000C945E00C8
:100040000C945E000C945E000C94C6000C945E0050
:100050000C9481000C9468000C945E000C945E007B
:100060000C945E000C945E000601D20111241FBEA8
:10007000CFEFD8E0DEBFCDBF11E0A0E0B1E0EAE411
:10008000F6E002C005900D92A631B107D9F721E044
:10009000A6E1B1E001C01D92AF3AB207E1F710E06E
:1000A000C5E3D0E004C02197FE010E94E501C433FE
:1000B000D107C9F70E9403010C9418030C940000A7
:1000C000089508950E94800208950E948002089574
:1000D0001F920F920FB60F9211248F93F894809174
:1000E00078008093A801809179008093A90181E034
:1000F0008093AA0178948F910F900FBE0F901F905C
:1001000018951F920F920FB60F9211248F939F9301
:10011000AF93BF93EF93FF93F89480918601882368
:10012000E1F0E0918701F0E0E857FE4F8081809395
:10013000C6008091870190E001968F719078992395
:1001400024F40197806E9F6F0196809387018091C0
:1001500086018150809386010DC0E0918401F09169
:100160008501309739F0A281B3819C91818580957A
:1001700089238C937894FF91EF91BF91AF919F91D8
:100180008F910F900FBE0F901F9018951F920F9296
:100190000FB60F9211248F93EF93FF93F894E0EC36
:1001A000F0E080818F77808385B1809585B97894E0
:1001B000FF91EF918F910F900FBE0F901F901895A8
:1001C00044E351E02DE331E01BC01296ED91FC9128
:1001D000139788819081982B90836FEF70E792E05E
:1001E000615070409040E1F700C000009081809520
:1001F000892380831A962A9661E0AA37B60729F7E1
:10020000DA01E901E2CF82E00E94E000CF92DF92C2
:10021000EF92FF920F931F93CF93DF93EAE7F1E002
:1002200065E270E07383628344E250E05583448367
:1002300023E230E0378326831086A1E0A1878AE09D
:1002400091E0918380832898209AE4E3F1E073831E
:10025000628355834483378326831086A1879183E5
:1002600080832898209A68E270E07587648747E267
:1002700050E05787468726E230E0318B208BB3E091
:10028000B28BB8E0B38B9387828743983B9A0F2E4B
:10029000FBE2EF2EF12CF02DF78AE68A0AE210E05D
:1002A000118F008FC9E2D0E0D38FC28F6894DD2414
:1002B000D1F8D48EB4E0B58F958B848B5A98529A2E
:1002C000F1A2E0A213A302A3D5A3C4A3B6A368948A
:1002D000CC24C4F8C7A2978F868F5C98549A73A7D2
:1002E00062A755A744A737A726A710AAA1AB91A735
:1002F00080A74098389A75AB64AB57AB46AB31AF2B
:1003000020AFA2AFD3AE93AB82AB4198399A709332
:10031000730160937201509375014093740130939F
:10032000770120937601D0927801B093790195AF4F
:1003300084AF42983A9AEAE2F1E0F382E2821583CE
:100340000483D783C683B7E0B087A0E8A1879183F1
:1003500080835F98579AE0E2F1E07383628355836C
:1003600044833783268386E0808780E4818782E127
:1003700091E0918380833E98E6E1F1E073836283AC
:100380005583448337832683B087A18791838083F5
:100390003F98DF91CF911F910F91FF90EF90DF90E9
:1003A000CF900895CF93DF93CAE7D1E02A97E881F1
:1003B000F9810190F081E02DCE01099581E0C433EF
:1003C000D807A1F7DF91CF910895EE0FFF1F059099
:1003D000F491E02D0994CF93DF938230910510F4CE
:1003E00082E090E0E091AD01F091AE0120E030E0DC
:1003F000C0E0D0E0309711F1408151814817590792
:10040000C0F04817590761F482819381209719F051
:100410009B838A832BC09093AE018093AD0126C04D
:100420002115310519F04217530718F49A01BE013E
:10043000DF01EF010280F381E02DDCCF21153105D2
:1004400009F1281B390B2430310590F412968D9157
:100450009C9113976115710521F0FB0193838283B1
:1004600004C09093AE018093AD01FD01329644C06B
:10047000FD01E20FF31F81939193225031092D93D7
:100480003C933AC02091AB013091AC01232B41F455
:1004900020910201309103013093AC012093AB0114
:1004A00020910001309101012115310541F42DB752
:1004B0003EB74091040150910501241B350BE0919A
:1004C000AB01F091AC01E217F307A0F42E1B3F0B38
:1004D0002817390778F0AC014E5F5F4F24173507B6
:1004E00048F04E0F5F1F5093AC014093AB018193D6
:1004F000919302C0E0E0F0E0CF01DF91CF91089549
:100500000F931F93CF93DF93009709F48CC0FC01E6
:100510003297138212820091AD011091AE01011544
:10052000110581F420813181820F931F2091AB014D
:100530003091AC012817390779F5F093AC01E093BD
:10054000AB0171C0D80140E050E0AE17BF0750F4D6
:1005500012962D913C911397AD012115310509F1AA
:10056000D901F3CF9D01DA01338322836081718148
:10057000860F971F8217930769F4EC012881398150
:10058000260F371F2E5F3F4F318320838A819B8147
:1005900093838283452B29F4F093AE01E093AD0160
:1005A00042C01396FC93EE931297ED014991599135
:1005B0009E01240F351FE217F30771F480819181AA
:1005C000840F951F029611969C938E93828193813E
:1005D00013969C938E931297E0E0F0E0D801129668
:1005E0008D919C911397009719F0F8018C01F6CF2B
:1005F0008D919C9198012E5F3F4F820F931F209108
:10060000AB013091AC012817390769F4309729F410
:100610001092AE011092AD0102C0138212821093AB
:10062000AC010093AB01DF91CF911F910F91089521
:1006300010E0C5E3D0E004C0FE010E94E501219670
:0A064000C633D107C9F7F894FFCFC5
:10064A000000AF012000000000006000650000000B
:06065A00000061006200D7
:00000001FF
