S010000074656D706C6174652E73726563B8
S11300000C948D000C94B5000C94B5000C94B500C0
S11300100C94B5000C94B5000C94B5000C94B50088
S11300200C94B5000C94B5000C94B5000C94B50078
S11300300C94B5000C94B5000C94B5000C94B50068
S11300400C94B5000C94B5000C94E0020C94B5002B
S11300500C94A6020C948D020C94B5000C94B5007B
S11300600C94B5000C94B50007061306130613068A
S113007013061306130613061306130613061306B4
S1130080130613061306130657046C04810496041E
S1130090AB04C00413061306130613061306130653
S11300A01306130613061306130613061306130684
S11300B01306130613061306130613061306130674
S11300C01306130613061306130613061306130664
S11300D01306130613061306130613061306130654
S11300E01306130613061306D30413061306130686
S11300F01306130613061306130613061306130634
S11301001306130613061306130613061306130623
S11301101306240575054F07F20811241FBECFEFFF
S1130120D8E0DEBFCDBF13E0A0E0B1E0ECEDFAE132
S113013002C005900D92A230B107D9F724E0A2E0E5
S1130140B3E001C01D92AD37B207E1F710E0CCE88F
S1130150D0E004C02197FE010E943309CB38D107B7
S1130160C9F70E94F3060C94610D0C9400000895E5
S11301700895E3E3F4E02FE634E0DF0117970D90F0
S1130180BC91A02D9C918081809589238C933A9673
S1130190E217F30791F70895A0E2B4E01296ED9107
S11301A0FC911397908119968C91892780830895E7
S11301B0CF93DF93FC0193898681981709F4ADC02E
S11301C0C0E2D4E063E374E020E030E0838990E0AF
S11301D0022E02C0959587950A94E2F780FF0AC023
S11301E04C855D85DA019C91DB018C91892BDA01C8
S11301F08C930AC04C855D85DA019C91DB018C915E
S113020080958923DA018C932F5F3F4F2A96665F8E
S11302107F4F26303105D1F6838986837EC02489B9
S113022030E0042E02C0359527950A94E2F720FFAA
S113023013C0DA011196AA0FBB1FAE0FBF1F53964E
S11302408D919C915497DA01AA0FBB1FAE0FBF1F6B
S113025018969C938E9317974F5F5F4F46305105C6
S1130260F1F687819085892B79F085B5866085BD07
S11302708781908596958795929582958F70892729
S11302809F70892787BD03C085B5887F85BD81851B
S11302909285892B79F085B5866085BD81859285A7
S11302A096958795929582958F7089279F70892757
S11302B088BD03C085B5887F85BD83859485892BDA
S11302C071F0A1E8B0E08C9182608C938385948571
S11302D0880F991F909389008093880005C0A1E836
S11302E0B0E08C91887F8C9385859685892B71F0FD
S11302F0A1E8B0E08C9182608C9385859685880F07
S1130300991F90938B0080938A0005C0A1E8B0E008
S11303108C91887F8C93158203C040E050E07FCF9E
S1130320DF91CF910895DC01F89490916B049923A7
S113033071F09150E8E6F4E0938381E08093050343
S11303400190F081E02DE90FF11D808103C010922E
S1130350050380E0789490910503992389F09091A6
S11303600203FD01E90FF11D838B9F5F9E3019F09D
S11303709093020308951092020385E015968C93DE
S11303800895FC01809106018823E1F03E9886E4FB
S113039080937C00AAE7B0E08FE88C9310927B00F6
S11303A0109274048C9180648C93909174049923BA
S11303B0E1F3209173048091720490E0922B92A354
S11303C081A31BC03F9887E480937C00AAE7B0E038
S11303D08FE88C9310927B00109274048C9180644B
S11303E08C93909174049923E1F380917304209188
S11303F0720430E0382B34A323A38091060191E0EA
S1130400982790930601158208950E94E80908959B
S11304100E94E8090895EF92FF920F931F93CF93E0
S1130420DF93F894E0917704F09178043097D1F158
S11304302091750430917604232BA1F1082F09959E
S113044010E0E12CF12C1016110614F5CE2DDF2D41
S1130450E0917504F091760409959FEF21EE84E014
S1130460915020408040E1F700C00000E091750405
S1130470F091760409959FEF29E688E19150204098
S11304808040E1F700C000002196C017D10701F7B2
S11304909FEF23ED80E3915020408040E1F700C0BE
S11304A00000D1CF7894DF91CF911F910F91FF90ED
S11304B0EF900895CF93DF93EC01E0916604F091FF
S11304C06704309749F0A281B3818C919185982B70
S11304D09C9388E48093C10080916F04843018F465
S11304E083E00E940B02EDE6F4E0A081B18149A112
S11304F05AA16BA17CA14D935D936D937C9313974B
S1130500138284E084830190F081E02D80818093C4
S1130510C6001D82DF91CF9108951F920F920FB6EE
S11305200F9211248F93F894809178008093720431
S1130530809179008093730481E0809374047894AB
S11305408F910F900FBE0F901F9018951F920F92CE
S11305500FB60F9211248F939F93AF93BF93EF9392
S1130560FF93F894EDE6F4E083818F5F83839481B5
S1130570891750F4E0916D04F0916E04E80FF11DB9
S113058080818093C60010C0E0916604F0916704F6
S1130590309751F0A281B3819C9181858095892304
S11305A08C9380E98093C1007894FF91EF91BF917F
S11305B0AF919F918F910F900FBE0F901F90189540
S11305C01F920F920FB60F9211242F933F934F93C4
S11305D05F936F937F938F939F93AF93BF93EF93A7
S11305E0FF93F89495B180E1892785B9E0ECF0E0B8
S11305F080818F778083E8E6F4E083819281891794
S113060058F49091C600A081B181A80FB11D9C93AC
S113061083818F5F838303C084E00E940B027894FC
S1130620FF91EF91BF91AF919F918F917F916F91C6
S11306305F914F913F912F910F900FBE0F901F909C
S113064018950F931F93CF93DF93AC0100E214E04E
S113065069E274E01BC01296ED91FC9113979881A6
S11306602081292B20832FEF30E782E02150304076
S11306708040E1F700C00000208190959223908390
S11306801A962A9624E0A636B20729F74150510952
S11306901AF0D801EB01DFCFDF91CF911F910F91B9
S11306A008950F931F93CF93DF938A3331F08F33E1
S11306B051F0813209F061C00CC083E080931A01CB
S11306C010921E0363C084E080931A0110921E03EB
S11306D05DC081E080931A0180E6EAE5F1E0AEE1D5
S11306E0B3E001900D928A95E1F7EEE1F3E0019019
S11306F00020E9F73197EF01CE51D3408C2FCC2362
S113070051F1E0916604F0916704309749F0A281B9
S1130710B3812C919185922B9C9398E49093C10082
S113072090916F04981718F483E00E940B020DE671
S113073014E0AE0155276EE173E0D8018D919C91D0
S11307400E94800AF8011382C4830190F081E02D95
S113075080818093C600EDE6F4E0F894938184816F
S113076078949817D0F38AE7EAEBF1E0AEE1B3E0CE
S113077001900D928A95E1F709C08EE0E4E3F2E07E
S1130780AEE1B3E001900D928A95E1F7EEE1F3E07A
S113079001900020E9F73197EF01CE51D3408C2F1F
S11307A0CC2351F1E0916604F0916704309749F04D
S11307B0A281B3812C919185922B9C9398E4909380
S11307C0C10090916F04981718F483E00E940B0203
S11307D00DE614E0AE0155276EE173E0D8018D916A
S11307E09C910E94800AF8011382C4830190F081D5
S11307F0E02D80818093C600DF91CF911F910F91EE
S11308000895FC0186E08583F89490916B04992304
S113081081F09150A8E6B4E013969C93139781E07D
S1130820809305030D90BC91A02DA90FB11D8C914F
S113083003C01092050380E07894909105039923F6
S1130840F1F020910303309104032430310539F48D
S11308500E94510310920403109203030895E20FBF
S1130860F31F9081981307C02F5F3F4F3093040309
S11308702093030308951092040310920303089530
S11308808F929F92AF92BF92CF92DF92EF92FF929C
S11308900F931F93CF93DF9390E0FC01B197E7355B
S11308A0F10508F0C0C1EC5CFF4F0C943309A0E2E1
S11308B0B4E01C96ED91FC911D97908153968C9118
S11308C08927808383E1E2E4F2E0AEE1B3E00190C2
S11308D00D928A95E1F7B0C1A0E2B4E05696ED918D
S11308E0FC91579790815D968C918927808383E151
S11308F0E5E5F2E0AEE1B3E001900D928A95E1F70F
S11309009BC1A0E2B4E09096ED91FC919197908107
S113091097968C918927808383E1E8E6F2E0AEE143
S1130920B3E001900D928A95E1F786C1A0E2B4E0AC
S11309309A96ED91FC919B979081D1968C91892701
S1130940808383E1EBE7F2E0AEE1B3E001900D9246
S11309508A95E1F771C1A0E2B4E0D496ED91FC91DF
S1130960D5979081DB968C918927808383E1EEE88B
S1130970F2E0AEE1B3E001900D928A95E1F75CC13B
S1130980E0915E04F0915F04908180916504892771
S1130990808383E1E1EAF2E0AEE1B3E001900D92FD
S11309A08A95E1F749C13E9886E480937C00EAE7A2
S11309B0F0E08FE8808310927B00109274048081B1
S11309C080648083809174048823E1F380917304AC
S11309D02091720430E0382B30931D0320931C03C4
S11309E0A0E4B6E00E9439096B017C019B01AC01D3
S11309F044275527A4E6B0E00E94480990931303C6
S1130A0080931203C701AA27BB27809314039093F2
S1130A101503209113032F93209112032F939F9377
S1130A208F9384EB92E09F938F938EE193E09F9357
S1130A308F930E94890A8DB79EB708960FB6F894D3
S1130A409EBF0FBE8DBFF8C03F9887E480937C00A3
S1130A50EAE7F0E08FE8808310927B001092740440
S1130A60808180648083809174048823E1F3809181
S1130A7073042091720430E0382B309317032093D1
S1130A801603A0E4B6E00E9439096B017C019B01C6
S1130A90AC0144275527A4E6B0E00E94480990938E
S1130AA0190380931803C701AA27BB2780931A034D
S1130AB090931B03209119032F93209118032F93D4
S1130AC09F938F9383EC92E09F938F938EE193E0B7
S1130AD09F938F930E94890AADB7BEB718960FB63D
S1130AE0F894BEBF0FBEADBFA7C03E9886E4809306
S1130AF07C00EAE7F0E08FE8808310927B0010929C
S1130B007404808180648083809174048823E1F379
S1130B10209173048091720490E0922B90931D03B2
S1130B2080931C033F9887E480937C00EAE7F0E01D
S1130B308FE8808310927B0010927404808180641B
S1130B408083809174048823E1F38091730420915D
S1130B50720430E0382B3093170320931603A091CE
S1130B601C03B0911D030E9439094B015C01609381
S1130B700E0370930F038093100390931103A7E265
S1130B80B0E09B01AC010E9448096C01EE24FF24F3
S1130B90C0920A03D0920B03E0920C03F0920D036F
S1130BA0A0E9B6E0A70196010E9448099B01AC01A7
S1130BB0C501B4010E9411099B01AC01ADE3BFE082
S1130BC00E944809AA27BB27809306039093070332
S1130BD0A0930803B0930903BF93AF939F938F939C
S1130BE0FF92EF92DF92CF9282ED92E09F938F93E8
S1130BF08EE193E09F938F930E94890AEDB7FEB72D
S1130C003C960FB6F894FEBF0FBEEDBF15C0109210
S1130C101A018FE0E3EEF2E0AEE1B3E001900D9251
S1130C208A95E1F709C08EE0E4E3F2E0AEE1B3E0D7
S1130C3001900D928A95E1F7EEE1F3E00190002036
S1130C40E9F73197EF01CE51D3408C2FCC2351F1EA
S1130C50E0916604F0916704309749F0A281B38172
S1130C602C919185922B9C9398E49093C100909140
S1130C706F04981718F483E00E940B020DE614E049
S1130C80AE0155276EE173E0D8018D919C910E94CD
S1130C90800AF8011382C4830190F081E02D8081E1
S1130CA08093C600DF91CF911F910F91FF90EF9039
S1130CB0DF90CF90BF90AF909F908F900895F8945D
S1130CC080916B04882371F08150E8E6F4E083831B
S1130CD091E0909305030190F081E02DE80FF11D60
S1130CE0808103C01092050380E0789490910503FD
S1130CF091110E94400408958F929F92AF92BF92E7
S1130D00CF92DF92EF92FF920F931F93CF93DF93D3
S1130D10CDB7DEB7A0970FB6F894DEBF0FBECDBF38
S1130D205C0180E2EAE3F1E0DE01119601900D92AC
S1130D308A95E1F7CE0101967C016E0191E2C90E1C
S1130D40D11C812C912C00E214E0C5010E945F06A5
S1130D50282D392DD7018C9190E0281739075CF4A0
S1130D60D8011C96ED91FC911D97908153968C911E
S1130D70892B80830BC0D8011C96ED91FC911D97A3
S1130D80908153968C91809589238083EFE3FCE9CD
S1130D903197F1F700C000002F5F3F4F2A30310533
S1130DA0C9F6FFEF2AE683E0F15020408040E1F7E6
S1130DB000C000009FEFE91AF90AEC14FD0429F6BB
S1130DC0A0960FB6F894DEBF0FBECDBFDF91CF91D2
S1130DD01F910F91FF90EF90DF90CF90BF90AF9055
S1130DE09F908F90089589EB90E09093780480937E
S1130DF077048CEC90E0909376048093750482E001
S1130E0090E00E94210383EA84BD15BC92EA90938A
S1130E10800098E1909381008093B0001092B1001B
S1130E2080E49CE9909387008093860088EB9BE0A4
S1130E30909389008093880090938B0080938A001C
S1130E408EE58093B3008093B40086E194E09093A0
S1130E506704809366041092C50080E18093C40007
S1130E6082E08093C00088ED8093C10086E0809387
S1130E70C20010927404EAE7F0E080818064808309
S1130E807894C5E1D1E0ED81F0E0EE0FFF1FE95F5A
S1130E90FE4F0190F081E02DCE010995F4CF2F9201
S1130EA03F924F925F926F927F928F929F92AF92F6
S1130EB0BF92CF92DF92EF92FF920F931F93CF9343
S1130EC0DF93CDE6D4E000E80A831B821C8280E82D
S1130ED090E00E94530999838883C8E6D4E068941B
S1130EE0CC24C6F8CA821B821C8280E490E00E9453
S1130EF0530999838883E0E2F4E0A5E2B0E0B38388
S1130F00A2830F2EF4E2AF2EB12CF02DB582A48271
S1130F100F2EF3E28F2E912CF02D9782868210866D
S1130F20D1E0D18786EF92E0918380832898209A3C
S1130F300F2EF8E24F2E512CF02D558644860F2E9D
S1130F40F7E22F2E312CF02D378626860F2EF6E26F
S1130F506F2E712CF02D718A608A0F2EF3E0EF2E24
S1130F60F02DE28A6894FF24F3F8F38A938782874A
S1130F7043983B9A6BE270E0778B668B4AE250E0D1
S1130F80518F408F29E230E0338F228FC2E0C48F2B
S1130F9014E0158F958B848B5A98529A71A360A391
S1130FA053A342A335A324A316A36894DD24D4F841
S1130FB0D7A2978F868F5C98549A53A642A635A6DB
S1130FC024A677A666A610AAD1AB91A780A74098BD
S1130FD0389A55AA44AA37AA26AA71AE60AED2AFEF
S1130FE0C3AF93AB82AB4198399A50925F0440925D
S1130FF05E043092610420926004709263046092F3
S11310006204C09364041093650495AF84AF42985E
S11310103A9AE6E1F4E07383628355834483378329
S113102026830F2EF7E0CF2EF02DC0860187918303
S113103080835F98579AECE0F4E07383628355836E
S11310404483378326831086D1870F2EFEEFCF2E5D
S1131050F2E0DF2EF02DD182C0825098E2E0F4E07D
S1131060738362835583448337832683D087C18700
S1131070918380835998519AE8EFF3E0B383A28374
S1131080B582A482978286820F2EF5E0DF2EF02DA2
S1131090D08600E20187918380832D98259AEEEE15
S11310A0F3E0B383A283B582A482978286821087F9
S11310B06894CC24C4F8C186918380832C98249AA4
S11310C0E4EEF3E0B383A283B582A482978286829E
S11310D0E086F186918380832B98239AEAEDF3E0EE
S11310E07383628355834483378326830F2EF6E00C
S11310F0DF2EF02DD0866894CC24C6F8C186918367
S113110080835E98569AE0EDF3E07383628355839F
S11311104483378326830F2EF5E0CF2EF02DC0862F
S11311200187918380835D98559AE6ECF3E0B3835D
S1131130A283B582A48297828682D087C187918355
S113114080832998219AECEBF3E0B383A283B582E0
S1131150A48297828682C0871187918380832A988C
S1131160229AE2EBF3E0B383A283B582A48297824E
S11311708682E086F186918380832B98239AE8EA1D
S1131180F3E0738362835583448337832683E08645
S1131190F186918380835B98539AEEE9F3E053825E
S11311A042823582248277826682D0866894DD24E6
S11311B0D6F8D1868EEF92E0918380833E98DF91BA
S11311C0CF911F910F91FF90EF90DF90CF90BF9040
S11311D0AF909F908F907F906F905F904F903F90D3
S11311E02F900895CF93DF93C6E6D4E02A97E88141
S11311F0F9810190F081E02DCE01099584E0C0329F
S1131200D807A1F780916804909169040E94E809C5
S113121080916D0490916E040E94E809DF91CF9152
S11312200895A1E21A2EAA1BBB1BFD010DC0AA1F23
S1131230BB1FEE1FFF1FA217B307E407F50720F03B
S1131240A21BB30BE40BF50B661F771F881F991FB6
S11312501A9469F760957095809590959B01AC01FF
S1131260BD01CF010895EE0FFF1F0590F491E02D0D
S11312700994A29FB001B39FC001A39F700D811D6B
S11312801124911DB29F700D811D1124911D08958B
S11312900E943909A59F900DB49F900DA49F800DC5
S11312A0911D11240895CF93DF938230910510F49A
S11312B082E090E0E0917B04F0917C0420E030E057
S11312C0C0E0D0E0309711F14081518148175907AF
S11312D0C0F04817590761F482819381209719F06F
S11312E09B838A832BC090937C0480937B0426C0C9
S11312F02115310519F04217530718F49A01BE015C
S1131300DF01EF010280F381E02DDCCF21153105EF
S113131009F1281B390B2430310590F412968D9174
S11313209C9113976115710521F0FB0193838283CE
S113133004C090937C0480937B04FD01329644C0E6
S1131340FD01E20FF31F81939193225031092D93F4
S11313503C933AC02091790430917A04232B41F4D0
S1131360209102013091030130937A04209379048F
S113137020910001309101012115310541F42DB76F
S11313803EB74091040150910501241B350BE091B7
S11313907904F0917A04E217F307A0F42E1B3F0BB3
S11313A02817390778F0AC014E5F5F4F24173507D3
S11313B048F04E0F5F1F50937A0440937904819351
S11313C0919302C0E0E0F0E0CF01DF91CF91089566
S11313D00F931F93CF93DF93009709F48CC0FC0104
S11313E032971382128200917B0410917C040115C0
S11313F0110581F420813181820F931F209179049A
S113140030917A042817390779F5F0937A04E09338
S1131410790471C0D80140E050E0AE17BF0750F422
S113142012962D913C911397AD012115310509F1C7
S1131430D901F3CF9D01DA01338322836081718165
S1131440860F971F8217930769F4EC01288139816D
S1131450260F371F2E5F3F4F318320838A819B8164
S113146093838283452B29F4F0937C04E0937B04DB
S113147042C01396FC93EE931297ED014991599152
S11314809E01240F351FE217F30771F480819181C7
S1131490840F951F029611969C938E93828193815B
S11314A013969C938E931297E0E0F0E0D801129685
S11314B08D919C911397009719F0F8018C01F6CF48
S11314C08D919C9198012E5F3F4F820F931F209125
S11314D0790430917A042817390769F4309729F48C
S11314E010927C0410927B0402C013821282109327
S11314F07A0400937904DF91CF911F910F9108959D
S1131500FB01DC0102C001900D9241505040D8F71C
S11315100895AEE0B0E0EFE8FAE00C94380D0D89E0
S11315201E8986E08C831A8309838FEF9FE79E834D
S11315308D83AE01475E5F4F6F89788DCE01019632
S11315400E94AC0A2F813885F801E20FF31F108244
S11315502E96E4E00C94540DACE0B0E0E2EBFAE03B
S11315600C942A0D7C016B018A01FC0117821682FE
S1131570838181FFBDC1CE0101964C01F7019381A6
S1131580F60193FD859193FF81916F01882309F4FE
S1131590ABC1853239F493FD859193FF81916F013D
S11315A0853229F4B70190E00E94940CE7CF512CC6
S11315B0312C20E02032A0F48B3269F030F48032F8
S11315C059F0833269F420612CC08D3239F08033B4
S11315D039F4216026C02260246023C0286021C021
S11315E027FD27C030ED380F3A3078F426FF06C0C7
S11315F0FAE05F9E300D1124532E13C08AE0389E0A
S1131600300D1124332E20620CC08E3221F426FDBD
S11316106BC1206406C08C3611F4206802C0883681
S113162041F4F60193FD859193FF81916F0181113E
S1131630C1CF982F9F7D9554933028F40C5F1F4F92
S1131640FFE3F9830DC0833631F0833771F08335BE
S113165009F05BC022C0F801808189830E5F1F4FAF
S113166044244394512C540115C03801F2E06F0E08
S1131670711CF801A080B18026FF03C0652D70E0C5
S113168002C06FEF7FEFC5012C870E94890C2C01EB
S113169083012C852F77222E17C03801F2E06F0EBC
S11316A0711CF801A080B18026FF03C0652D70E095
S11316B002C06FEF7FEFC5012C870E947E0C2C01C6
S11316C02C852068222E830123FC1BC0832D90E0EF
S11316D048165906B0F4B70180E290E00E94940CD9
S11316E03A94F4CFF50127FC859127FE81915F019F
S11316F0B70190E00E94940C31103A94F1E04F1A33
S113170051084114510471F7E5C0843611F089364B
S113171039F5F80127FF07C06081718182819381C7
S11317200C5F1F4F08C060817181072E000C880B6D
S1131730990B0E5F1F4F2F76722E97FF09C090955D
S11317408095709561957F4F8F4F9F4F2068722EC3
S11317502AE030E0A4010E94CC0CA82EA81844C0B2
S1131760853729F42F7EB22E2AE030E025C0F22FEF
S1131770F97FBF2E8F36C1F018F4883579F0B4C0E4
S1131780803719F0883721F0AFC02F2F2061B22E97
S1131790B4FE0DC08B2D8460B82E09C024FF0AC08E
S11317A09F2F9660B92E06C028E030E005C020E1E6
S11317B030E002C020E132E0F801B7FE07C06081EA
S11317C07181828193810C5F1F4F06C0608171819A
S11317D080E090E00E5F1F4FA4010E94CC0CA82E65
S11317E0A818FB2DFF777F2E76FE0BC0372D3E7F8A
S11317F0A51450F474FE0AC072FC08C0372D3E7E56
S113180005C0BA2C372D03C0BA2C01C0B52C34FF47
S11318100DC0FE01EA0DF11D8081803311F4397E83
S113182009C032FF06C0B394B39404C0832F8678F2
S113183009F0B39433FD13C030FF06C05A2CB3141F
S113184018F4530C5B18B32CB31468F4B70180E29A
S113185090E03C870E94940CB3943C85F5CFB3147C
S113186010F43B1801C0312C34FF12C0B70180E3DF
S113187090E03C870E94940C3C8532FF17C031FDF8
S113188003C088E790E002C088E590E0B7010CC08F
S1131890832F867859F031FF02C08BE201C080E2C9
S11318A037FD8DE2B70190E00E94940CA51438F442
S11318B0B70180E390E00E94940C5A94F7CFAA9465
S11318C0F401EA0DF11D8081B70190E00E94940CAF
S11318D0A110F5CF332009F451CEB70180E290E096
S11318E00E94940C3A94F6CFF7018681978102C046
S11318F08FEF9FEF2C96E2E10C94460DFC010590CE
S1131900615070400110D8F7809590958E0F9F1FFD
S11319100895FC016150704001900110D8F7809542
S113192090958E0F9F1F08950F931F93CF93DF936E
S1131930FB01238121FD03C08FEF9FEF28C022FF0D
S113194016C046815781248135814217530744F4D8
S1131950A081B1819D012F5F3F4F318320838C9300
S1131960268137812F5F3F4F3783268310C0EB01D9
S1131970092F182F0084F185E02D0995892BE1F6B4
S11319808E819F8101969F838E83812F902FDF917B
S1131990CF911F910F910895FA01AA27283051F190
S11319A0203181F1E8946F936E7F6E5F7F4F8F4F8C
S11319B09F4FAF4FB1E03ED0B4E03CD0670F781FEB
S11319C0891F9A1FA11D680F791F8A1F911DA11DD0
S11319D06A0F711D811D911DA11D20D009F4689409
S11319E03F912AE0269F11243019305D3193DEF6B1
S11319F0CF010895462F4770405D4193B3E00FD067
S1131A00C9F7F6CF462F4F70405D4A3318F0495D51
S1131A1031FD4052419302D0A9F7EACFB4E0A69534
S1131A209795879577956795BA95C9F70097610556
S1131A30710508959B01AC010A2E069457954795AC
S1131A4037952795BA95C9F7620F731F841F951FA1
S1131A50A01D08952F923F924F925F926F927F92B2
S1131A608F929F92AF92BF92CF92DF92EF92FF92AA
S1131A700F931F93CF93DF93CDB7DEB7CA1BDB0B56
S1131A800FB6F894DEBF0FBECDBF09942A883988FB
S1131A9048885F846E847D848C849B84AA84B98402
S1131AA0C884DF80EE80FD800C811B81AA81B9810E
S1131AB0CE0FD11D0FB6F894DEBF0FBECDBFED0122
S1131AC0089510E0CCE8D0E004C0FE010E94330980
S10F1AD02196CD38D107C9F7F894FFCF58
S1131ADC00007D0420000101045F067C0693015A7A
S1131AEC02D800C1014070647500050000000000BC
S1131AFC00000000000000003F0000000000000097
S1131B0C0000000000005500550002030203080306
S1131B1C0203020302030803020302030203080381
S1131B2C020302030203080008000D0A496D6D65E7
S1131B3C6469617465206D6F6465206F6E0D0A2D88
S1131B4C2D2D2D2D2D2D2D2D2D2D2D2D2D2D0D0AF8
S1131B5C56616C696420636F6D6D616E64733A0DCC
S1131B6C0A2D2D2D2D2D2D2D2D2D2D2D2D2D2D2DB8
S1131B7C0D0A5B312D365D3A20746F67676C6520F6
S1131B8C656E61626C65730D0A005B615D20203AC1
S1131B9C207072696E742063757272656E740D0AAE
S1131BAC5B765D20203A207072696E7420766F6CBF
S1131BBC746167650D0A5B775D20203A2070726949
S1131BCC6E7420706F7765720D0A5B215D20203A6C
S1131BDC206578697420696D6D656469617465202C
S1131BEC6D6F64650D0A5B735D20203A207365721A
S1131BFC766F20746573742028756E696D706C2E05
S1131C0C290D0A0042616420636F6D6D616E640D71
S1131C1C0A00456E61626C65203120746F67676CD5
S1131C2C65640D0A00456E61626C65203220746F28
S1131C3C67676C65640D0A00456E61626C652033E0
S1131C4C20746F67676C65640D0A00456E61626C85
S1131C5C65203420746F67676C65640D0A00456EEB
S1131C6C61626C65203520746F67676C65640D0A5E
S1131C7C00456E61626C65203620746F67676C6515
S1131C8C640D0A002532752E253032752041202032
S1131C9C0D0A002532752E25303275205620200D64
S1131CAC0A0025326C752E2530326C752057202095
S1131CBC0D0A0049646C65206D6F6465206F6E0DB0
S1131CCC0A0000000000B700080200000000B80081
S1051CDC0502FB
S9030000FC
