S010000074656D706C6174652E73726563B8
S11300000C948D000C94B5000C94B5000C94B500C0
S11300100C94B5000C94B5000C94B5000C94B50088
S11300200C94B5000C94B5000C94B5000C94B50078
S11300300C94B5000C94B5000C94B5000C94B50068
S11300400C94B5000C94B5000C94F3020C94B50018
S11300500C94B9020C94A0020C94B5000C94B50055
S11300600C94B5000C94B500FB050B060B060B06AF
S11300700B060B060B060B060B060B060B060B06F4
S11300800B060B060B060B064B04600475048A046E
S11300909F04B4040B060B060B060B060B060B069B
S11300A00B060B060B060B060B060B060B060B06C4
S11300B00B060B060B060B060B060B060B060B06B4
S11300C00B060B060B060B060B060B060B060B06A4
S11300D00B060B060B060B060B060B060B060B0694
S11300E00B060B060B060B06C7040B060B060B06CA
S11300F00B060B060B060B060B060B060B060B0674
S11301000B060B060B060B060B060B060B060B0663
S11301100B0618056905D106740811241FBECFEF1C
S1130120D8E0DEBFCDBF12E0A0E0B1E0E0EEF9E13F
S113013002C005900D92A43DB107D9F724E0A4EDC7
S1130140B2E001C01D92A235B207E1F710E0CCE89D
S1130150D0E004C02197FE010E94B508CB38D10736
S1130160C9F70E9479060C94E30C0C9400000895DE
S11301700895E8E0F4E024E434E0DF0117970D90FB
S1130180BC91A02D9C918081809589238C933A9673
S1130190E217F30791F70895A5EFB3E01296ED91F6
S11301A0FC911397908119968C91892780830895E7
S11301B0CF93DF93FC0192898581981709F4ABC032
S11301C0C5EFD3E068E074E080E090E0228930E09D
S11301D0082E02C0359527950A94E2F720FF0AC03D
S11301E04C855D85DA013C91DB012C91232BDA01EE
S11301F02C930AC04C855D85DA013C91DB012C917E
S113020020952323DA012C9301962A96665F7F4F6B
S113021086309105D9F6828985837DC0238930E0B3
S1130220042E02C0359527950A94E2F720FF0DC0ED
S1130230DA01AA0FBB1FAE0FBF1F54968D919C917C
S1130240559717969C938E9316974F5F5F4F463042
S1130250510521F786819781892B79F085B58660D0
S113026085BD8681978196958795929582958F70A5
S113027089279F70892787BD03C085B5887F85BD81
S113028080859185892B79F085B5866085BD8085CB
S1130290918596958795929582958F7089279F7001
S11302A0892788BD03C085B5887F85BD82859385F0
S11302B0892B71F0A1E8B0E08C9182608C938285E7
S11302C09385880F991F909389008093880005C0B7
S11302D0A1E8B0E08C91887F8C9384859585892BE7
S11302E071F0A1E8B0E08C9182608C93848595854F
S11302F0880F991F90938B0080938A0005C0E1E8D2
S1130300F0E08081887F80838DEE93E09093D80223
S11303108093D70203C040E050E080CFDF91CF91BB
S113032008959C01F89490914004992371F09150A0
S1130330EDE3F4E0938381E08093DA020190F081AD
S1130340E02DE90FF11D808103C01092DA0280E0F4
S11303508093D90278948091DA028823B1F0909145
S1130360D4028091D902F901E90FF11D828B9F5FBC
S11303709E3019F09093D40208951092D40288ED1F
S113038090E09093D8028093D7020895DC01809185
S113039006018823F1F03E9886E480937C00EAE726
S11303A0F0E08FE8808310927B00109249048081F2
S11303B080648083909149049923E1F380914804F7
S11303C02091470430E0382B91963C932E939097DC
S11303D01DC03F9887E480937C00EAE7F0E08FE853
S11303E0808310927B0010924904908190649083E2
S11303F0909149049923E1F38091480420914704A2
S113040030E0382B93963C932E939297909106016B
S113041081E08927809306018DEE93E09093D802C2
S11304208093D70208950E946A0908950E946A0978
S11304300895EF92FF920F931F93CF93DF93F89455
S1130440E0914C04F0914D043097D1F120914A048D
S113045030914B04232BA1F1082F099510E0E12CD6
S1130460F12C1016110614F5CE2DDF2DE0914A045F
S1130470F0914B0409959FEF21EE84E091502040C8
S11304808040E1F700C00000E0914A04F0914B0481
S113049009959FEF29E688E1915020408040E1F7DB
S11304A000C000002196C017D10701F79FEF23ED8C
S11304B080E3915020408040E1F700C00000D1CF9C
S11304C07894DF91CF911F910F91FF90EF90089551
S11304D0CF93DF93EC01E0913B04F0913C0430971F
S11304E049F0A281B3818C919185982B9C9388E4E7
S11304F08093C10080914404843018F483E00E9406
S11305001902E2E4F4E0A081B18148A159A16AA1F1
S11305107BA14D935D936D937C931397138284E039
S113052084830190F081E02D80818093C6008DEE5C
S113053093E09093D8028093D702DF91CF910895EE
S11305401F920F920FB60F9211248F93F8948091FB
S1130550780080934704809179008093480481E077
S11305608093490478948F910F900FBE0F901F9041
S113057018951F920F920FB60F9211248F939F9389
S1130580AF93BF93EF93FF93F894E2E4F4E0838195
S11305908F5F83839481891750F4E0914204F09132
S11305A04304E80FF11D80818093C60010C0E091E0
S11305B03B04F0913C04309751F0A281B3819C91AB
S11305C08185809589238C9380E98093C1007894F8
S11305D0FF91EF91BF91AF919F918F910F900FBEBB
S11305E00F901F9018951F920F920FB60F9211241F
S11305F02F933F934F935F936F937F938F939F9327
S1130600AF93BF93EF93FF93F89495B180E189275B
S113061085B9E0ECF0E080818F778083EDE3F4E04E
S113062083819281891758F49091C600A081B18189
S1130630A80FB11D9C9383818F5F838303C084E0E3
S11306400E9419027894FF91EF91BF91AF919F910D
S11306508F917F916F915F914F913F912F910F9067
S11306600FBE0F901F9018950F931F93CF93DF9396
S11306708A3331F08F3369F0813209F06AC012C0D5
S113068081E991E09093D8028093D7021092F3020B
S113069069C088E692E09093D8028093D7021092C2
S11306A0F30260C087E596E09093D8028093D70266
S11306B080E6EBE2F1E0A3EFB2E001900D928A95BF
S11306C0E1F7E3EFF2E001900020E9F73197EF0161
S11306D0C35FD2408C2FCC2351F1E0913B04F091C5
S11306E03C04309749F0A281B3812C919185922BDF
S11306F09C9398E49093C10090914404981718F443
S113070083E00E94190202E414E0AE01552763EF6E
S113071072E0D8018D919C910E94020AF801138223
S1130720C4830190F081E02D80818093C600E2E4CF
S1130730F4E0F8949381848178949817D0F38AE74D
S1130740EBE8F1E0A3EFB2E001900D928A95E1F7B6
S113075009C08EE0E5E0F2E0A3EFB2E001900D9273
S11307608A95E1F7E3EFF2E001900020E9F7319791
S1130770EF01C35FD2408C2FCC2351F1E0913B04B5
S1130780F0913C04309749F0A281B3812C9191857A
S1130790922B9C9398E49093C100909144049817F1
S11307A018F483E00E94190202E414E0AE01552714
S11307B063EF72E0D8018D919C910E94020AF801C6
S11307C01382C4830190F081E02D80818093C60060
S11307D0DF91CF911F910F9108959C01F89490910E
S11307E04004992371F09150EDE3F4E0938381E0A8
S11307F08093DA020190F081E02DE90FF11D8081F0
S113080003C01092DA0280E08093D902789486ECD7
S113081091E09093D8028093D7028091DA028823E2
S113082011F18091D5029091D6028430910549F45A
S11308308091D9020E9434031092D6021092D502FC
S11308400895F901E80FF91F30812091D90232137C
S113085006C001969093D6028093D5020895109213
S1130860D6021092D50208958F929F92AF92BF92B2
S1130870CF92DF92EF92FF920F931F93CF93DF9368
S113088090E0FC01B197E735F10508F0C4C1EC5CD8
S1130890FF4F0C94B508A5EFB3E01C96ED91FC91C5
S11308A01D97908153968C918927808383E1E3E19E
S11308B0F2E0A3EFB2E001900D928A95E1F7B4C1A2
S11308C0A5EFB3E05696ED91FC91579790815D9614
S11308D08C918927808383E1E6E2F2E0A3EFB2E022
S11308E001900D928A95E1F79FC1A5EFB3E0909630
S11308F0ED91FC919197908197968C9189278083B3
S113090083E1E9E3F2E0A3EFB2E001900D928A956E
S1130910E1F78AC1A5EFB3E09A96ED91FC919B971C
S11309209081D1968C918927808383E1ECE4F2E075
S1130930A3EFB2E001900D928A95E1F775C1A5EF9E
S1130940B3E0D496ED91FC91D5979081DB968C9190
S11309508927808383E1EFE5F2E0A3EFB2E0019021
S11309600D928A95E1F760C1E0913304F09134046B
S1130970908180913A048927808383E1E2E7F2E061
S1130980A3EFB2E001900D928A95E1F74DC13E9834
S113099086E480937C00EAE7F0E08FE8808310929D
S11309A07B00109249048081806480838091490493
S11309B08823E1F3809148042091470430E0382BE8
S11309C03093F2022093F102A0E4B6E00E94BB0847
S11309D06B017C019B01AC0144275527A4E6B0E0E0
S11309E00E94CA089093E8028093E702C701AA27ED
S11309F0BB278093E9029093EA022091E8022F93A7
S1130A002091E7022F939F938F9385E892E09F9321
S1130A108F9383EF92E09F938F930E940B0A8DB77D
S1130A209EB708960FB6F8949EBF0FBE8DBFFCC04C
S1130A303F9887E480937C00EAE7F0E08FE88083C6
S1130A4010927B001092490480818064808380919D
S1130A5049048823E1F3809148042091470430E05D
S1130A60382B3093EC022093EB02A0E4B6E00E9412
S1130A70BB086B017C019B01AC0144275527A4E60C
S1130A80B0E00E94CA089093EE028093ED02C70181
S1130A90AA27BB278093EF029093F0022091EE02E5
S1130AA02F932091ED022F939F938F9384E992E0EB
S1130AB09F938F9383EF92E09F938F930E940B0AEF
S1130AC0ADB7BEB718960FB6F894BEBF0FBEADBF94
S1130AD0ABC03E9886E480937C00EAE7F0E08FE8C0
S1130AE0808310927B00109249048081806480830B
S1130AF0809149048823E1F32091480480914704BC
S1130B0090E0922B9093F2028093F1023F9887E455
S1130B1080937C00EAE7F0E08FE8808310927B000A
S1130B2010924904808180648083809149048823E1
S1130B30E1F3809148042091470430E0382B30934E
S1130B40EC022093EB02A091F102B091F2020E9418
S1130B50BB084B015C016093E3027093E402809351
S1130B60E5029093E602A7E2B0E09B01AC010E948B
S1130B70CA086C01EE24FF24C092DF02D092E00286
S1130B80E092E102F092E202A0E9B6E0A701960148
S1130B900E94CA089B01AC01C501B4010E949308DC
S1130BA09B01AC01ADE3BFE00E94CA08AA27BB27A2
S1130BB08093DB029093DC02A093DD02B093DE020B
S1130BC0BF93AF939F938F93FF92EF92DF92CF9255
S1130BD083EA92E09F938F9383EF92E09F938F93A6
S1130BE00E940B0AEDB7FEB73C960FB6F894FEBF11
S1130BF00FBEEDBF19C08DEE93E09093D8028093A1
S1130C00D7028FE0E4EBF2E0A3EFB2E001900D92A3
S1130C108A95E1F709C08EE0E5E0F2E0A3EFB2E0E7
S1130C2001900D928A95E1F7E3EFF2E00190002044
S1130C30E9F73197EF01C35FD2408C2FCC2351F1F8
S1130C40E0913B04F0913C04309749F0A281B381D8
S1130C502C919185922B9C9398E49093C100909150
S1130C604404981718F483E00E94190202E414E083
S1130C70AE01552763EF72E0D8018D919C910E94DB
S1130C80020AF8011382C4830190F081E02D80816F
S1130C908093C600DF91CF911F910F91FF90EF9049
S1130CA0DF90CF90BF90AF909F908F900895F8946D
S1130CB080914004882371F08150EDE3F4E0838354
S1130CC091E09093DA020190F081E02DE80FF11D9C
S1130CD0808103C01092DA0280E08093D902789474
S1130CE08091DA02882321F08091D9020E94340491
S1130CF0089589EB90E090934D0480934C048CEC20
S1130D0090E090934B0480934A0488ED90E0909394
S1130D10D8028093D70283EA84BD15BC92EA9093EB
S1130D20800098E1909381008093B0001092B1000C
S1130D3080E49CE9909387008093860088EB9BE095
S1130D40909389008093880090938B0080938A000D
S1130D508EE58093B3008093B4008BEE93E0909380
S1130D603C0480933B041092C50080E18093C4004E
S1130D7082E08093C00088ED8093C10086E0809378
S1130D80C20010924904EAE7F0E080818064808325
S1130D907894E091D702F091D80287E091E0099528
S1130DA0F8CF2F923F924F925F926F927F928F92E1
S1130DB09F92AF92BF92CF92DF92EF92FF920F93E6
S1130DC01F93CF93DF93C2E4D4E000E80A831B822D
S1130DD01C8280E890E00E94D50899838883CDE343
S1130DE0D4E06894CC24C6F8CA821B821C8280E4B6
S1130DF090E00E94D50899838883E5EFF3E0A5E2AB
S1130E00B0E0B383A2830F2EF4E2AF2EB12CF02D09
S1130E10B582A4820F2EF3E28F2E912CF02D9782AF
S1130E2086821086D1E0D18787EC92E0918380831B
S1130E302898209A0F2EF8E24F2E512CF02D55862B
S1130E4044860F2EF7E22F2E312CF02D378626867E
S1130E500F2EF6E26F2E712CF02D718A608A0F2E00
S1130E60F3E0EF2EF02DE28A6894FF24F3F8F38A7E
S1130E709387828743983B9A6BE270E0778B668B0B
S1130E804AE250E0518F408F29E230E0338F228FC5
S1130E90C2E0C48F14E0158F958B848B5A98529AB4
S1130EA071A360A353A342A335A324A316A36894F8
S1130EB0DD24D4F8D7A2978F868F5C98549A53A6D2
S1130EC042A635A624A677A666A610AAD1AB91A7FA
S1130ED080A74098389A55AA44AA37AA26AA71AE80
S1130EE060AED2AFC3AF93AB82AB4198399A509204
S1130EF034044092330430923604209235047092C4
S1130F00380460923704C093390410933A0495AFBF
S1130F1084AF42983A9AEBEEF3E07383628355838D
S1130F204483378326830F2EF7E0CF2EF02DC0861F
S1130F300187918380835F98579AE1EEF3E073838E
S1130F40628355834483378326831086D1870F2E8B
S1130F50FFECCF2EF2E0DF2EF02DD182C08250982C
S1130F60E7EDF3E0738362835583448337832683F9
S1130F70D087C187918380835998519AEDECF3E02F
S1130F80B383A283B582A482978286820F2EF5E072
S1130F90DF2EF02DD08600E20187918380832D9887
S1130FA0259AE3ECF3E0B383A283B582A48297820B
S1130FB0868210876894CC24C4F8C1869183808388
S1130FC02C98249AE9EBF3E0B383A283B582A4823C
S1130FD097828682E086F186918380832B98239A78
S1130FE0EFEAF3E073836283558344833783268374
S1130FF00F2EF6E0DF2EF02DD0866894CC24C6F8B0
S1131000C186918380835E98569AE5EAF3E0738300
S1131010628355834483378326830F2EF5E0CF2ED6
S1131020F02DC0860187918380835D98559AEBE902
S1131030F3E0B383A283B582A48297828682D087A9
S1131040C187918380832998219AE1E9F3E0B383EE
S1131050A283B582A48297828682C08711879183F6
S113106080832A98229AE7E8F3E0B383A283B582C7
S1131070A48297828682E086F186918380832B986E
S1131080239AEDE7F3E073836283558344833783C4
S11310902683E086F186918380835B98539AE3E705
S11310A0F3E0538242823582248277826682D0863C
S11310B06894DD24D6F8D1868FEC92E09183808306
S11310C03E98DF91CF911F910F91FF90EF90DF90A9
S11310D0CF90BF90AF909F908F907F906F905F90D4
S11310E04F903F902F900895CF93DF93CBE3D4E0BC
S11310F02A97E881F9810190F081E02DCE010995CC
S113110083E0C53FD807A1F780913D0490913E0448
S11311100E946A0980914204909143040E946A09E2
S1131120DF91CF910895A1E21A2EAA1BBB1BFD01EA
S11311300DC0AA1FBB1FEE1FFF1FA217B307E407B2
S1131140F50720F0A21BB30BE40BF50B661F771F0A
S1131150881F991F1A9469F76095709580959095EA
S11311609B01AC01BD01CF010895EE0FFF1F059057
S1131170F491E02D0994A29FB001B39FC001A39FF5
S1131180700D811D1124911DB29F700D811D1124BC
S1131190911D08950E94BB08A59F900DB49F900DCA
S11311A0A49F800D911D11240895CF93DF93823065
S11311B0910510F482E090E0E0915004F091510424
S11311C020E030E0C0E0D0E0309711F1408151815F
S11311D048175907C0F04817590761F48281938171
S11311E0209719F09B838A832BC09093510480939A
S11311F0500426C02115310519F04217530718F47D
S11312009A01BE01DF01EF010280F381E02DDCCF02
S11312102115310509F1281B390B2430310590F4CF
S113122012968D919C9113976115710521F0FB0124
S11312309383828304C09093510480935004FD01EE
S1131240329644C0FD01E20FF31F81939193225023
S113125031092D933C933AC020914E0430914F04B0
S1131260232B41F4209102013091030130934F0468
S113127020934E0420910001309101012115310584
S113128041F42DB73EB74091040150910501241B50
S1131290350BE0914E04F0914F04E217F307A0F4EC
S11312A02E1B3F0B2817390778F0AC014E5F5F4FB8
S11312B02417350748F04E0F5F1F50934F04409397
S11312C04E048193919302C0E0E0F0E0CF01DF91FE
S11312D0CF9108950F931F93CF93DF93009709F451
S11312E08CC0FC0132971382128200915004109139
S11312F051040115110581F420813181820F931F5E
S113130020914E0430914F042817390779F5F09352
S11313104F04E0934E0471C0D80140E050E0AE1792
S1131320BF0750F412962D913C911397AD012115EE
S1131330310509F1D901F3CF9D01DA013383228309
S113134060817181860F971F8217930769F4EC01FE
S113135028813981260F371F2E5F3F4F3183208329
S11313608A819B8193838283452B29F4F0935104D2
S1131370E093500442C01396FC93EE931297ED0150
S1131380499159919E01240F351FE217F30771F417
S113139080819181840F951F029611969C938E9360
S11313A08281938113969C938E931297E0E0F0E0F0
S11313B0D80112968D919C911397009719F0F8011A
S11313C08C01F6CF8D919C9198012E5F3F4F820F37
S11313D0931F20914E0430914F042817390769F464
S11313E0309729F4109251041092500402C01382D1
S11313F0128210934F0400934E04DF91CF911F91FA
S11314000F910895FB01DC0102C001900D9241503F
S11314105040D8F70895AEE0B0E0E1E1FAE00C9472
S1131420BA0C0D891E8986E08C831A8309838FEF99
S11314309FE79E838D83AE01475E5F4F6F89788DF2
S1131440CE0101960E942E0A2F813885F801E20F01
S1131450F31F10822E96E4E00C94D60CACE0B0E0BE
S1131460E4E3FAE00C94AC0C7C016B018A01FC010E
S113147017821682838181FFBDC1CE0101964C0182
S1131480F7019381F60193FD859193FF81916F019B
S1131490882309F4ABC1853239F493FD859193FF18
S11314A081916F01853229F4B70190E00E94160CF6
S11314B0E7CF512C312C20E02032A0F48B3269F09C
S11314C030F4803259F0833269F420612CC08D32BB
S11314D039F0803339F4216026C02260246023C0AF
S11314E0286021C027FD27C030ED380F3A3078F44A
S11314F026FF06C0FAE05F9E300D1124532E13C060
S11315008AE0389E300D1124332E20620CC08E32B6
S113151021F426FD6BC1206406C08C3611F42068CA
S113152002C0883641F4F60193FD859193FF8191C1
S11315306F018111C1CF982F9F7D9554933028F46A
S11315400C5F1F4FFFE3F9830DC0833631F08337FF
S113155071F0833509F05BC022C0F8018081898372
S11315600E5F1F4F44244394512C540115C038017D
S1131570F2E06F0E711CF801A080B18026FF03C059
S1131580652D70E002C06FEF7FEFC5012C870E94CC
S11315900B0C2C0183012C852F77222E17C03801C8
S11315A0F2E06F0E711CF801A080B18026FF03C029
S11315B0652D70E002C06FEF7FEFC5012C870E949C
S11315C0000C2C012C852068222E830123FC1BC0D7
S11315D0832D90E048165906B0F4B70180E290E0FC
S11315E00E94160C3A94F4CFF50127FC859127FE4E
S11315F081915F01B70190E00E94160C31103A947A
S1131600F1E04F1A51084114510471F7E5C08436D2
S113161011F0893639F5F80127FF07C0608171811F
S1131620828193810C5F1F4F08C060817181072EF6
S1131630000C880B990B0E5F1F4F2F76722E97FFAD
S113164009C090958095709561957F4F8F4F9F4FFE
S11316502068722E2AE030E0A4010E944E0CA82ECD
S1131660A81844C0853729F42F7EB22E2AE030E032
S113167025C0F22FF97FBF2E8F36C1F018F48835BC
S113168079F0B4C0803719F0883721F0AFC02F2F1C
S11316902061B22EB4FE0DC08B2D8460B82E09C01B
S11316A024FF0AC09F2F9660B92E06C028E030E0C0
S11316B005C020E130E002C020E132E0F801B7FECD
S11316C007C060817181828193810C5F1F4F06C0C6
S11316D06081718180E090E00E5F1F4FA4010E9441
S11316E04E0CA82EA818FB2DFF777F2E76FE0BC07C
S11316F0372D3E7FA51450F474FE0AC072FC08C056
S1131700372D3E7E05C0BA2C372D03C0BA2C01C03C
S1131710B52C34FF0DC0FE01EA0DF11D808180332C
S113172011F4397E09C032FF06C0B394B39404C0E7
S1131730832F867809F0B39433FD13C030FF06C0BD
S11317405A2CB31418F4530C5B18B32CB31468F468
S1131750B70180E290E03C870E94160CB3943C856C
S1131760F5CFB31410F43B1801C0312C34FF12C070
S1131770B70180E390E03C870E94160C3C8532FF61
S113178017C031FD03C088E790E002C088E590E00F
S1131790B7010CC0832F867859F031FF02C08BE269
S11317A001C080E237FD8DE2B70190E00E94160C83
S11317B0A51438F4B70180E390E00E94160C5A9403
S11317C0F7CFAA94F401EA0DF11D8081B70190E0EE
S11317D00E94160CA110F5CF332009F451CEB701A5
S11317E080E290E00E94160C3A94F6CFF7018681CD
S11317F0978102C08FEF9FEF2C96E2E10C94C80C06
S1131800FC010590615070400110D8F780959095C7
S11318108E0F9F1F0895FC016150704001900110CC
S1131820D8F7809590958E0F9F1F08950F931F935F
S1131830CF93DF93FB01238121FD03C08FEF9FEF43
S113184028C022FF16C04681578124813581421762
S1131850530744F4A081B1819D012F5F3F4F318331
S113186020838C93268137812F5F3F4F37832683D4
S113187010C0EB01092F182F0084F185E02D099584
S1131880892BE1F68E819F8101969F838E83812F20
S1131890902FDF91CF911F910F910895FA01AA27FC
S11318A0283051F1203181F1E8946F936E7F6E5F9F
S11318B07F4F8F4F9F4FAF4FB1E03ED0B4E03CD04D
S11318C0670F781F891F9A1FA11D680F791F8A1F30
S11318D0911DA11D6A0F711D811D911DA11D20D097
S11318E009F468943F912AE0269F11243019305D51
S11318F03193DEF6CF010895462F4770405D419342
S1131900B3E00FD0C9F7F6CF462F4F70405D4A338E
S113191018F0495D31FD4052419302D0A9F7EACF56
S1131920B4E0A6959795879577956795BA95C9F785
S113193000976105710508959B01AC010A2E069478
S11319405795479537952795BA95C9F7620F731F31
S1131950841F951FA01D08952F923F924F925F926E
S11319606F927F928F929F92AF92BF92CF92DF92AB
S1131970EF92FF920F931F93CF93DF93CDB7DEB710
S1131980CA1BDB0B0FB6F894DEBF0FBECDBF0994A4
S11319902A88398848885F846E847D848C849B84FB
S11319A0AA84B984C884DF80EE80FD800C811B8109
S11319B0AA81B981CE0FD11D0FB6F894DEBF0FBE38
S11319C0CDBFED01089510E0CCE8D0E004C0FE01E5
S11319D00E94B5082196CD38D107C9F7F894FFCFF6
S11319E000005204200001407064750000000000F3
S11319F00000000000000000003F000000000000A4
S1131A0000000000000000550055000D0A496D6DEE
S1131A10656469617465206D6F6465206F6E0D0A7D
S1131A202D2D2D2D2D2D2D2D2D2D2D2D2D2D2D0D02
S1131A300A56616C696420636F6D6D616E64733AFC
S1131A400D0A2D2D2D2D2D2D2D2D2D2D2D2D2D2D05
S1131A502D0D0A5B312D365D3A20746F67676C6516
S1131A6020656E61626C65730D0A005B615D202008
S1131A703A207072696E742063757272656E740DAB
S1131A800A5B765D20203A207072696E7420766F4E
S1131A906C746167650D0A5B775D20203A20707273
S1131AA0696E7420706F7765720D0A5B215D20206A
S1131AB03A206578697420696D6D6564696174653F
S1131AC0206D6F64650D0A5B735D20203A20736599
S1131AD072766F20746573742028756E696D706CEE
S1131AE02E290D0A0042616420636F6D6D616E647E
S1131AF00D0A00456E61626C65203120746F676762
S1131B006C65640D0A00456E61626C652032207458
S1131B106F67676C65640D0A00456E61626C6520D1
S1131B203320746F67676C65640D0A00456E6162EB
S1131B306C65203420746F67676C65640D0A00451A
S1131B406E61626C65203520746F67676C65640D27
S1131B500A00456E61626C65203620746F67676C9D
S1131B6065640D0A002532752E253032752041201A
S1131B70200D0A002532752E25303275205620207E
S1131B800D0A0025326C752E2530326C75205720D5
S1131B90200D0A0049646C65206D6F6465206F6ECA
S1131BA00D0A0000000000B700160200000000B893
S1071BB00013020018
S9030000FC
