:100000000C9482000C94AA000C94AA000C94AA00F0
:100010000C94AA000C94AA000C94AA000C94AA00B8
:100020000C94AA000C94AA000C94AA000C94AA00A8
:100030000C94AA000C94AA000C94AA000C94AA0098
:100040000C94AA000C94AA000C9407010C94AA002A
:100050000C94CD000C94B4000C94AA000C94AA004B
:100060000C94AA000C94AA00270289033B0289037E
:100070008903E101ED01F901050211021D02890365
:100080008903890389038903890389038903890310
:100090008903890389038903890389038903890300
:1000A00089038903890389038903890389038903F0
:1000B00089038903890389038903890389038903E0
:1000C00089038903890389038903890389038903D0
:1000D00089034F0289038903890380038903890304
:1000E00089038903890389038903890389038903B0
:1000F0008903890389038903890389039D02EB022C
:10010000FC03270511241FBECFEFD8E0DEBFCDBF13
:1001100011E0A0E0B1E0EEE2F3E102C005900D9243
:10012000A438B107D9F722E0A4E8B1E001C01D92DC
:10013000A134B207E1F710E0C1E8D0E004C0219794
:10014000FE010E945C05C038D107C9F70E946A0110
:100150000C948A090C940000089508950E941106D9
:1001600008950E94110608951F920F920FB60F92E4
:1001700011248F93F8948091780080933A028091B3
:10018000790080933B0281E080933C0278948F91C8
:100190000F900FBE0F901F9018951F920F920FB6E1
:1001A0000F9211248F939F93AF93BF93EF93FF937D
:1001B000F894E5E3F2E083818F5F8383948189176C
:1001C00050F4E0913502F0913602E80FF11D808184
:1001D0008093C60010C0E0912E02F0912F0230975C
:1001E00051F0A281B3819C918185809589238C9364
:1001F00080E98093C1007894FF91EF91BF91AF9116
:100200009F918F910F900FBE0F901F9018951F9286
:100210000F920FB60F9211248F939F93AF93BF93BA
:10022000EF93FF93F89495B180E1892785B9E0ECCD
:10023000F0E080818F778083E0E3F2E08381928138
:10024000891758F49091C600A081B181A80FB11D03
:100250009C9383818F5F838301C0F8947894FF918E
:10026000EF91BF91AF919F918F910F900FBE0F9023
:100270001F9018950F931F93CF93DF93AC0108EE57
:1002800011E061EF71E01BC01296ED91FC911397A4
:1002900098812081292B20832FEF30E782E02150A5
:1002A00030408040E1F700C000002081909592230B
:1002B00090831A962A9622E0AE32B20729F741506F
:1002C00051091AF0D801EB01DFCFDF91CF911F91D7
:1002D0000F910895CF93DF9300D000D0CDB7DEB754
:1002E00082E090E00E943A013F9887E480937C008E
:1002F0008FE880937A0010927B008EED91E09093CE
:100300002F0280932E021092C50080E18093C400DA
:1003100082E08093C00088ED8093C10086E08093E6
:10032000C200A8EEB1E01296ED91FC911397808186
:1003300019969C9190958923808378940F2EFCEDDB
:100340002F2EF5E03F2EF02D0F2EF0E3EF2EF2E0F2
:10035000FF2EF02D0F2EFCE9CF2EF1E0DF2EF02D39
:100360000F2EFEE2AF2EF2E0BF2EF02D05E312E0DD
:100370000F2EF6EC8F2E912CF02DF894D7011396BA
:100380008C911397882359F0815013968C9313976F
:10039000ED91FC91E80FF11DE08181E002C080E069
:1003A000E0E07894882309F4EFC18E2F90E0FC01FF
:1003B000BC97EC34F10508F0ACC1EC5CFF4F0C9439
:1003C0005C05A8EEB1E01C96ED91FC911D97908123
:1003D00053968C9189278083A4C1A8EEB1E05696EC
:1003E000ED91FC91579790815D968C918927808340
:1003F00098C1A8EEB1E09096ED91FC919197908113
:1004000097968C91892780838CC1A8EEB1E09A964B
:10041000ED91FC919B979081D1968C918927808357
:1004200080C1A8EEB1E0D496ED91FC91D597908172
:10043000DB968C918927808374C1E0912602F0912C
:100440002702908180912D02892780836AC1BAE0BA
:100450002B0E311C3F922F92A6E0B1E0BF93AF93D9
:10046000DF92CF920E94B2060F900F900F900F90E4
:100470000F900F9056C1FAE02F1A31083F922F9239
:10048000A6E0B1E0BF93AF93DF92CF920E94B20695
:100490000F900F900F900F900F900F9042C13E98C9
:1004A00086E4ACE7B0E08C938FE8EAE7F0E0808385
:1004B000ABE7B0E01C9210923C02808180648083A4
:1004C00080913C028823E1F380913B0220913A0223
:1004D00030E0382B30939B0120939A01A0E4B6E0E2
:1004E0000E9462052B013C019B01AC01442755276A
:1004F000A4E6B0E00E947105909391018093900171
:10050000C301AA27BB278093920190939301209166
:1005100091012F93209190012F939F938F93A7E1A7
:10052000B1E0BF93AF93DF92CF920E94B2060FB6B5
:10053000F894DEBF0FBECDBFF4C03F9887E4ACE7B0
:10054000B0E08C938FE8EAE7F0E08083ABE7B0E0BF
:100550001C9210923C0280818064808380913C02D6
:100560008823E1F380913B0220913A0230E0382B5E
:100570003093950120939401A0E4B6E00E946205B7
:100580002B013C019B01AC0144275527A4E6B0E0B8
:100590000E9471059093970180939601C301AA2749
:1005A000BB278093980190939901209197012F93F5
:1005B000209196012F939F938F93A6E2B1E0BF9372
:1005C000AF93DF92CF920E94B2060FB6F894DEBFCF
:1005D0000FBECDBFA6C03E9886E4ACE7B0E08C93DA
:1005E0008FE8EAE7F0E08083ABE7B0E01C9210927E
:1005F0003C0280818064808380913C028823E1F307
:1006000020913B0280913A0290E0922B90939B01C3
:1006100080939A013F9887E4ECE7F0E080838FE8CD
:10062000AAE7B0E08C93EBE7F0E0108210923C0276
:100630008C9180648C9380913C028823E1F38091BB
:100640003B0220913A0230E0382B30939501209301
:100650009401A0919A01B0919B010E946205698367
:100660007A838B839C8360938C0170938D0180933C
:100670008E0190938F01A7E2B0E09B01AC010E9434
:1006800071052C01662477244092880150928901DB
:1006900060928A0170928B01A0E9B6E0A3019201F9
:1006A0000E9471059B01AC0169817A818B819C81DB
:1006B0000E943A059B01AC01ADE3BFE00E947105C9
:1006C000AA27BB278093840190938501A09386017C
:1006D000B0938701BF93AF939F938F937F926F9255
:1006E0005F924F92A5E3B1E0BF93AF93DF92CF92B9
:1006F0000E94B2060FB6F894DEBF0FBECDBF11C088
:100700008FE1E6E4F1E0D60101900D928A95E1F7E0
:1007100008C08EE0E5E6F1E0D60101900D928A95E1
:10072000E1F7F60101900020E9F73197DF01AC59BC
:10073000B1403D019A2FD501ED91FC91309751F0D8
:10074000A281B3812C918185822B8C9388E4E1EC8A
:10075000F0E08083D80112968C91891708F4F89400
:10076000A3015527B601F801808191810E94A90655
:10077000D80113961C92139714966C921497ED91CE
:10078000FC918081F4018083A6EBB1E01296ED919B
:10079000FC911397908119968C91892B80839101FC
:1007A000ADECBCEC0E946205969587959695879571
:1007B00096958795009751F040E050E0F0E3FA9568
:1007C000F1F74F5F5F4F48175907C1F7A6EBB1E04C
:1007D0001296ED91FC911397908119968C918095CA
:1007E000892380832FEF89EF90E021508040904053
:1007F000E1F700C00000C1CD3F924F925F926F922F
:100800007F928F929F92AF92BF92CF92DF92EF92A0
:10081000FF920F931F93CF93DF93C5E3D2E06894C9
:10082000992495F89A821B821C8280E290E00E94B3
:100830007C0599838883C0E3D2E09A821B821C8264
:1008400080E290E00E947C0599838883E8EEF1E0E5
:100850000F2EF5E2CF2ED12CF02DD382C2820F2E97
:10086000F4E2EF2EF12CF02DF582E48203E210E0A9
:1008700017830683108633243394318687E791E00B
:10088000918380832898209A68E270E07587648756
:1008900047E250E05787468726E230E0318B208BD5
:1008A0000F2EF3E06F2EF02D628A6894552453F8D2
:1008B000538A9387828743983B9ACBE2D0E0D78BC9
:1008C000C68BAAE2B0E0B18FA08F0F2EF9E2AF2E57
:1008D000B12CF02DB38EA28E6894442441F8448E3E
:1008E0006894882482F8858E958B848B5A98529AC6
:1008F000D1A3C0A3B3A3A2A3B5A2A4A286A26894C5
:10090000772474F877A2978F868F5C98549A73A790
:1009100062A755A744A737A726A710AA31AA91A76F
:1009200080A74098389A75AB64AB57AB46AB31AFF4
:1009300020AF32AE43AE93AB82AB4198399A7093FD
:100940002702609326025093290240932802309395
:100950002B0220932A0240922C0280922D0295AF06
:1009600084AF42983A9AEEEDF1E0D383C283B58327
:10097000A483B782A6820F2EF7E04F2EF02D40867B
:100980006894442447F84186918380835F98579AFE
:10099000E4EDF1E0D382C282F582E482178306831C
:1009A0000F2EF5E04F2EF02D4086918691838083A7
:1009B0002D98259AEAECF1E0D382C282F582E48296
:1009C0001783068380867186918380832C98249A6E
:1009D000E0ECF1E0D382C282F582E48217830683E1
:1009E00060865186918380832B98239AE6EBF1E011
:1009F000D383C283B583A483B782A682B6E0B087CF
:100A0000A0E4A187918380835E98569AECEAF1E096
:100A1000738362835583448337832683B087A1879A
:100A20008FE791E0918380833E98DF91CF911F9172
:100A30000F91FF90EF90DF90CF90BF90AF909F907D
:100A40008F907F906F905F904F903F900895CF93DD
:100A5000DF93CEE2D2E02A97E881F9810190F0811C
:100A6000E02DCE01099581E0C83ED807A1F7DF91BE
:100A7000CF910895A1E21A2EAA1BBB1BFD010DC048
:100A8000AA1FBB1FEE1FFF1FA217B307E407F5073E
:100A900020F0A21BB30BE40BF50B661F771F881F1A
:100AA000991F1A9469F760957095809590959B01B0
:100AB000AC01BD01CF010895EE0FFF1F0590F49129
:100AC000E02D0994A29FB001B39FC001A39F700DB8
:100AD000811D1124911DB29F700D811D1124911D46
:100AE00008950E946205A59F900DB49F900DA49F4C
:100AF000800D911D11240895CF93DF9382309105CD
:100B000010F482E090E0E0913F02F091400220E09A
:100B100030E0C0E0D0E0309711F1408151814817BA
:100B20005907C0F04817590761F4828193812097D3
:100B300019F09B838A832BC09093400280933F02DD
:100B400026C02115310519F04217530718F49A01F0
:100B5000BE01DF01EF010280F381E02DDCCF211522
:100B6000310509F1281B390B2430310590F4129618
:100B70008D919C9113976115710521F0FB01938371
:100B8000828304C09093400280933F02FD0132961D
:100B900044C0FD01E20FF31F81939193225031096C
:100BA0002D933C933AC020913D0230913E02232B7D
:100BB00041F4209102013091030130933E022093D1
:100BC0003D0220910001309101012115310541F4D0
:100BD0002DB73EB74091040150910501241B350B00
:100BE000E0913D02F0913E02E217F307A0F42E1BC4
:100BF0003F0B2817390778F0AC014E5F5F4F241781
:100C0000350748F04E0F5F1F50933E0240933D0260
:100C10008193919302C0E0E0F0E0CF01DF91CF91AA
:100C200008950F931F93CF93DF93009709F48CC01F
:100C3000FC0132971382128200913F021091400210
:100C40000115110581F420813181820F931F2091BC
:100C50003D0230913E022817390779F5F0933E02A4
:100C6000E0933D0271C0D80140E050E0AE17BF07ED
:100C700050F412962D913C911397AD012115310539
:100C800009F1D901F3CF9D01DA0133832283608119
:100C90007181860F971F8217930769F4EC012881F1
:100CA0003981260F371F2E5F3F4F318320838A8182
:100CB0009B8193838283452B29F4F0934002E09338
:100CC0003F0242C01396FC93EE931297ED014991B7
:100CD00059919E01240F351FE217F30771F48081AB
:100CE0009181840F951F029611969C938E93828119
:100CF000938113969C938E931297E0E0F0E0D801D5
:100D000012968D919C911397009719F0F8018C0120
:100D1000F6CF8D919C9198012E5F3F4F820F931FCC
:100D200020913D0230913E022817390769F430972F
:100D300029F41092400210923F0202C013821282E4
:100D400010933E0200933D02DF91CF911F910F91CE
:100D50000895FB01DC0102C001900D92415050400A
:100D6000D8F70895AEE0B0E0E8EBF6E00C94610946
:100D70000D891E8986E08C831A8309838FEF9FE794
:100D80009E838D83AE01475E5F4F6F89788DCE0164
:100D900001960E94D5062F813885F801E20FF31FD6
:100DA00010822E96E4E00C947D09ACE0B0E0EBED0F
:100DB000F6E00C9453097C016B018A01FC01178257
:100DC0001682838181FFBDC1CE0101964C01F701DE
:100DD0009381F60193FD859193FF81916F018823A3
:100DE00009F4ABC1853239F493FD859193FF81916C
:100DF0006F01853229F4B70190E00E94BD08E7CF6A
:100E0000512C312C20E02032A0F48B3269F030F4E8
:100E1000803259F0833269F420612CC08D3239F070
:100E2000803339F4216026C02260246023C028600A
:100E300021C027FD27C030ED380F3A3078F426FF67
:100E400006C0FAE05F9E300D1124532E13C08AE0D5
:100E5000389E300D1124332E20620CC08E3221F4C6
:100E600026FD6BC1206406C08C3611F4206802C0D8
:100E7000883641F4F60193FD859193FF81916F01CE
:100E80008111C1CF982F9F7D9554933028F40C5F2A
:100E90001F4FFFE3F9830DC0833631F0833771F0C4
:100EA000833509F05BC022C0F801808189830E5F21
:100EB0001F4F44244394512C540115C03801F2E0D3
:100EC0006F0E711CF801A080B18026FF03C0652D54
:100ED00070E002C06FEF7FEFC5012C870E94B2085F
:100EE0002C0183012C852F77222E17C03801F2E0C8
:100EF0006F0E711CF801A080B18026FF03C0652D24
:100F000070E002C06FEF7FEFC5012C870E94A70839
:100F10002C012C852068222E830123FC1BC0832DED
:100F200090E048165906B0F4B70180E290E00E94C4
:100F3000BD083A94F4CFF50127FC859127FE8191F5
:100F40005F01B70190E00E94BD0831103A94F1E0D2
:100F50004F1A51084114510471F7E5C0843611F05D
:100F6000893639F5F80127FF07C0608171818281D8
:100F700093810C5F1F4F08C060817181072E000CA8
:100F8000880B990B0E5F1F4F2F76722E97FF09C0AB
:100F900090958095709561957F4F8F4F9F4F2068FA
:100FA000722E2AE030E0A4010E94F508A82EA818AD
:100FB00044C0853729F42F7EB22E2AE030E025C0C8
:100FC000F22FF97FBF2E8F36C1F018F4883579F0F3
:100FD000B4C0803719F0883721F0AFC02F2F2061BF
:100FE000B22EB4FE0DC08B2D8460B82E09C024FF34
:100FF0000AC09F2F9660B92E06C028E030E005C0D9
:1010000020E130E002C020E132E0F801B7FE07C085
:1010100060817181828193810C5F1F4F06C0608166
:10102000718180E090E00E5F1F4FA4010E94F508DF
:10103000A82EA818FB2DFF777F2E76FE0BC0372D2C
:101040003E7FA51450F474FE0AC072FC08C0372D10
:101050003E7E05C0BA2C372D03C0BA2C01C0B52C7A
:1010600034FF0DC0FE01EA0DF11D8081803311F4C3
:10107000397E09C032FF06C0B394B39404C0832FF5
:10108000867809F0B39433FD13C030FF06C05A2CA4
:10109000B31418F4530C5B18B32CB31468F4B701F1
:1010A00080E290E03C870E94BD08B3943C85F5CF78
:1010B000B31410F43B1801C0312C34FF12C0B70137
:1010C00080E390E03C870E94BD083C8532FF17C05A
:1010D00031FD03C088E790E002C088E590E0B701E9
:1010E0000CC0832F867859F031FF02C08BE201C01B
:1010F00080E237FD8DE2B70190E00E94BD08A514A3
:1011000038F4B70180E390E00E94BD085A94F7CF0D
:10111000AA94F401EA0DF11D8081B70190E00E94CC
:10112000BD08A110F5CF332009F451CEB70180E2FC
:1011300090E00E94BD083A94F6CFF701868197812E
:1011400002C08FEF9FEF2C96E2E10C946F09FC0137
:101150000590615070400110D8F7809590958E0FE2
:101160009F1F0895FC016150704001900110D8F755
:10117000809590958E0F9F1F08950F931F93CF9387
:10118000DF93FB01238121FD03C08FEF9FEF28C078
:1011900022FF16C0468157812481358142175307AB
:1011A00044F4A081B1819D012F5F3F4F31832083A3
:1011B0008C93268137812F5F3F4F3783268310C062
:1011C000EB01092F182F0084F185E02D0995892B5B
:1011D000E1F68E819F8101969F838E83812F902FD0
:1011E000DF91CF911F910F910895FA01AA2728301E
:1011F00051F1203181F1E8946F936E7F6E5F7F4FE4
:101200008F4F9F4FAF4FB1E03ED0B4E03CD0670F5F
:10121000781F891F9A1FA11D680F791F8A1F911DB2
:10122000A11D6A0F711D811D911DA11D20D009F402
:1012300068943F912AE0269F11243019305D319344
:10124000DEF6CF010895462F4770405D4193B3E02D
:101250000FD0C9F7F6CF462F4F70405D4A3318F0D4
:10126000495D31FD4052419302D0A9F7EACFB4E085
:10127000A6959795879577956795BA95C9F700973D
:101280006105710508959B01AC010A2E06945795DE
:10129000479537952795BA95C9F7620F731F841F35
:1012A000951FA01D08952F923F924F925F926F92CB
:1012B0007F928F929F92AF92BF92CF92DF92EF92E6
:1012C000FF920F931F93CF93DF93CDB7DEB7CA1B67
:1012D000DB0B0FB6F894DEBF0FBECDBF09942A8892
:1012E000398848885F846E847D848C849B84AA843A
:1012F000B984C884DF80EE80FD800C811B81AA81C7
:10130000B981CE0FD11D0FB6F894DEBF0FBECDBF91
:10131000ED01089510E0C1E8D0E004C0FE010E9494
:0E1320005C052196C238D107C9F7F894FFCFBB
:10132E0000004102200050756C736520776964746B
:10133E00682025750D0A002532752E253032752050
:10134E004120200D0A002532752E2530327520568B
:10135E0020200D0A0025326C752E2530326C75203A
:10136E005720200D0A006D617840656D62656464DA
:10137E00656470726F66657373696F6E616C2E63F0
:10138E006F6D0D0A0042616420636F6D6D616E6456
:10139E000D0A0000000000AC00B10000000000AD1E
:0413AE0000AE00008D
:00000001FF
